{
  "_format": "hh-sol-artifact-1",
  "contractName": "ExchangeETH",
  "sourceName": "contracts/ExchangeETH.sol",
  "abi": [
    {
      "inputs": [
        {
          "internalType": "address",
          "name": "_tokenAddress",
          "type": "address"
        }
      ],
      "stateMutability": "nonpayable",
      "type": "constructor"
    },
    {
      "anonymous": false,
      "inputs": [
        {
          "indexed": true,
          "internalType": "address",
          "name": "owner",
          "type": "address"
        },
        {
          "indexed": true,
          "internalType": "address",
          "name": "spender",
          "type": "address"
        },
        {
          "indexed": false,
          "internalType": "uint256",
          "name": "value",
          "type": "uint256"
        }
      ],
      "name": "Approval",
      "type": "event"
    },
    {
      "anonymous": false,
      "inputs": [
        {
          "indexed": true,
          "internalType": "address",
          "name": "previousOwner",
          "type": "address"
        },
        {
          "indexed": true,
          "internalType": "address",
          "name": "newOwner",
          "type": "address"
        }
      ],
      "name": "OwnershipTransferred",
      "type": "event"
    },
    {
      "anonymous": false,
      "inputs": [
        {
          "indexed": false,
          "internalType": "address",
          "name": "account",
          "type": "address"
        }
      ],
      "name": "Paused",
      "type": "event"
    },
    {
      "anonymous": false,
      "inputs": [
        {
          "indexed": true,
          "internalType": "address",
          "name": "from",
          "type": "address"
        },
        {
          "indexed": true,
          "internalType": "address",
          "name": "to",
          "type": "address"
        },
        {
          "indexed": false,
          "internalType": "uint256",
          "name": "value",
          "type": "uint256"
        }
      ],
      "name": "Transfer",
      "type": "event"
    },
    {
      "anonymous": false,
      "inputs": [
        {
          "indexed": false,
          "internalType": "address",
          "name": "account",
          "type": "address"
        }
      ],
      "name": "Unpaused",
      "type": "event"
    },
    {
      "inputs": [
        {
          "internalType": "uint256",
          "name": "_tokenAmount",
          "type": "uint256"
        }
      ],
      "name": "addLiquidity",
      "outputs": [],
      "stateMutability": "payable",
      "type": "function"
    },
    {
      "inputs": [
        {
          "internalType": "address",
          "name": "owner",
          "type": "address"
        },
        {
          "internalType": "address",
          "name": "spender",
          "type": "address"
        }
      ],
      "name": "allowance",
      "outputs": [
        {
          "internalType": "uint256",
          "name": "",
          "type": "uint256"
        }
      ],
      "stateMutability": "view",
      "type": "function"
    },
    {
      "inputs": [
        {
          "internalType": "address",
          "name": "spender",
          "type": "address"
        },
        {
          "internalType": "uint256",
          "name": "amount",
          "type": "uint256"
        }
      ],
      "name": "approve",
      "outputs": [
        {
          "internalType": "bool",
          "name": "",
          "type": "bool"
        }
      ],
      "stateMutability": "nonpayable",
      "type": "function"
    },
    {
      "inputs": [
        {
          "internalType": "address",
          "name": "account",
          "type": "address"
        }
      ],
      "name": "balanceOf",
      "outputs": [
        {
          "internalType": "uint256",
          "name": "",
          "type": "uint256"
        }
      ],
      "stateMutability": "view",
      "type": "function"
    },
    {
      "inputs": [
        {
          "internalType": "uint256",
          "name": "amount",
          "type": "uint256"
        }
      ],
      "name": "burn",
      "outputs": [],
      "stateMutability": "nonpayable",
      "type": "function"
    },
    {
      "inputs": [],
      "name": "decimals",
      "outputs": [
        {
          "internalType": "uint8",
          "name": "",
          "type": "uint8"
        }
      ],
      "stateMutability": "view",
      "type": "function"
    },
    {
      "inputs": [
        {
          "internalType": "address",
          "name": "spender",
          "type": "address"
        },
        {
          "internalType": "uint256",
          "name": "subtractedValue",
          "type": "uint256"
        }
      ],
      "name": "decreaseAllowance",
      "outputs": [
        {
          "internalType": "bool",
          "name": "",
          "type": "bool"
        }
      ],
      "stateMutability": "nonpayable",
      "type": "function"
    },
    {
      "inputs": [
        {
          "internalType": "uint256",
          "name": "_minTokens",
          "type": "uint256"
        }
      ],
      "name": "ethToToken",
      "outputs": [],
      "stateMutability": "payable",
      "type": "function"
    },
    {
      "inputs": [
        {
          "internalType": "uint256",
          "name": "tokenAmount",
          "type": "uint256"
        }
      ],
      "name": "getEthAmount",
      "outputs": [
        {
          "internalType": "uint256",
          "name": "",
          "type": "uint256"
        }
      ],
      "stateMutability": "view",
      "type": "function"
    },
    {
      "inputs": [],
      "name": "getEthReserve",
      "outputs": [
        {
          "internalType": "uint256",
          "name": "",
          "type": "uint256"
        }
      ],
      "stateMutability": "view",
      "type": "function"
    },
    {
      "inputs": [
        {
          "internalType": "uint256",
          "name": "_ethSold",
          "type": "uint256"
        }
      ],
      "name": "getTokenAmount",
      "outputs": [
        {
          "internalType": "uint256",
          "name": "",
          "type": "uint256"
        }
      ],
      "stateMutability": "view",
      "type": "function"
    },
    {
      "inputs": [],
      "name": "getTokenReserve",
      "outputs": [
        {
          "internalType": "uint256",
          "name": "",
          "type": "uint256"
        }
      ],
      "stateMutability": "view",
      "type": "function"
    },
    {
      "inputs": [
        {
          "internalType": "address",
          "name": "spender",
          "type": "address"
        },
        {
          "internalType": "uint256",
          "name": "addedValue",
          "type": "uint256"
        }
      ],
      "name": "increaseAllowance",
      "outputs": [
        {
          "internalType": "bool",
          "name": "",
          "type": "bool"
        }
      ],
      "stateMutability": "nonpayable",
      "type": "function"
    },
    {
      "inputs": [
        {
          "internalType": "address",
          "name": "account",
          "type": "address"
        },
        {
          "internalType": "uint256",
          "name": "amount",
          "type": "uint256"
        }
      ],
      "name": "mint",
      "outputs": [],
      "stateMutability": "nonpayable",
      "type": "function"
    },
    {
      "inputs": [],
      "name": "name",
      "outputs": [
        {
          "internalType": "string",
          "name": "",
          "type": "string"
        }
      ],
      "stateMutability": "view",
      "type": "function"
    },
    {
      "inputs": [],
      "name": "owner",
      "outputs": [
        {
          "internalType": "address",
          "name": "",
          "type": "address"
        }
      ],
      "stateMutability": "view",
      "type": "function"
    },
    {
      "inputs": [],
      "name": "pause",
      "outputs": [],
      "stateMutability": "nonpayable",
      "type": "function"
    },
    {
      "inputs": [],
      "name": "paused",
      "outputs": [
        {
          "internalType": "bool",
          "name": "",
          "type": "bool"
        }
      ],
      "stateMutability": "view",
      "type": "function"
    },
    {
      "inputs": [
        {
          "internalType": "uint256",
          "name": "_amount",
          "type": "uint256"
        }
      ],
      "name": "removeLiquidity",
      "outputs": [],
      "stateMutability": "nonpayable",
      "type": "function"
    },
    {
      "inputs": [],
      "name": "renounceOwnership",
      "outputs": [],
      "stateMutability": "nonpayable",
      "type": "function"
    },
    {
      "inputs": [],
      "name": "symbol",
      "outputs": [
        {
          "internalType": "string",
          "name": "",
          "type": "string"
        }
      ],
      "stateMutability": "view",
      "type": "function"
    },
    {
      "inputs": [],
      "name": "token",
      "outputs": [
        {
          "internalType": "contract IERC20",
          "name": "",
          "type": "address"
        }
      ],
      "stateMutability": "view",
      "type": "function"
    },
    {
      "inputs": [
        {
          "internalType": "uint256",
          "name": "_minEth",
          "type": "uint256"
        },
        {
          "internalType": "uint256",
          "name": "_tokenSold",
          "type": "uint256"
        }
      ],
      "name": "tokenToEth",
      "outputs": [],
      "stateMutability": "nonpayable",
      "type": "function"
    },
    {
      "inputs": [],
      "name": "totalSupply",
      "outputs": [
        {
          "internalType": "uint256",
          "name": "",
          "type": "uint256"
        }
      ],
      "stateMutability": "view",
      "type": "function"
    },
    {
      "inputs": [
        {
          "internalType": "address",
          "name": "to",
          "type": "address"
        },
        {
          "internalType": "uint256",
          "name": "amount",
          "type": "uint256"
        }
      ],
      "name": "transfer",
      "outputs": [
        {
          "internalType": "bool",
          "name": "",
          "type": "bool"
        }
      ],
      "stateMutability": "nonpayable",
      "type": "function"
    },
    {
      "inputs": [
        {
          "internalType": "address",
          "name": "from",
          "type": "address"
        },
        {
          "internalType": "address",
          "name": "to",
          "type": "address"
        },
        {
          "internalType": "uint256",
          "name": "amount",
          "type": "uint256"
        }
      ],
      "name": "transferFrom",
      "outputs": [
        {
          "internalType": "bool",
          "name": "",
          "type": "bool"
        }
      ],
      "stateMutability": "nonpayable",
      "type": "function"
    },
    {
      "inputs": [
        {
          "internalType": "address",
          "name": "newOwner",
          "type": "address"
        }
      ],
      "name": "transferOwnership",
      "outputs": [],
      "stateMutability": "nonpayable",
      "type": "function"
    },
    {
      "inputs": [],
      "name": "unpause",
      "outputs": [],
      "stateMutability": "nonpayable",
      "type": "function"
    }
  ],
  "bytecode": "0x60806040523480156200001157600080fd5b5060405162001a9e38038062001a9e83398101604081905262000034916200012c565b604051806040016040528060098152602001684c697175696469747960b81b815250604051806040016040528060018152602001601360fa1b8152508181816003908162000083919062000203565b50600462000092828262000203565b50506005805460ff1916905550620000aa33620000d2565b5050600680546001600160a01b0319166001600160a01b0392909216919091179055620002cf565b600580546001600160a01b03838116610100818102610100600160a81b031985161790945560405193909204169182907f8be0079c531659141344cd1fd0a4f28419497f9722a3daafe3b4186f6b6457e090600090a35050565b6000602082840312156200013f57600080fd5b81516001600160a01b03811681146200015757600080fd5b9392505050565b634e487b7160e01b600052604160045260246000fd5b600181811c908216806200018957607f821691505b602082108103620001aa57634e487b7160e01b600052602260045260246000fd5b50919050565b601f821115620001fe57600081815260208120601f850160051c81016020861015620001d95750805b601f850160051c820191505b81811015620001fa57828155600101620001e5565b5050505b505050565b81516001600160401b038111156200021f576200021f6200015e565b620002378162000230845462000174565b84620001b0565b602080601f8311600181146200026f5760008415620002565750858301515b600019600386901b1c1916600185901b178555620001fa565b600085815260208120601f198616915b82811015620002a0578886015182559484019460019091019084016200027f565b5085821015620002bf5787850151600019600388901b60f8161c191681555b5050505050600190811b01905550565b6117bf80620002df6000396000f3fe6080604052600436106101b75760003560e01c80638456cb59116100ec578063a9059cbb1161008a578063e27a248911610064578063e27a2489146104b3578063f1d9f88b146104c6578063f2fde38b146104db578063fc0c546a146104fb57600080fd5b8063a9059cbb14610453578063c2507ac114610473578063dd62ed3e1461049357600080fd5b80638fc7a25d116100c65780638fc7a25d146103de57806395d89b41146103fe5780639c8f9f2314610413578063a457c2d71461043357600080fd5b80638456cb591461037f5780638a9118c0146103945780638da5cb5b146103a757600080fd5b806340c10f19116101595780635c975abb116101335780635c975abb146102fc57806363ffeafd1461031457806370a0823114610334578063715018a61461036a57600080fd5b806340c10f19146102a957806342966c68146102c957806351c6590a146102e957600080fd5b806323b872dd1161019557806323b872dd14610236578063313ce5671461025657806339509351146102725780633f4ba83a1461029257600080fd5b806306fdde03146101bc578063095ea7b3146101e757806318160ddd14610217575b600080fd5b3480156101c857600080fd5b506101d161051b565b6040516101de9190611546565b60405180910390f35b3480156101f357600080fd5b506102076102023660046115b0565b6105ad565b60405190151581526020016101de565b34801561022357600080fd5b506002545b6040519081526020016101de565b34801561024257600080fd5b506102076102513660046115da565b6105c7565b34801561026257600080fd5b50604051601281526020016101de565b34801561027e57600080fd5b5061020761028d3660046115b0565b6105eb565b34801561029e57600080fd5b506102a761060d565b005b3480156102b557600080fd5b506102a76102c43660046115b0565b61061f565b3480156102d557600080fd5b506102a76102e4366004611616565b610635565b6102a76102f7366004611616565b610642565b34801561030857600080fd5b5060055460ff16610207565b34801561032057600080fd5b506102a761032f36600461162f565b61080d565b34801561034057600080fd5b5061022861034f366004611651565b6001600160a01b031660009081526020819052604090205490565b34801561037657600080fd5b506102a7610963565b34801561038b57600080fd5b506102a7610975565b3480156103a057600080fd5b5047610228565b3480156103b357600080fd5b5060055461010090046001600160a01b03165b6040516001600160a01b0390911681526020016101de565b3480156103ea57600080fd5b506102286103f9366004611616565b610985565b34801561040a57600080fd5b506101d16109a6565b34801561041f57600080fd5b506102a761042e366004611616565b6109b5565b34801561043f57600080fd5b5061020761044e3660046115b0565b610aef565b34801561045f57600080fd5b5061020761046e3660046115b0565b610b6a565b34801561047f57600080fd5b5061022861048e366004611616565b610b78565b34801561049f57600080fd5b506102286104ae36600461166c565b610b88565b6102a76104c1366004611616565b610bb3565b3480156104d257600080fd5b50610228610ca5565b3480156104e757600080fd5b506102a76104f6366004611651565b610d17565b34801561050757600080fd5b506006546103c6906001600160a01b031681565b60606003805461052a9061169f565b80601f01602080910402602001604051908101604052809291908181526020018280546105569061169f565b80156105a35780601f10610578576101008083540402835291602001916105a3565b820191906000526020600020905b81548152906001019060200180831161058657829003601f168201915b5050505050905090565b6000336105bb818585610d8d565b60019150505b92915050565b6000336105d5858285610eb2565b6105e0858585610f26565b506001949350505050565b6000336105bb8185856105fe8383610b88565b61060891906116ef565b610d8d565b6106156110ff565b61061d61115f565b565b6106276110ff565b61063182826111b1565b5050565b61063f338261129c565b50565b600061064e3447611702565b9050806000036106e4576006546040516323b872dd60e01b8152336004820152306024820152604481018490526001600160a01b03909116906323b872dd906064016020604051808303816000875af11580156106af573d6000803e3d6000fd5b505050506040513d601f19601f820116820180604052508101906106d39190611715565b50476106df33826111b1565b505050565b60006106ee610ca5565b90506000826106fd8334611737565b610707919061174e565b90508084101561075e5760405162461bcd60e51b815260206004820152601960248201527f696e73756666696369656e7420746f6b656e20616d6f756e740000000000000060448201526064015b60405180910390fd5b6006546040516323b872dd60e01b8152336004820152306024820152604481018390526001600160a01b03909116906323b872dd906064016020604051808303816000875af11580156107b5573d6000803e3d6000fd5b505050506040513d601f19601f820116820180604052508101906107d99190611715565b506000836107e660025490565b6107f09034611737565b6107fa919061174e565b905061080633826111b1565b5050505050565b600081116108485760405162461bcd60e51b8152602060048201526008602482015267746f6f206c65737360c01b6044820152606401610755565b600061085382610985565b90506103e8610864826103e5611737565b61086e919061174e565b9050828110156108b45760405162461bcd60e51b81526020600482015260116024820152700d8cae6e640e8d0c2dc40bedad2dc8ae8d607b1b6044820152606401610755565b6006546040516323b872dd60e01b8152336004820152306024820152604481018490526001600160a01b03909116906323b872dd906064016020604051808303816000875af115801561090b573d6000803e3d6000fd5b505050506040513d601f19601f8201168201806040525081019061092f9190611715565b50604051339082156108fc029083906000818181858888f1935050505015801561095d573d6000803e3d6000fd5b50505050565b61096b6110ff565b61061d60006113ee565b61097d6110ff565b61061d611448565b60008061099f83610994610ca5565b47611485565b611485565b9392505050565b60606004805461052a9061169f565b600081116109f65760405162461bcd60e51b815260206004820152600e60248201526d1a5b9d985b1a5908185b5bdd5b9d60921b6044820152606401610755565b6000610a0160025490565b610a0b8347611737565b610a15919061174e565b90506000610a2260025490565b83610a2b610ca5565b610a359190611737565b610a3f919061174e565b9050610a4b338461129c565b604051339083156108fc029084906000818181858888f19350505050158015610a78573d6000803e3d6000fd5b5060065460405163a9059cbb60e01b8152336004820152602481018390526001600160a01b039091169063a9059cbb906044015b6020604051808303816000875af1158015610acb573d6000803e3d6000fd5b505050506040513d601f19601f8201168201806040525081019061095d9190611715565b60003381610afd8286610b88565b905083811015610b5d5760405162461bcd60e51b815260206004820152602560248201527f45524332303a2064656372656173656420616c6c6f77616e63652062656c6f77604482015264207a65726f60d81b6064820152608401610755565b6105e08286868403610d8d565b6000336105bb818585610f26565b60008061099f834761099a610ca5565b6001600160a01b03918216600090815260016020908152604080832093909416825291909152205490565b6000610bbf3447611702565b905060003411610bfc5760405162461bcd60e51b8152602060048201526008602482015267746f6f206c65737360c01b6044820152606401610755565b6000610c0b348361099a610ca5565b90506103e8610c1c826103e5611737565b610c26919061174e565b905082811015610c6e5760405162461bcd60e51b81526020600482015260136024820152726c657373207468616e206d696e746f6b656e7360681b6044820152606401610755565b60065460405163a9059cbb60e01b8152336004820152602481018390526001600160a01b039091169063a9059cbb90604401610aac565b6006546040516370a0823160e01b81523060048201526000916001600160a01b0316906370a0823190602401602060405180830381865afa158015610cee573d6000803e3d6000fd5b505050506040513d601f19601f82011682018060405250810190610d129190611770565b905090565b610d1f6110ff565b6001600160a01b038116610d845760405162461bcd60e51b815260206004820152602660248201527f4f776e61626c653a206e6577206f776e657220697320746865207a65726f206160448201526564647265737360d01b6064820152608401610755565b61063f816113ee565b6001600160a01b038316610def5760405162461bcd60e51b8152602060048201526024808201527f45524332303a20617070726f76652066726f6d20746865207a65726f206164646044820152637265737360e01b6064820152608401610755565b6001600160a01b038216610e505760405162461bcd60e51b815260206004820152602260248201527f45524332303a20617070726f766520746f20746865207a65726f206164647265604482015261737360f01b6064820152608401610755565b6001600160a01b0383811660008181526001602090815260408083209487168084529482529182902085905590518481527f8c5be1e5ebec7d5bd14f71427d1e84f3dd0314c0f7b2291e5b200ac8c7c3b92591015b60405180910390a3505050565b6000610ebe8484610b88565b9050600019811461095d5781811015610f195760405162461bcd60e51b815260206004820152601d60248201527f45524332303a20696e73756666696369656e7420616c6c6f77616e63650000006044820152606401610755565b61095d8484848403610d8d565b6001600160a01b038316610f8a5760405162461bcd60e51b815260206004820152602560248201527f45524332303a207472616e736665722066726f6d20746865207a65726f206164604482015264647265737360d81b6064820152608401610755565b6001600160a01b038216610fec5760405162461bcd60e51b815260206004820152602360248201527f45524332303a207472616e7366657220746f20746865207a65726f206164647260448201526265737360e81b6064820152608401610755565b610ff78383836114af565b6001600160a01b0383166000908152602081905260409020548181101561106f5760405162461bcd60e51b815260206004820152602660248201527f45524332303a207472616e7366657220616d6f756e7420657863656564732062604482015265616c616e636560d01b6064820152608401610755565b6001600160a01b038085166000908152602081905260408082208585039055918516815290812080548492906110a69084906116ef565b92505081905550826001600160a01b0316846001600160a01b03167fddf252ad1be2c89b69c2b068fc378daa952ba7f163c4a11628f55a4df523b3ef846040516110f291815260200190565b60405180910390a361095d565b6005546001600160a01b0361010090910416331461061d5760405162461bcd60e51b815260206004820181905260248201527f4f776e61626c653a2063616c6c6572206973206e6f7420746865206f776e65726044820152606401610755565b6111676114b7565b6005805460ff191690557f5db9ee0a495bf2e6ff9c91a7834c1ba4fdd244a5e8aa4e537bd38aeae4b073aa335b6040516001600160a01b03909116815260200160405180910390a1565b6001600160a01b0382166112075760405162461bcd60e51b815260206004820152601f60248201527f45524332303a206d696e7420746f20746865207a65726f2061646472657373006044820152606401610755565b611213600083836114af565b806002600082825461122591906116ef565b90915550506001600160a01b038216600090815260208190526040812080548392906112529084906116ef565b90915550506040518181526001600160a01b038316906000907fddf252ad1be2c89b69c2b068fc378daa952ba7f163c4a11628f55a4df523b3ef9060200160405180910390a35050565b6001600160a01b0382166112fc5760405162461bcd60e51b815260206004820152602160248201527f45524332303a206275726e2066726f6d20746865207a65726f206164647265736044820152607360f81b6064820152608401610755565b611308826000836114af565b6001600160a01b0382166000908152602081905260409020548181101561137c5760405162461bcd60e51b815260206004820152602260248201527f45524332303a206275726e20616d6f756e7420657863656564732062616c616e604482015261636560f01b6064820152608401610755565b6001600160a01b03831660009081526020819052604081208383039055600280548492906113ab908490611702565b90915550506040518281526000906001600160a01b038516907fddf252ad1be2c89b69c2b068fc378daa952ba7f163c4a11628f55a4df523b3ef90602001610ea5565b600580546001600160a01b03838116610100818102610100600160a81b031985161790945560405193909204169182907f8be0079c531659141344cd1fd0a4f28419497f9722a3daafe3b4186f6b6457e090600090a35050565b611450611500565b6005805460ff191660011790557f62e78cea01bee320cd4e420270b5ea74000d11b0c9f74754ebdbfc544b05a2586111943390565b60008061149285856116ef565b61149c8685611737565b6114a6919061174e565b95945050505050565b6106df611500565b60055460ff1661061d5760405162461bcd60e51b815260206004820152601460248201527314185d5cd8589b194e881b9bdd081c185d5cd95960621b6044820152606401610755565b60055460ff161561061d5760405162461bcd60e51b815260206004820152601060248201526f14185d5cd8589b194e881c185d5cd95960821b6044820152606401610755565b600060208083528351808285015260005b8181101561157357858101830151858201604001528201611557565b506000604082860101526040601f19601f8301168501019250505092915050565b80356001600160a01b03811681146115ab57600080fd5b919050565b600080604083850312156115c357600080fd5b6115cc83611594565b946020939093013593505050565b6000806000606084860312156115ef57600080fd5b6115f884611594565b925061160660208501611594565b9150604084013590509250925092565b60006020828403121561162857600080fd5b5035919050565b6000806040838503121561164257600080fd5b50508035926020909101359150565b60006020828403121561166357600080fd5b61099f82611594565b6000806040838503121561167f57600080fd5b61168883611594565b915061169660208401611594565b90509250929050565b600181811c908216806116b357607f821691505b6020821081036116d357634e487b7160e01b600052602260045260246000fd5b50919050565b634e487b7160e01b600052601160045260246000fd5b808201808211156105c1576105c16116d9565b818103818111156105c1576105c16116d9565b60006020828403121561172757600080fd5b8151801515811461099f57600080fd5b80820281158282048414176105c1576105c16116d9565b60008261176b57634e487b7160e01b600052601260045260246000fd5b500490565b60006020828403121561178257600080fd5b505191905056fea264697066735822122057c7aeccef78909b4ff5650ad2ec130a65e10446a7a6e7953a552c669146821464736f6c63430008110033",
  "linkReferences": {},
  "deployedLinkReferences": {}
}