{
    "contractName": "FT",
    "abi": [
        {
            "inputs": [
                {
                    "internalType": "string",
                    "name": "_name",
                    "type": "string"
                },
                {
                    "internalType": "string",
                    "name": "_symbol",
                    "type": "string"
                },
                {
                    "internalType": "uint8",
                    "name": "_decimals",
                    "type": "uint8"
                }
            ],
            "stateMutability": "nonpayable",
            "type": "constructor"
        },
        {
            "anonymous": false,
            "inputs": [
                {
                    "indexed": true,
                    "internalType": "address",
                    "name": "previousOwner",
                    "type": "address"
                },
                {
                    "indexed": true,
                    "internalType": "address",
                    "name": "newOwner",
                    "type": "address"
                }
            ],
            "name": "OwnershipTransferred",
            "type": "event"
        },
        {
            "anonymous": false,
            "inputs": [
                {
                    "indexed": true,
                    "internalType": "address",
                    "name": "from",
                    "type": "address"
                },
                {
                    "indexed": true,
                    "internalType": "address",
                    "name": "to",
                    "type": "address"
                },
                {
                    "indexed": false,
                    "internalType": "uint256",
                    "name": "value",
                    "type": "uint256"
                }
            ],
            "name": "Transfer",
            "type": "event"
        },
        {
            "inputs": [
                {
                    "internalType": "address",
                    "name": "",
                    "type": "address"
                }
            ],
            "name": "balanceOf",
            "outputs": [
                {
                    "internalType": "uint256",
                    "name": "",
                    "type": "uint256"
                }
            ],
            "stateMutability": "view",
            "type": "function"
        },
        {
            "inputs": [
                {
                    "internalType": "address",
                    "name": "account",
                    "type": "address"
                },
                {
                    "internalType": "uint256",
                    "name": "amount",
                    "type": "uint256"
                }
            ],
            "name": "burn",
            "outputs": [],
            "stateMutability": "nonpayable",
            "type": "function"
        },
        {
            "inputs": [],
            "name": "decimals",
            "outputs": [
                {
                    "internalType": "uint8",
                    "name": "",
                    "type": "uint8"
                }
            ],
            "stateMutability": "view",
            "type": "function"
        },
        {
            "inputs": [],
            "name": "fee",
            "outputs": [
                {
                    "internalType": "uint256",
                    "name": "",
                    "type": "uint256"
                }
            ],
            "stateMutability": "view",
            "type": "function"
        },
        {
            "inputs": [
                {
                    "internalType": "address",
                    "name": "account",
                    "type": "address"
                },
                {
                    "internalType": "uint256",
                    "name": "amount",
                    "type": "uint256"
                }
            ],
            "name": "mint",
            "outputs": [],
            "stateMutability": "nonpayable",
            "type": "function"
        },
        {
            "inputs": [],
            "name": "name",
            "outputs": [
                {
                    "internalType": "string",
                    "name": "",
                    "type": "string"
                }
            ],
            "stateMutability": "view",
            "type": "function"
        },
        {
            "inputs": [],
            "name": "owner",
            "outputs": [
                {
                    "internalType": "address",
                    "name": "",
                    "type": "address"
                }
            ],
            "stateMutability": "view",
            "type": "function"
        },
        {
            "inputs": [],
            "name": "renounceOwnership",
            "outputs": [],
            "stateMutability": "nonpayable",
            "type": "function"
        },
        {
            "inputs": [],
            "name": "slippage",
            "outputs": [
                {
                    "internalType": "uint256",
                    "name": "",
                    "type": "uint256"
                }
            ],
            "stateMutability": "view",
            "type": "function"
        },
        {
            "inputs": [],
            "name": "symbol",
            "outputs": [
                {
                    "internalType": "string",
                    "name": "",
                    "type": "string"
                }
            ],
            "stateMutability": "view",
            "type": "function"
        },
        {
            "inputs": [
                {
                    "internalType": "address",
                    "name": "to",
                    "type": "address"
                },
                {
                    "internalType": "uint256",
                    "name": "value",
                    "type": "uint256"
                }
            ],
            "name": "transfer",
            "outputs": [],
            "stateMutability": "nonpayable",
            "type": "function"
        },
        {
            "inputs": [
                {
                    "internalType": "address",
                    "name": "newOwner",
                    "type": "address"
                }
            ],
            "name": "transferOwnership",
            "outputs": [],
            "stateMutability": "nonpayable",
            "type": "function"
        }
    ],
    "bytecode": "608060405260036005553480156200001657600080fd5b5060405162000c6d38038062000c6d833981016040819052620000399162000194565b62000044336200007f565b6001620000528482620002a8565b506002620000618382620002a8565b506003805460ff191660ff9290921691909117905550620003749050565b600080546001600160a01b038381166001600160a01b0319831681178455604051919092169283917f8be0079c531659141344cd1fd0a4f28419497f9722a3daafe3b4186f6b6457e09190a35050565b634e487b7160e01b600052604160045260246000fd5b600082601f830112620000f757600080fd5b81516001600160401b0380821115620001145762000114620000cf565b604051601f8301601f19908116603f011681019082821181831017156200013f576200013f620000cf565b816040528381526020925086838588010111156200015c57600080fd5b600091505b8382101562000180578582018301518183018401529082019062000161565b600093810190920192909252949350505050565b600080600060608486031215620001aa57600080fd5b83516001600160401b0380821115620001c257600080fd5b620001d087838801620000e5565b94506020860151915080821115620001e757600080fd5b50620001f686828701620000e5565b925050604084015160ff811681146200020e57600080fd5b809150509250925092565b600181811c908216806200022e57607f821691505b6020821081036200024f57634e487b7160e01b600052602260045260246000fd5b50919050565b601f821115620002a357600081815260208120601f850160051c810160208610156200027e5750805b601f850160051c820191505b818110156200029f578281556001016200028a565b5050505b505050565b81516001600160401b03811115620002c457620002c4620000cf565b620002dc81620002d5845462000219565b8462000255565b602080601f831160018114620003145760008415620002fb5750858301515b600019600386901b1c1916600185901b1785556200029f565b600085815260208120601f198616915b82811015620003455788860151825594840194600190910190840162000324565b5085821015620003645787850151600019600388901b60f8161c191681555b5050505050600190811b01905550565b6108e980620003846000396000f3fe608060405234801561001057600080fd5b50600436106100b45760003560e01c80638da5cb5b116100715780638da5cb5b1461014a57806395d89b41146101655780639dc29fac1461016d578063a9059cbb14610180578063ddca3f4314610193578063f2fde38b1461019c57600080fd5b806306fdde03146100b9578063313ce567146100d75780633e032a3b146100f657806340c10f191461010d57806370a0823114610122578063715018a614610142575b600080fd5b6100c16101af565b6040516100ce9190610755565b60405180910390f35b6003546100e49060ff1681565b60405160ff90911681526020016100ce565b6100ff60065481565b6040519081526020016100ce565b61012061011b3660046107bf565b61023d565b005b6100ff6101303660046107e9565b60046020526000908152604090205481565b610120610326565b6000546040516001600160a01b0390911681526020016100ce565b6100c161033a565b61012061017b3660046107bf565b610347565b61012061018e3660046107bf565b61041e565b6100ff60055481565b6101206101aa3660046107e9565b6105f9565b600180546101bc90610804565b80601f01602080910402602001604051908101604052809291908181526020018280546101e890610804565b80156102355780601f1061020a57610100808354040283529160200191610235565b820191906000526020600020905b81548152906001019060200180831161021857829003601f168201915b505050505081565b610245610672565b600081116102a65760405162461bcd60e51b8152602060048201526024808201527f43616e6e6f74206d696e74207a65726f206f72206e6567617469766520746f6b60448201526332b7399760e11b60648201526084015b60405180910390fd5b6001600160a01b0382166000908152600460205260409020546102c990826106cc565b6001600160a01b0383166000818152600460205260408082209390935591519091907fddf252ad1be2c89b69c2b068fc378daa952ba7f163c4a11628f55a4df523b3ef9061031a9085815260200190565b60405180910390a35050565b61032e610672565b61033860006106e1565b565b600280546101bc90610804565b61034f610672565b6001600160a01b0382166000908152600460205260409020548111156103ad5760405162461bcd60e51b81526020600482015260136024820152722737ba1032b737bab3b4103130b630b731b29760691b604482015260640161029d565b6001600160a01b0382166000908152600460205260409020546103d09082610731565b6001600160a01b0383166000818152600460205260408082209390935591517fddf252ad1be2c89b69c2b068fc378daa952ba7f163c4a11628f55a4df523b3ef9061031a9085815260200190565b6104436005546103e86104319190610854565b61043d836103e861073d565b90610749565b3360009081526004602052604090205410156104975760405162461bcd60e51b81526020600482015260136024820152722737ba1032b737bab3b4103130b630b731b29760691b604482015260640161029d565b6104d96103e861043d6006546103e86104b09190610854565b6001600160a01b0386166000908152600460205260409020546104d390866106cc565b9061073d565b6001600160a01b0383166000908152600460205260409020546104fd908390610854565b11156105445760405162461bcd60e51b815260206004820152601660248201527522bc31b2b2b2399039b634b83830b3b2903930ba329760511b604482015260640161029d565b61057c6105666005546103e861055a9190610854565b61043d846103e861073d565b3360009081526004602052604090205490610731565b33600090815260046020526040808220929092556001600160a01b038416815220546105a890826106cc565b6001600160a01b0383166000818152600460205260409081902092909255905133907fddf252ad1be2c89b69c2b068fc378daa952ba7f163c4a11628f55a4df523b3ef9061031a9085815260200190565b610601610672565b6001600160a01b0381166106665760405162461bcd60e51b815260206004820152602660248201527f4f776e61626c653a206e6577206f776e657220697320746865207a65726f206160448201526564647265737360d01b606482015260840161029d565b61066f816106e1565b50565b6000546001600160a01b031633146103385760405162461bcd60e51b815260206004820181905260248201527f4f776e61626c653a2063616c6c6572206973206e6f7420746865206f776e6572604482015260640161029d565b60006106d88284610854565b90505b92915050565b600080546001600160a01b038381166001600160a01b0319831681178455604051919092169283917f8be0079c531659141344cd1fd0a4f28419497f9722a3daafe3b4186f6b6457e09190a35050565b60006106d88284610867565b60006106d8828461087a565b60006106d88284610891565b600060208083528351808285015260005b8181101561078257858101830151858201604001528201610766565b506000604082860101526040601f19601f8301168501019250505092915050565b80356001600160a01b03811681146107ba57600080fd5b919050565b600080604083850312156107d257600080fd5b6107db836107a3565b946020939093013593505050565b6000602082840312156107fb57600080fd5b6106d8826107a3565b600181811c9082168061081857607f821691505b60208210810361083857634e487b7160e01b600052602260045260246000fd5b50919050565b634e487b7160e01b600052601160045260246000fd5b808201808211156106db576106db61083e565b818103818111156106db576106db61083e565b80820281158282048414176106db576106db61083e565b6000826108ae57634e487b7160e01b600052601260045260246000fd5b50049056fea2646970667358221220e663db2306e09007e2e179365b8fa13d4449de5b3e025e12c472158567cd01a064736f6c63430008110033",
    "sourcePath": "d:/Dappworkplace/dapp-lesson2/contracts/Swap.sol",
    "compiler": {
        "name": "solc",
        "version": "0.8.17+commit.8df45f5f"
    },
    "functionHashes": {
        "balanceOf(address)": "70a08231",
        "burn(address,uint256)": "9dc29fac",
        "decimals()": "313ce567",
        "fee()": "ddca3f43",
        "mint(address,uint256)": "40c10f19",
        "name()": "06fdde03",
        "owner()": "8da5cb5b",
        "renounceOwnership()": "715018a6",
        "slippage()": "3e032a3b",
        "symbol()": "95d89b41",
        "transfer(address,uint256)": "a9059cbb",
        "transferOwnership(address)": "f2fde38b"
    },
    "gasEstimates": {
        "creation": {
            "codeDepositCost": "456200",
            "executionCost": "infinite",
            "totalCost": "infinite"
        },
        "external": {
            "balanceOf(address)": "2612",
            "burn(address,uint256)": "infinite",
            "decimals()": "2336",
            "fee()": "2383",
            "mint(address,uint256)": "infinite",
            "name()": "infinite",
            "owner()": "2301",
            "renounceOwnership()": "infinite",
            "slippage()": "2340",
            "symbol()": "infinite",
            "transfer(address,uint256)": "infinite",
            "transferOwnership(address)": "28447"
        }
    }
}