{
    "contractName": "FT",
    "abi": [
        {
            "inputs": [
                {
                    "internalType": "string",
                    "name": "name",
                    "type": "string"
                },
                {
                    "internalType": "string",
                    "name": "symbol",
                    "type": "string"
                }
            ],
            "stateMutability": "nonpayable",
            "type": "constructor"
        },
        {
            "anonymous": false,
            "inputs": [
                {
                    "indexed": true,
                    "internalType": "address",
                    "name": "owner",
                    "type": "address"
                },
                {
                    "indexed": true,
                    "internalType": "address",
                    "name": "spender",
                    "type": "address"
                },
                {
                    "indexed": false,
                    "internalType": "uint256",
                    "name": "value",
                    "type": "uint256"
                }
            ],
            "name": "Approval",
            "type": "event"
        },
        {
            "anonymous": false,
            "inputs": [
                {
                    "indexed": true,
                    "internalType": "address",
                    "name": "previousOwner",
                    "type": "address"
                },
                {
                    "indexed": true,
                    "internalType": "address",
                    "name": "newOwner",
                    "type": "address"
                }
            ],
            "name": "OwnershipTransferred",
            "type": "event"
        },
        {
            "anonymous": false,
            "inputs": [
                {
                    "indexed": false,
                    "internalType": "address",
                    "name": "account",
                    "type": "address"
                }
            ],
            "name": "Paused",
            "type": "event"
        },
        {
            "anonymous": false,
            "inputs": [
                {
                    "indexed": true,
                    "internalType": "address",
                    "name": "from",
                    "type": "address"
                },
                {
                    "indexed": true,
                    "internalType": "address",
                    "name": "to",
                    "type": "address"
                },
                {
                    "indexed": false,
                    "internalType": "uint256",
                    "name": "value",
                    "type": "uint256"
                }
            ],
            "name": "Transfer",
            "type": "event"
        },
        {
            "anonymous": false,
            "inputs": [
                {
                    "indexed": false,
                    "internalType": "address",
                    "name": "account",
                    "type": "address"
                }
            ],
            "name": "Unpaused",
            "type": "event"
        },
        {
            "inputs": [
                {
                    "internalType": "uint256",
                    "name": "amount",
                    "type": "uint256"
                }
            ],
            "name": "addLiquidity",
            "outputs": [],
            "stateMutability": "nonpayable",
            "type": "function"
        },
        {
            "inputs": [
                {
                    "internalType": "address",
                    "name": "owner",
                    "type": "address"
                },
                {
                    "internalType": "address",
                    "name": "spender",
                    "type": "address"
                }
            ],
            "name": "allowance",
            "outputs": [
                {
                    "internalType": "uint256",
                    "name": "",
                    "type": "uint256"
                }
            ],
            "stateMutability": "view",
            "type": "function"
        },
        {
            "inputs": [
                {
                    "internalType": "address",
                    "name": "spender",
                    "type": "address"
                },
                {
                    "internalType": "uint256",
                    "name": "amount",
                    "type": "uint256"
                }
            ],
            "name": "approve",
            "outputs": [
                {
                    "internalType": "bool",
                    "name": "",
                    "type": "bool"
                }
            ],
            "stateMutability": "nonpayable",
            "type": "function"
        },
        {
            "inputs": [
                {
                    "internalType": "address",
                    "name": "account",
                    "type": "address"
                }
            ],
            "name": "balanceOf",
            "outputs": [
                {
                    "internalType": "uint256",
                    "name": "",
                    "type": "uint256"
                }
            ],
            "stateMutability": "view",
            "type": "function"
        },
        {
            "inputs": [
                {
                    "internalType": "uint256",
                    "name": "amount",
                    "type": "uint256"
                }
            ],
            "name": "burn",
            "outputs": [],
            "stateMutability": "nonpayable",
            "type": "function"
        },
        {
            "inputs": [],
            "name": "decimals",
            "outputs": [
                {
                    "internalType": "uint8",
                    "name": "",
                    "type": "uint8"
                }
            ],
            "stateMutability": "view",
            "type": "function"
        },
        {
            "inputs": [
                {
                    "internalType": "address",
                    "name": "spender",
                    "type": "address"
                },
                {
                    "internalType": "uint256",
                    "name": "subtractedValue",
                    "type": "uint256"
                }
            ],
            "name": "decreaseAllowance",
            "outputs": [
                {
                    "internalType": "bool",
                    "name": "",
                    "type": "bool"
                }
            ],
            "stateMutability": "nonpayable",
            "type": "function"
        },
        {
            "inputs": [
                {
                    "internalType": "address",
                    "name": "spender",
                    "type": "address"
                },
                {
                    "internalType": "uint256",
                    "name": "addedValue",
                    "type": "uint256"
                }
            ],
            "name": "increaseAllowance",
            "outputs": [
                {
                    "internalType": "bool",
                    "name": "",
                    "type": "bool"
                }
            ],
            "stateMutability": "nonpayable",
            "type": "function"
        },
        {
            "inputs": [
                {
                    "internalType": "address",
                    "name": "account",
                    "type": "address"
                },
                {
                    "internalType": "uint256",
                    "name": "amount",
                    "type": "uint256"
                }
            ],
            "name": "mint",
            "outputs": [],
            "stateMutability": "nonpayable",
            "type": "function"
        },
        {
            "inputs": [],
            "name": "name",
            "outputs": [
                {
                    "internalType": "string",
                    "name": "",
                    "type": "string"
                }
            ],
            "stateMutability": "view",
            "type": "function"
        },
        {
            "inputs": [],
            "name": "owner",
            "outputs": [
                {
                    "internalType": "address",
                    "name": "",
                    "type": "address"
                }
            ],
            "stateMutability": "view",
            "type": "function"
        },
        {
            "inputs": [],
            "name": "pause",
            "outputs": [],
            "stateMutability": "nonpayable",
            "type": "function"
        },
        {
            "inputs": [],
            "name": "paused",
            "outputs": [
                {
                    "internalType": "bool",
                    "name": "",
                    "type": "bool"
                }
            ],
            "stateMutability": "view",
            "type": "function"
        },
        {
            "inputs": [
                {
                    "internalType": "uint256",
                    "name": "amount",
                    "type": "uint256"
                }
            ],
            "name": "removeLiquidity",
            "outputs": [],
            "stateMutability": "nonpayable",
            "type": "function"
        },
        {
            "inputs": [],
            "name": "renounceOwnership",
            "outputs": [],
            "stateMutability": "nonpayable",
            "type": "function"
        },
        {
            "inputs": [],
            "name": "symbol",
            "outputs": [
                {
                    "internalType": "string",
                    "name": "",
                    "type": "string"
                }
            ],
            "stateMutability": "view",
            "type": "function"
        },
        {
            "inputs": [],
            "name": "totalSupply",
            "outputs": [
                {
                    "internalType": "uint256",
                    "name": "",
                    "type": "uint256"
                }
            ],
            "stateMutability": "view",
            "type": "function"
        },
        {
            "inputs": [
                {
                    "internalType": "address",
                    "name": "to",
                    "type": "address"
                },
                {
                    "internalType": "uint256",
                    "name": "amount",
                    "type": "uint256"
                }
            ],
            "name": "transfer",
            "outputs": [
                {
                    "internalType": "bool",
                    "name": "",
                    "type": "bool"
                }
            ],
            "stateMutability": "nonpayable",
            "type": "function"
        },
        {
            "inputs": [
                {
                    "internalType": "address",
                    "name": "from",
                    "type": "address"
                },
                {
                    "internalType": "address",
                    "name": "to",
                    "type": "address"
                },
                {
                    "internalType": "uint256",
                    "name": "amount",
                    "type": "uint256"
                }
            ],
            "name": "transferFrom",
            "outputs": [
                {
                    "internalType": "bool",
                    "name": "",
                    "type": "bool"
                }
            ],
            "stateMutability": "nonpayable",
            "type": "function"
        },
        {
            "inputs": [
                {
                    "internalType": "address",
                    "name": "newOwner",
                    "type": "address"
                }
            ],
            "name": "transferOwnership",
            "outputs": [],
            "stateMutability": "nonpayable",
            "type": "function"
        },
        {
            "inputs": [],
            "name": "unpause",
            "outputs": [],
            "stateMutability": "nonpayable",
            "type": "function"
        }
    ],
    "bytecode": "60806040523480156200001157600080fd5b50604051620013d7380380620013d783398101604081905262000034916200023b565b8151829082906200004d906003906020850190620000ea565b50805162000063906004906020840190620000ea565b50506005805460ff1916905550620000846200007e6200008c565b62000090565b5050620002f5565b3390565b600580546001600160a01b03838116610100818102610100600160a81b031985161790945560405193909204169182907f8be0079c531659141344cd1fd0a4f28419497f9722a3daafe3b4186f6b6457e090600090a35050565b828054620000f890620002a2565b90600052602060002090601f0160209004810192826200011c576000855562000167565b82601f106200013757805160ff191683800117855562000167565b8280016001018555821562000167579182015b82811115620001675782518255916020019190600101906200014a565b506200017592915062000179565b5090565b5b808211156200017557600081556001016200017a565b600082601f830112620001a1578081fd5b81516001600160401b0380821115620001be57620001be620002df565b6040516020601f8401601f1916820181018381118382101715620001e657620001e6620002df565b6040528382528584018101871015620001fd578485fd5b8492505b8383101562000220578583018101518284018201529182019162000201565b838311156200023157848185840101525b5095945050505050565b600080604083850312156200024e578182fd5b82516001600160401b038082111562000265578384fd5b620002738683870162000190565b9350602085015191508082111562000289578283fd5b50620002988582860162000190565b9150509250929050565b600281046001821680620002b757607f821691505b60208210811415620002d957634e487b7160e01b600052602260045260246000fd5b50919050565b634e487b7160e01b600052604160045260246000fd5b6110d280620003056000396000f3fe608060405234801561001057600080fd5b50600436106101375760003560e01c80635c975abb116100b857806395d89b411161007c57806395d89b411461024d5780639c8f9f2314610255578063a457c2d714610268578063a9059cbb1461027b578063dd62ed3e1461028e578063f2fde38b146102a157610137565b80635c975abb1461020d57806370a0823114610215578063715018a6146102285780638456cb59146102305780638da5cb5b1461023857610137565b806339509351116100ff57806339509351146101b75780633f4ba83a146101ca57806340c10f19146101d457806342966c68146101e757806351c6590a146101fa57610137565b806306fdde031461013c578063095ea7b31461015a57806318160ddd1461017a57806323b872dd1461018f578063313ce567146101a2575b600080fd5b6101446102b4565b6040516101519190610c16565b60405180910390f35b61016d610168366004610bb6565b610346565b6040516101519190610c0b565b610182610368565b6040516101519190610fc6565b61016d61019d366004610b7b565b61036e565b6101aa61039c565b6040516101519190610fcf565b61016d6101c5366004610bb6565b6103a1565b6101d26103cd565b005b6101d26101e2366004610bb6565b6103df565b6101d26101f5366004610bdf565b6103f5565b6101d2610208366004610bdf565b610402565b61016d610414565b610182610223366004610b28565b61041d565b6101d261043c565b6101d261044e565b61024061045e565b6040516101519190610bf7565b610144610472565b6101d2610263366004610bdf565b610481565b61016d610276366004610bb6565b610493565b61016d610289366004610bb6565b6104e4565b61018261029c366004610b49565b6104fc565b6101d26102af366004610b28565b610527565b6060600380546102c39061104b565b80601f01602080910402602001604051908101604052809291908181526020018280546102ef9061104b565b801561033c5780601f106103115761010080835404028352916020019161033c565b820191906000526020600020905b81548152906001019060200180831161031f57829003601f168201915b5050505050905090565b60008061035161055e565b905061035e818585610562565b5060019392505050565b60025490565b60008061037961055e565b9050610386858285610616565b610391858585610660565b506001949350505050565b601290565b6000806103ac61055e565b905061035e8185856103be85896104fc565b6103c89190610fdd565b610562565b6103d56106ae565b6103dd6106ed565b565b6103e76106ae565b6103f1828261073f565b5050565b6103ff3382610807565b50565b61040a6106ae565b6103ff308261073f565b60055460ff1690565b6001600160a01b0381166000908152602081905260409020545b919050565b6104446106ae565b6103dd60006108f9565b6104566106ae565b6103dd610953565b60055461010090046001600160a01b031690565b6060600480546102c39061104b565b6104896106ae565b6103ff3082610807565b60008061049e61055e565b905060006104ac82866104fc565b9050838110156104d75760405162461bcd60e51b81526004016104ce90610f4a565b60405180910390fd5b6103918286868403610562565b6000806104ef61055e565b905061035e818585610660565b6001600160a01b03918216600090815260016020908152604080832093909416825291909152205490565b61052f6106ae565b6001600160a01b0381166105555760405162461bcd60e51b81526004016104ce90610d1c565b6103ff816108f9565b3390565b6001600160a01b0383166105885760405162461bcd60e51b81526004016104ce90610f06565b6001600160a01b0382166105ae5760405162461bcd60e51b81526004016104ce90610d62565b6001600160a01b0380841660008181526001602090815260408083209487168084529490915290819020849055517f8c5be1e5ebec7d5bd14f71427d1e84f3dd0314c0f7b2291e5b200ac8c7c3b92590610609908590610fc6565b60405180910390a3505050565b600061062284846104fc565b9050600019811461065a578181101561064d5760405162461bcd60e51b81526004016104ce90610da4565b61065a8484848403610562565b50505050565b60006103e8610670836003611015565b61067a9190610ff5565b905060006106888284611034565b9050610695858583610991565b6106a7856106a161045e565b84610991565b5050505050565b6106b661055e565b6001600160a01b03166106c761045e565b6001600160a01b0316146103dd5760405162461bcd60e51b81526004016104ce90610e4b565b6106f5610ab5565b6005805460ff191690557f5db9ee0a495bf2e6ff9c91a7834c1ba4fdd244a5e8aa4e537bd38aeae4b073aa61072861055e565b6040516107359190610bf7565b60405180910390a1565b6001600160a01b0382166107655760405162461bcd60e51b81526004016104ce90610f8f565b61077160008383610ad9565b80600260008282546107839190610fdd565b90915550506001600160a01b038216600090815260208190526040812080548392906107b0908490610fdd565b90915550506040516001600160a01b038316906000907fddf252ad1be2c89b69c2b068fc378daa952ba7f163c4a11628f55a4df523b3ef906107f3908590610fc6565b60405180910390a36103f1600083836108f4565b6001600160a01b03821661082d5760405162461bcd60e51b81526004016104ce90610e80565b61083982600083610ad9565b6001600160a01b038216600090815260208190526040902054818110156108725760405162461bcd60e51b81526004016104ce90610cda565b6001600160a01b03831660009081526020819052604081208383039055600280548492906108a1908490611034565b90915550506040516000906001600160a01b038516907fddf252ad1be2c89b69c2b068fc378daa952ba7f163c4a11628f55a4df523b3ef906108e4908690610fc6565b60405180910390a36108f4836000845b505050565b600580546001600160a01b03838116610100818102610100600160a81b031985161790945560405193909204169182907f8be0079c531659141344cd1fd0a4f28419497f9722a3daafe3b4186f6b6457e090600090a35050565b61095b610aec565b6005805460ff191660011790557f62e78cea01bee320cd4e420270b5ea74000d11b0c9f74754ebdbfc544b05a25861072861055e565b6001600160a01b0383166109b75760405162461bcd60e51b81526004016104ce90610ec1565b6001600160a01b0382166109dd5760405162461bcd60e51b81526004016104ce90610c69565b6109e8838383610ad9565b6001600160a01b03831660009081526020819052604090205481811015610a215760405162461bcd60e51b81526004016104ce90610ddb565b6001600160a01b03808516600090815260208190526040808220858503905591851681529081208054849290610a58908490610fdd565b92505081905550826001600160a01b0316846001600160a01b03167fddf252ad1be2c89b69c2b068fc378daa952ba7f163c4a11628f55a4df523b3ef84604051610aa29190610fc6565b60405180910390a361065a8484846108f4565b610abd610414565b6103dd5760405162461bcd60e51b81526004016104ce90610cac565b610ae1610aec565b6108f48383836108f4565b610af4610414565b156103dd5760405162461bcd60e51b81526004016104ce90610e21565b80356001600160a01b038116811461043757600080fd5b600060208284031215610b39578081fd5b610b4282610b11565b9392505050565b60008060408385031215610b5b578081fd5b610b6483610b11565b9150610b7260208401610b11565b90509250929050565b600080600060608486031215610b8f578081fd5b610b9884610b11565b9250610ba660208501610b11565b9150604084013590509250925092565b60008060408385031215610bc8578182fd5b610bd183610b11565b946020939093013593505050565b600060208284031215610bf0578081fd5b5035919050565b6001600160a01b0391909116815260200190565b901515815260200190565b6000602080835283518082850152825b81811015610c4257858101830151858201604001528201610c26565b81811115610c535783604083870101525b50601f01601f1916929092016040019392505050565b60208082526023908201527f45524332303a207472616e7366657220746f20746865207a65726f206164647260408201526265737360e81b606082015260800190565b60208082526014908201527314185d5cd8589b194e881b9bdd081c185d5cd95960621b604082015260600190565b60208082526022908201527f45524332303a206275726e20616d6f756e7420657863656564732062616c616e604082015261636560f01b606082015260800190565b60208082526026908201527f4f776e61626c653a206e6577206f776e657220697320746865207a65726f206160408201526564647265737360d01b606082015260800190565b60208082526022908201527f45524332303a20617070726f766520746f20746865207a65726f206164647265604082015261737360f01b606082015260800190565b6020808252601d908201527f45524332303a20696e73756666696369656e7420616c6c6f77616e6365000000604082015260600190565b60208082526026908201527f45524332303a207472616e7366657220616d6f756e7420657863656564732062604082015265616c616e636560d01b606082015260800190565b60208082526010908201526f14185d5cd8589b194e881c185d5cd95960821b604082015260600190565b6020808252818101527f4f776e61626c653a2063616c6c6572206973206e6f7420746865206f776e6572604082015260600190565b60208082526021908201527f45524332303a206275726e2066726f6d20746865207a65726f206164647265736040820152607360f81b606082015260800190565b60208082526025908201527f45524332303a207472616e736665722066726f6d20746865207a65726f206164604082015264647265737360d81b606082015260800190565b60208082526024908201527f45524332303a20617070726f76652066726f6d20746865207a65726f206164646040820152637265737360e01b606082015260800190565b60208082526025908201527f45524332303a2064656372656173656420616c6c6f77616e63652062656c6f77604082015264207a65726f60d81b606082015260800190565b6020808252601f908201527f45524332303a206d696e7420746f20746865207a65726f206164647265737300604082015260600190565b90815260200190565b60ff91909116815260200190565b60008219821115610ff057610ff0611086565b500190565b60008261101057634e487b7160e01b81526012600452602481fd5b500490565b600081600019048311821515161561102f5761102f611086565b500290565b60008282101561104657611046611086565b500390565b60028104600182168061105f57607f821691505b6020821081141561108057634e487b7160e01b600052602260045260246000fd5b50919050565b634e487b7160e01b600052601160045260246000fdfea26469706673582212207cfda9f901474e5e6fda34c71e8b9448f04dce2359ab80940074da649a40e4d764736f6c63430008000033",
    "sourcePath": "c:/Users/guduhuanzhe/Desktop/dapp-lesson2-main/contracts/FT.sol",
    "compiler": {
        "name": "solc",
        "version": "0.8.0+commit.c7dfd78e"
    },
    "functionHashes": {
        "addLiquidity(uint256)": "51c6590a",
        "allowance(address,address)": "dd62ed3e",
        "approve(address,uint256)": "095ea7b3",
        "balanceOf(address)": "70a08231",
        "burn(uint256)": "42966c68",
        "decimals()": "313ce567",
        "decreaseAllowance(address,uint256)": "a457c2d7",
        "increaseAllowance(address,uint256)": "39509351",
        "mint(address,uint256)": "40c10f19",
        "name()": "06fdde03",
        "owner()": "8da5cb5b",
        "pause()": "8456cb59",
        "paused()": "5c975abb",
        "removeLiquidity(uint256)": "9c8f9f23",
        "renounceOwnership()": "715018a6",
        "symbol()": "95d89b41",
        "totalSupply()": "18160ddd",
        "transfer(address,uint256)": "a9059cbb",
        "transferFrom(address,address,uint256)": "23b872dd",
        "transferOwnership(address)": "f2fde38b",
        "unpause()": "3f4ba83a"
    },
    "gasEstimates": {
        "creation": {
            "codeDepositCost": "861200",
            "executionCost": "infinite",
            "totalCost": "infinite"
        },
        "external": {
            "addLiquidity(uint256)": "infinite",
            "allowance(address,address)": "infinite",
            "approve(address,uint256)": "22642",
            "balanceOf(address)": "infinite",
            "burn(uint256)": "infinite",
            "decimals()": "352",
            "decreaseAllowance(address,uint256)": "23711",
            "increaseAllowance(address,uint256)": "23696",
            "mint(address,uint256)": "infinite",
            "name()": "infinite",
            "owner()": "1192",
            "pause()": "infinite",
            "paused()": "1063",
            "removeLiquidity(uint256)": "infinite",
            "renounceOwnership()": "infinite",
            "symbol()": "infinite",
            "totalSupply()": "1096",
            "transfer(address,uint256)": "infinite",
            "transferFrom(address,address,uint256)": "infinite",
            "transferOwnership(address)": "23888",
            "unpause()": "infinite"
        },
        "internal": {
            "_beforeTokenTransfer(address,address,uint256)": "infinite",
            "_transfer(address,address,uint256)": "infinite",
            "checkSlip(uint256,uint256)": "infinite",
            "getLatestPrice()": "infinite"
        }
    }
}