{
  "_format": "hh-sol-artifact-1",
  "contractName": "ExchangeToken",
  "sourceName": "contracts/ExchangeToken.sol",
  "abi": [
    {
      "inputs": [
        {
          "internalType": "address",
          "name": "_tokenA",
          "type": "address"
        },
        {
          "internalType": "address",
          "name": "_tokenB",
          "type": "address"
        }
      ],
      "stateMutability": "nonpayable",
      "type": "constructor"
    },
    {
      "anonymous": false,
      "inputs": [
        {
          "indexed": true,
          "internalType": "address",
          "name": "owner",
          "type": "address"
        },
        {
          "indexed": true,
          "internalType": "address",
          "name": "spender",
          "type": "address"
        },
        {
          "indexed": false,
          "internalType": "uint256",
          "name": "value",
          "type": "uint256"
        }
      ],
      "name": "Approval",
      "type": "event"
    },
    {
      "anonymous": false,
      "inputs": [
        {
          "indexed": true,
          "internalType": "address",
          "name": "previousOwner",
          "type": "address"
        },
        {
          "indexed": true,
          "internalType": "address",
          "name": "newOwner",
          "type": "address"
        }
      ],
      "name": "OwnershipTransferred",
      "type": "event"
    },
    {
      "anonymous": false,
      "inputs": [
        {
          "indexed": false,
          "internalType": "address",
          "name": "account",
          "type": "address"
        }
      ],
      "name": "Paused",
      "type": "event"
    },
    {
      "anonymous": false,
      "inputs": [
        {
          "indexed": true,
          "internalType": "address",
          "name": "from",
          "type": "address"
        },
        {
          "indexed": true,
          "internalType": "address",
          "name": "to",
          "type": "address"
        },
        {
          "indexed": false,
          "internalType": "uint256",
          "name": "value",
          "type": "uint256"
        }
      ],
      "name": "Transfer",
      "type": "event"
    },
    {
      "anonymous": false,
      "inputs": [
        {
          "indexed": false,
          "internalType": "address",
          "name": "account",
          "type": "address"
        }
      ],
      "name": "Unpaused",
      "type": "event"
    },
    {
      "inputs": [
        {
          "internalType": "uint256",
          "name": "amountA",
          "type": "uint256"
        },
        {
          "internalType": "uint256",
          "name": "amountB",
          "type": "uint256"
        }
      ],
      "name": "addLiquidity",
      "outputs": [],
      "stateMutability": "nonpayable",
      "type": "function"
    },
    {
      "inputs": [
        {
          "internalType": "address",
          "name": "owner",
          "type": "address"
        },
        {
          "internalType": "address",
          "name": "spender",
          "type": "address"
        }
      ],
      "name": "allowance",
      "outputs": [
        {
          "internalType": "uint256",
          "name": "",
          "type": "uint256"
        }
      ],
      "stateMutability": "view",
      "type": "function"
    },
    {
      "inputs": [
        {
          "internalType": "address",
          "name": "spender",
          "type": "address"
        },
        {
          "internalType": "uint256",
          "name": "amount",
          "type": "uint256"
        }
      ],
      "name": "approve",
      "outputs": [
        {
          "internalType": "bool",
          "name": "",
          "type": "bool"
        }
      ],
      "stateMutability": "nonpayable",
      "type": "function"
    },
    {
      "inputs": [
        {
          "internalType": "address",
          "name": "account",
          "type": "address"
        }
      ],
      "name": "balanceOf",
      "outputs": [
        {
          "internalType": "uint256",
          "name": "",
          "type": "uint256"
        }
      ],
      "stateMutability": "view",
      "type": "function"
    },
    {
      "inputs": [
        {
          "internalType": "uint256",
          "name": "amount",
          "type": "uint256"
        }
      ],
      "name": "burn",
      "outputs": [],
      "stateMutability": "nonpayable",
      "type": "function"
    },
    {
      "inputs": [],
      "name": "decimals",
      "outputs": [
        {
          "internalType": "uint8",
          "name": "",
          "type": "uint8"
        }
      ],
      "stateMutability": "view",
      "type": "function"
    },
    {
      "inputs": [
        {
          "internalType": "address",
          "name": "spender",
          "type": "address"
        },
        {
          "internalType": "uint256",
          "name": "subtractedValue",
          "type": "uint256"
        }
      ],
      "name": "decreaseAllowance",
      "outputs": [
        {
          "internalType": "bool",
          "name": "",
          "type": "bool"
        }
      ],
      "stateMutability": "nonpayable",
      "type": "function"
    },
    {
      "inputs": [
        {
          "internalType": "uint256",
          "name": "amountB",
          "type": "uint256"
        }
      ],
      "name": "getTokenAAmount",
      "outputs": [
        {
          "internalType": "uint256",
          "name": "",
          "type": "uint256"
        }
      ],
      "stateMutability": "view",
      "type": "function"
    },
    {
      "inputs": [
        {
          "internalType": "uint256",
          "name": "amountA",
          "type": "uint256"
        }
      ],
      "name": "getTokenBAmount",
      "outputs": [
        {
          "internalType": "uint256",
          "name": "",
          "type": "uint256"
        }
      ],
      "stateMutability": "view",
      "type": "function"
    },
    {
      "inputs": [
        {
          "internalType": "address",
          "name": "spender",
          "type": "address"
        },
        {
          "internalType": "uint256",
          "name": "addedValue",
          "type": "uint256"
        }
      ],
      "name": "increaseAllowance",
      "outputs": [
        {
          "internalType": "bool",
          "name": "",
          "type": "bool"
        }
      ],
      "stateMutability": "nonpayable",
      "type": "function"
    },
    {
      "inputs": [
        {
          "internalType": "address",
          "name": "account",
          "type": "address"
        },
        {
          "internalType": "uint256",
          "name": "amount",
          "type": "uint256"
        }
      ],
      "name": "mint",
      "outputs": [],
      "stateMutability": "nonpayable",
      "type": "function"
    },
    {
      "inputs": [],
      "name": "name",
      "outputs": [
        {
          "internalType": "string",
          "name": "",
          "type": "string"
        }
      ],
      "stateMutability": "view",
      "type": "function"
    },
    {
      "inputs": [],
      "name": "owner",
      "outputs": [
        {
          "internalType": "address",
          "name": "",
          "type": "address"
        }
      ],
      "stateMutability": "view",
      "type": "function"
    },
    {
      "inputs": [],
      "name": "pause",
      "outputs": [],
      "stateMutability": "nonpayable",
      "type": "function"
    },
    {
      "inputs": [],
      "name": "paused",
      "outputs": [
        {
          "internalType": "bool",
          "name": "",
          "type": "bool"
        }
      ],
      "stateMutability": "view",
      "type": "function"
    },
    {
      "inputs": [
        {
          "internalType": "uint256",
          "name": "_amountA",
          "type": "uint256"
        }
      ],
      "name": "removeLiquidity",
      "outputs": [],
      "stateMutability": "nonpayable",
      "type": "function"
    },
    {
      "inputs": [],
      "name": "renounceOwnership",
      "outputs": [],
      "stateMutability": "nonpayable",
      "type": "function"
    },
    {
      "inputs": [],
      "name": "reserveA",
      "outputs": [
        {
          "internalType": "uint256",
          "name": "",
          "type": "uint256"
        }
      ],
      "stateMutability": "view",
      "type": "function"
    },
    {
      "inputs": [],
      "name": "reserveB",
      "outputs": [
        {
          "internalType": "uint256",
          "name": "",
          "type": "uint256"
        }
      ],
      "stateMutability": "view",
      "type": "function"
    },
    {
      "inputs": [],
      "name": "symbol",
      "outputs": [
        {
          "internalType": "string",
          "name": "",
          "type": "string"
        }
      ],
      "stateMutability": "view",
      "type": "function"
    },
    {
      "inputs": [],
      "name": "tokenA",
      "outputs": [
        {
          "internalType": "contract IERC20",
          "name": "",
          "type": "address"
        }
      ],
      "stateMutability": "view",
      "type": "function"
    },
    {
      "inputs": [
        {
          "internalType": "uint256",
          "name": "_minTokens",
          "type": "uint256"
        },
        {
          "internalType": "uint256",
          "name": "_amount",
          "type": "uint256"
        }
      ],
      "name": "tokenAToB",
      "outputs": [],
      "stateMutability": "nonpayable",
      "type": "function"
    },
    {
      "inputs": [],
      "name": "tokenB",
      "outputs": [
        {
          "internalType": "contract IERC20",
          "name": "",
          "type": "address"
        }
      ],
      "stateMutability": "view",
      "type": "function"
    },
    {
      "inputs": [
        {
          "internalType": "uint256",
          "name": "_minTokens",
          "type": "uint256"
        },
        {
          "internalType": "uint256",
          "name": "_amount",
          "type": "uint256"
        }
      ],
      "name": "tokenBToA",
      "outputs": [],
      "stateMutability": "nonpayable",
      "type": "function"
    },
    {
      "inputs": [],
      "name": "totalSupply",
      "outputs": [
        {
          "internalType": "uint256",
          "name": "",
          "type": "uint256"
        }
      ],
      "stateMutability": "view",
      "type": "function"
    },
    {
      "inputs": [
        {
          "internalType": "address",
          "name": "to",
          "type": "address"
        },
        {
          "internalType": "uint256",
          "name": "amount",
          "type": "uint256"
        }
      ],
      "name": "transfer",
      "outputs": [
        {
          "internalType": "bool",
          "name": "",
          "type": "bool"
        }
      ],
      "stateMutability": "nonpayable",
      "type": "function"
    },
    {
      "inputs": [
        {
          "internalType": "address",
          "name": "from",
          "type": "address"
        },
        {
          "internalType": "address",
          "name": "to",
          "type": "address"
        },
        {
          "internalType": "uint256",
          "name": "amount",
          "type": "uint256"
        }
      ],
      "name": "transferFrom",
      "outputs": [
        {
          "internalType": "bool",
          "name": "",
          "type": "bool"
        }
      ],
      "stateMutability": "nonpayable",
      "type": "function"
    },
    {
      "inputs": [
        {
          "internalType": "address",
          "name": "newOwner",
          "type": "address"
        }
      ],
      "name": "transferOwnership",
      "outputs": [],
      "stateMutability": "nonpayable",
      "type": "function"
    },
    {
      "inputs": [],
      "name": "unpause",
      "outputs": [],
      "stateMutability": "nonpayable",
      "type": "function"
    }
  ],
  "bytecode": "0x60806040523480156200001157600080fd5b5060405162001c2d38038062001c2d833981016040819052620000349162000155565b604051806040016040528060098152602001684c697175696469747960b81b815250604051806040016040528060018152602001601360fa1b8152508181816003908162000083919062000232565b50600462000092828262000232565b50506005805460ff1916905550620000aa33620000de565b5050600680546001600160a01b039384166001600160a01b03199182161790915560078054929093169116179055620002fe565b600580546001600160a01b03838116610100818102610100600160a81b031985161790945560405193909204169182907f8be0079c531659141344cd1fd0a4f28419497f9722a3daafe3b4186f6b6457e090600090a35050565b80516001600160a01b03811681146200015057600080fd5b919050565b600080604083850312156200016957600080fd5b620001748362000138565b9150620001846020840162000138565b90509250929050565b634e487b7160e01b600052604160045260246000fd5b600181811c90821680620001b857607f821691505b602082108103620001d957634e487b7160e01b600052602260045260246000fd5b50919050565b601f8211156200022d57600081815260208120601f850160051c81016020861015620002085750805b601f850160051c820191505b81811015620002295782815560010162000214565b5050505b505050565b81516001600160401b038111156200024e576200024e6200018d565b62000266816200025f8454620001a3565b84620001df565b602080601f8311600181146200029e5760008415620002855750858301515b600019600386901b1c1916600185901b17855562000229565b600085815260208120601f198616915b82811015620002cf57888601518255948401946001909101908401620002ae565b5085821015620002ee5787850151600019600388901b60f8161c191681555b5050505050600190811b01905550565b61191f806200030e6000396000f3fe608060405234801561001057600080fd5b50600436106101cf5760003560e01c80635c975abb116101045780639c8f9f23116100a2578063dc5fa6c511610071578063dc5fa6c5146103be578063dd62ed3e146103c7578063df886fed146103da578063f2fde38b146103ed57600080fd5b80639c8f9f23146103725780639cd441da14610385578063a457c2d714610398578063a9059cbb146103ab57600080fd5b8063715018a6116100de578063715018a6146103445780638456cb591461034c5780638da5cb5b1461035457806395d89b411461036a57600080fd5b80635c975abb146102fd5780635f64b55b1461030857806370a082311461031b57600080fd5b806323b872dd116101715780633e3519e31161014b5780633e3519e3146102bc5780633f4ba83a146102cf57806340c10f19146102d757806342966c68146102ea57600080fd5b806323b872dd14610287578063313ce5671461029a57806339509351146102a957600080fd5b8063156c406d116101ad578063156c406d1461024057806318160ddd1461026157806319e36f3b146102695780631cefbead1461027257600080fd5b806306fdde03146101d4578063095ea7b3146101f25780630fc63d1014610215575b600080fd5b6101dc610400565b6040516101e9919061169b565b60405180910390f35b610205610200366004611705565b610492565b60405190151581526020016101e9565b600654610228906001600160a01b031681565b6040516001600160a01b0390911681526020016101e9565b61025361024e36600461172f565b6104ac565b6040519081526020016101e9565b600254610253565b61025360095481565b610285610280366004611748565b6104c5565b005b61020561029536600461176a565b610659565b604051601281526020016101e9565b6102056102b7366004611705565b61067d565b6102536102ca36600461172f565b61069f565b6102856106b1565b6102856102e5366004611705565b6106c3565b6102856102f836600461172f565b6106d9565b60055460ff16610205565b600754610228906001600160a01b031681565b6102536103293660046117a6565b6001600160a01b031660009081526020819052604090205490565b6102856106e6565b6102856106f8565b60055461010090046001600160a01b0316610228565b6101dc610708565b61028561038036600461172f565b610717565b610285610393366004611748565b6108d6565b6102056103a6366004611705565b610c26565b6102056103b9366004611705565b610ca1565b61025360085481565b6102536103d53660046117c1565b610caf565b6102856103e8366004611748565b610cda565b6102856103fb3660046117a6565b610e5f565b60606003805461040f906117f4565b80601f016020809104026020016040519081016040528092919081815260200182805461043b906117f4565b80156104885780601f1061045d57610100808354040283529160200191610488565b820191906000526020600020905b81548152906001019060200180831161046b57829003601f168201915b5050505050905090565b6000336104a0818585610ed5565b60019150505b92915050565b6000806104be83600854600954610ff9565b9392505050565b60006104d08261069f565b90506103e86104e1826103e5611844565b6104eb919061185b565b9050828110156105385760405162461bcd60e51b81526020600482015260136024820152726c657373207468616e206d696e746f6b656e7360681b60448201526064015b60405180910390fd5b806008600082825461054a919061187d565b90915550506007546040516323b872dd60e01b81526001600160a01b03909116906323b872dd9061058390339030908790600401611890565b6020604051808303816000875af11580156105a2573d6000803e3d6000fd5b505050506040513d601f19601f820116820180604052508101906105c691906118b4565b5060065460405163a9059cbb60e01b8152336004820152602481018390526001600160a01b039091169063a9059cbb906044016020604051808303816000875af1158015610618573d6000803e3d6000fd5b505050506040513d601f19601f8201168201806040525081019061063c91906118b4565b50816009600082825461064f91906118d6565b9091555050505050565b600033610667858285611023565b61067285858561109d565b506001949350505050565b6000336104a08185856106908383610caf565b61069a91906118d6565b610ed5565b6000806104be83600954600854610ff9565b6106b9611276565b6106c16112d6565b565b6106cb611276565b6106d58282611328565b5050565b6106e33382611413565b50565b6106ee611276565b6106c1600061156d565b610700611276565b6106c16115c7565b60606004805461040f906117f4565b6000811180156107505750600254600854336000908152602081905260409020546107429190611844565b61074c919061185b565b8111155b61078d5760405162461bcd60e51b815260206004820152600e60248201526d1a5b9d985b1a5908185b5bdd5b9d60921b604482015260640161052f565b6000600854600954836107a09190611844565b6107aa919061185b565b90506107b63383611413565b81600860008282546107c8919061187d565b9250508190555080600960008282546107e1919061187d565b909155505060065460405163a9059cbb60e01b8152336004820152602481018490526001600160a01b039091169063a9059cbb906044016020604051808303816000875af1158015610837573d6000803e3d6000fd5b505050506040513d601f19601f8201168201806040525081019061085b91906118b4565b5060075460405163a9059cbb60e01b8152336004820152602481018390526001600160a01b039091169063a9059cbb906044016020604051808303816000875af11580156108ad573d6000803e3d6000fd5b505050506040513d601f19601f820116820180604052508101906108d191906118b4565b505050565b81158015906108e457508015155b61091d5760405162461bcd60e51b815260206004820152600a6024820152691a5b9d9a5b190818591960b21b604482015260640161052f565b600854600003610a59576006546040516323b872dd60e01b81526001600160a01b03909116906323b872dd9061095b90339030908790600401611890565b6020604051808303816000875af115801561097a573d6000803e3d6000fd5b505050506040513d601f19601f8201168201806040525081019061099e91906118b4565b506007546040516323b872dd60e01b81526001600160a01b03909116906323b872dd906109d390339030908690600401611890565b6020604051808303816000875af11580156109f2573d6000803e3d6000fd5b505050506040513d601f19601f82011682018060405250810190610a1691906118b4565b5081610a223382611328565b8260086000828254610a3491906118d6565b925050819055508160096000828254610a4d91906118d6565b909155506106d5915050565b600060095460085483610a6c9190611844565b610a76919061185b565b9050610a8360018261187d565b831015610ad25760405162461bcd60e51b815260206004820152601960248201527f696e73756666696369656e7420746f6b656e20616d6f756e7400000000000000604482015260640161052f565b6006546040516323b872dd60e01b81526001600160a01b03909116906323b872dd90610b0690339030908690600401611890565b6020604051808303816000875af1158015610b25573d6000803e3d6000fd5b505050506040513d601f19601f82011682018060405250810190610b4991906118b4565b506007546040516323b872dd60e01b81526001600160a01b03909116906323b872dd90610b7e90339030908790600401611890565b6020604051808303816000875af1158015610b9d573d6000803e3d6000fd5b505050506040513d601f19601f82011682018060405250810190610bc191906118b4565b506000600854610bd060025490565b610bda9086611844565b610be4919061185b565b9050610bf03382611328565b8160086000828254610c0291906118d6565b925050819055508260096000828254610c1b91906118d6565b909155505050505050565b60003381610c348286610caf565b905083811015610c945760405162461bcd60e51b815260206004820152602560248201527f45524332303a2064656372656173656420616c6c6f77616e63652062656c6f77604482015264207a65726f60d81b606482015260840161052f565b6106728286868403610ed5565b6000336104a081858561109d565b6001600160a01b03918216600090815260016020908152604080832093909416825291909152205490565b6000610ce5826104ac565b90506103e8610cf6826103e5611844565b610d00919061185b565b905082811015610d485760405162461bcd60e51b81526020600482015260136024820152726c657373207468616e206d696e746f6b656e7360681b604482015260640161052f565b8060096000828254610d5a919061187d565b90915550506006546040516323b872dd60e01b81526001600160a01b03909116906323b872dd90610d9390339030908790600401611890565b6020604051808303816000875af1158015610db2573d6000803e3d6000fd5b505050506040513d601f19601f82011682018060405250810190610dd691906118b4565b5060075460405163a9059cbb60e01b8152336004820152602481018390526001600160a01b039091169063a9059cbb906044016020604051808303816000875af1158015610e28573d6000803e3d6000fd5b505050506040513d601f19601f82011682018060405250810190610e4c91906118b4565b50816008600082825461064f91906118d6565b610e67611276565b6001600160a01b038116610ecc5760405162461bcd60e51b815260206004820152602660248201527f4f776e61626c653a206e6577206f776e657220697320746865207a65726f206160448201526564647265737360d01b606482015260840161052f565b6106e38161156d565b6001600160a01b038316610f375760405162461bcd60e51b8152602060048201526024808201527f45524332303a20617070726f76652066726f6d20746865207a65726f206164646044820152637265737360e01b606482015260840161052f565b6001600160a01b038216610f985760405162461bcd60e51b815260206004820152602260248201527f45524332303a20617070726f766520746f20746865207a65726f206164647265604482015261737360f01b606482015260840161052f565b6001600160a01b0383811660008181526001602090815260408083209487168084529482529182902085905590518481527f8c5be1e5ebec7d5bd14f71427d1e84f3dd0314c0f7b2291e5b200ac8c7c3b925910160405180910390a3505050565b60008061100685856118d6565b6110108685611844565b61101a919061185b565b95945050505050565b600061102f8484610caf565b90506000198114611097578181101561108a5760405162461bcd60e51b815260206004820152601d60248201527f45524332303a20696e73756666696369656e7420616c6c6f77616e6365000000604482015260640161052f565b6110978484848403610ed5565b50505050565b6001600160a01b0383166111015760405162461bcd60e51b815260206004820152602560248201527f45524332303a207472616e736665722066726f6d20746865207a65726f206164604482015264647265737360d81b606482015260840161052f565b6001600160a01b0382166111635760405162461bcd60e51b815260206004820152602360248201527f45524332303a207472616e7366657220746f20746865207a65726f206164647260448201526265737360e81b606482015260840161052f565b61116e838383611604565b6001600160a01b038316600090815260208190526040902054818110156111e65760405162461bcd60e51b815260206004820152602660248201527f45524332303a207472616e7366657220616d6f756e7420657863656564732062604482015265616c616e636560d01b606482015260840161052f565b6001600160a01b0380851660009081526020819052604080822085850390559185168152908120805484929061121d9084906118d6565b92505081905550826001600160a01b0316846001600160a01b03167fddf252ad1be2c89b69c2b068fc378daa952ba7f163c4a11628f55a4df523b3ef8460405161126991815260200190565b60405180910390a3611097565b6005546001600160a01b036101009091041633146106c15760405162461bcd60e51b815260206004820181905260248201527f4f776e61626c653a2063616c6c6572206973206e6f7420746865206f776e6572604482015260640161052f565b6112de61160c565b6005805460ff191690557f5db9ee0a495bf2e6ff9c91a7834c1ba4fdd244a5e8aa4e537bd38aeae4b073aa335b6040516001600160a01b03909116815260200160405180910390a1565b6001600160a01b03821661137e5760405162461bcd60e51b815260206004820152601f60248201527f45524332303a206d696e7420746f20746865207a65726f206164647265737300604482015260640161052f565b61138a60008383611604565b806002600082825461139c91906118d6565b90915550506001600160a01b038216600090815260208190526040812080548392906113c99084906118d6565b90915550506040518181526001600160a01b038316906000907fddf252ad1be2c89b69c2b068fc378daa952ba7f163c4a11628f55a4df523b3ef9060200160405180910390a35050565b6001600160a01b0382166114735760405162461bcd60e51b815260206004820152602160248201527f45524332303a206275726e2066726f6d20746865207a65726f206164647265736044820152607360f81b606482015260840161052f565b61147f82600083611604565b6001600160a01b038216600090815260208190526040902054818110156114f35760405162461bcd60e51b815260206004820152602260248201527f45524332303a206275726e20616d6f756e7420657863656564732062616c616e604482015261636560f01b606482015260840161052f565b6001600160a01b038316600090815260208190526040812083830390556002805484929061152290849061187d565b90915550506040518281526000906001600160a01b038516907fddf252ad1be2c89b69c2b068fc378daa952ba7f163c4a11628f55a4df523b3ef9060200160405180910390a3505050565b600580546001600160a01b03838116610100818102610100600160a81b031985161790945560405193909204169182907f8be0079c531659141344cd1fd0a4f28419497f9722a3daafe3b4186f6b6457e090600090a35050565b6115cf611655565b6005805460ff191660011790557f62e78cea01bee320cd4e420270b5ea74000d11b0c9f74754ebdbfc544b05a25861130b3390565b6108d1611655565b60055460ff166106c15760405162461bcd60e51b815260206004820152601460248201527314185d5cd8589b194e881b9bdd081c185d5cd95960621b604482015260640161052f565b60055460ff16156106c15760405162461bcd60e51b815260206004820152601060248201526f14185d5cd8589b194e881c185d5cd95960821b604482015260640161052f565b600060208083528351808285015260005b818110156116c8578581018301518582016040015282016116ac565b506000604082860101526040601f19601f8301168501019250505092915050565b80356001600160a01b038116811461170057600080fd5b919050565b6000806040838503121561171857600080fd5b611721836116e9565b946020939093013593505050565b60006020828403121561174157600080fd5b5035919050565b6000806040838503121561175b57600080fd5b50508035926020909101359150565b60008060006060848603121561177f57600080fd5b611788846116e9565b9250611796602085016116e9565b9150604084013590509250925092565b6000602082840312156117b857600080fd5b6104be826116e9565b600080604083850312156117d457600080fd5b6117dd836116e9565b91506117eb602084016116e9565b90509250929050565b600181811c9082168061180857607f821691505b60208210810361182857634e487b7160e01b600052602260045260246000fd5b50919050565b634e487b7160e01b600052601160045260246000fd5b80820281158282048414176104a6576104a661182e565b60008261187857634e487b7160e01b600052601260045260246000fd5b500490565b818103818111156104a6576104a661182e565b6001600160a01b039384168152919092166020820152604081019190915260600190565b6000602082840312156118c657600080fd5b815180151581146104be57600080fd5b808201808211156104a6576104a661182e56fea26469706673582212206b509f5fa17b511dda901b8804a74db0506d62a0cc968c713e270aa0dbd662d264736f6c63430008110033",
  "linkReferences": {},
  "deployedLinkReferences": {}
}