{
	"contracts/Swap.sol": {
		"Swap": {
			"abi": [
				{
					"inputs": [
						{
							"internalType": "string",
							"name": "_name",
							"type": "string"
						},
						{
							"internalType": "string",
							"name": "_symbol",
							"type": "string"
						},
						{
							"internalType": "uint8",
							"name": "_decimals",
							"type": "uint8"
						}
					],
					"stateMutability": "nonpayable",
					"type": "constructor"
				},
				{
					"anonymous": false,
					"inputs": [
						{
							"indexed": true,
							"internalType": "address",
							"name": "previousOwner",
							"type": "address"
						},
						{
							"indexed": true,
							"internalType": "address",
							"name": "newOwner",
							"type": "address"
						}
					],
					"name": "OwnershipTransferred",
					"type": "event"
				},
				{
					"anonymous": false,
					"inputs": [
						{
							"indexed": true,
							"internalType": "address",
							"name": "from",
							"type": "address"
						},
						{
							"indexed": true,
							"internalType": "address",
							"name": "to",
							"type": "address"
						},
						{
							"indexed": false,
							"internalType": "uint256",
							"name": "value",
							"type": "uint256"
						}
					],
					"name": "Transfer",
					"type": "event"
				},
				{
					"inputs": [
						{
							"internalType": "address",
							"name": "",
							"type": "address"
						}
					],
					"name": "balanceOf",
					"outputs": [
						{
							"internalType": "uint256",
							"name": "",
							"type": "uint256"
						}
					],
					"stateMutability": "view",
					"type": "function"
				},
				{
					"inputs": [
						{
							"internalType": "address",
							"name": "account",
							"type": "address"
						},
						{
							"internalType": "uint256",
							"name": "amount",
							"type": "uint256"
						}
					],
					"name": "burn",
					"outputs": [],
					"stateMutability": "nonpayable",
					"type": "function"
				},
				{
					"inputs": [],
					"name": "decimals",
					"outputs": [
						{
							"internalType": "uint8",
							"name": "",
							"type": "uint8"
						}
					],
					"stateMutability": "view",
					"type": "function"
				},
				{
					"inputs": [],
					"name": "fee",
					"outputs": [
						{
							"internalType": "uint256",
							"name": "",
							"type": "uint256"
						}
					],
					"stateMutability": "view",
					"type": "function"
				},
				{
					"inputs": [
						{
							"internalType": "address",
							"name": "account",
							"type": "address"
						},
						{
							"internalType": "uint256",
							"name": "amount",
							"type": "uint256"
						}
					],
					"name": "mint",
					"outputs": [],
					"stateMutability": "nonpayable",
					"type": "function"
				},
				{
					"inputs": [],
					"name": "name",
					"outputs": [
						{
							"internalType": "string",
							"name": "",
							"type": "string"
						}
					],
					"stateMutability": "view",
					"type": "function"
				},
				{
					"inputs": [],
					"name": "owner",
					"outputs": [
						{
							"internalType": "address",
							"name": "",
							"type": "address"
						}
					],
					"stateMutability": "view",
					"type": "function"
				},
				{
					"inputs": [],
					"name": "renounceOwnership",
					"outputs": [],
					"stateMutability": "nonpayable",
					"type": "function"
				},
				{
					"inputs": [],
					"name": "slippage",
					"outputs": [
						{
							"internalType": "uint256",
							"name": "",
							"type": "uint256"
						}
					],
					"stateMutability": "view",
					"type": "function"
				},
				{
					"inputs": [],
					"name": "symbol",
					"outputs": [
						{
							"internalType": "string",
							"name": "",
							"type": "string"
						}
					],
					"stateMutability": "view",
					"type": "function"
				},
				{
					"inputs": [
						{
							"internalType": "address",
							"name": "to",
							"type": "address"
						},
						{
							"internalType": "uint256",
							"name": "value",
							"type": "uint256"
						}
					],
					"name": "transfer",
					"outputs": [],
					"stateMutability": "nonpayable",
					"type": "function"
				},
				{
					"inputs": [
						{
							"internalType": "address",
							"name": "newOwner",
							"type": "address"
						}
					],
					"name": "transferOwnership",
					"outputs": [],
					"stateMutability": "nonpayable",
					"type": "function"
				}
			],
			"devdoc": {
				"kind": "dev",
				"methods": {
					"owner()": {
						"details": "Returns the address of the current owner."
					},
					"renounceOwnership()": {
						"details": "Leaves the contract without owner. It will not be possible to call `onlyOwner` functions anymore. Can only be called by the current owner. NOTE: Renouncing ownership will leave the contract without an owner, thereby removing any functionality that is only available to the owner."
					},
					"transferOwnership(address)": {
						"details": "Transfers ownership of the contract to a new account (`newOwner`). Can only be called by the current owner."
					}
				},
				"version": 1
			},
			"evm": {
				"assembly": "    /* \"contracts/Swap.sol\":249:1962  contract Swap is Ownable {... */\n  mstore(0x40, 0x80)\n    /* \"contracts/Swap.sol\":637:638  3 */\n  0x03\n    /* \"contracts/Swap.sol\":616:638  uint256 public fee = 3 */\n  0x05\n  sstore\n    /* \"contracts/Swap.sol\":706:875  constructor(string memory _name, string memory _symbol, uint8 _decimals) public {... */\n  callvalue\n  dup1\n  iszero\n  tag_1\n  jumpi\n  0x00\n  dup1\n  revert\ntag_1:\n  pop\n  mload(0x40)\n  sub(codesize, bytecodeSize)\n  dup1\n  bytecodeSize\n  dup4\n  codecopy\n  dup2\n  dup2\n  add\n  0x40\n  mstore\n  dup2\n  add\n  swap1\n  tag_2\n  swap2\n  swap1\n  tag_3\n  jump\t// in\ntag_2:\n    /* \"@openzeppelin/contracts/access/Ownable.sol\":936:968  _transferOwnership(_msgSender()) */\n  tag_7\n    /* \"@openzeppelin/contracts/access/Ownable.sol\":955:967  _msgSender() */\n  tag_8\n    /* \"@openzeppelin/contracts/access/Ownable.sol\":955:965  _msgSender */\n  shl(0x20, tag_9)\n    /* \"@openzeppelin/contracts/access/Ownable.sol\":955:967  _msgSender() */\n  0x20\n  shr\n  jump\t// in\ntag_8:\n    /* \"@openzeppelin/contracts/access/Ownable.sol\":936:954  _transferOwnership */\n  shl(0x20, tag_10)\n    /* \"@openzeppelin/contracts/access/Ownable.sol\":936:968  _transferOwnership(_msgSender()) */\n  0x20\n  shr\n  jump\t// in\ntag_7:\n    /* \"contracts/Swap.sol\":804:809  _name */\n  dup3\n    /* \"contracts/Swap.sol\":797:801  name */\n  0x01\n    /* \"contracts/Swap.sol\":797:809  name = _name */\n  swap1\n  dup2\n  tag_12\n  swap2\n  swap1\n  tag_13\n  jump\t// in\ntag_12:\n  pop\n    /* \"contracts/Swap.sol\":829:836  _symbol */\n  dup2\n    /* \"contracts/Swap.sol\":820:826  symbol */\n  0x02\n    /* \"contracts/Swap.sol\":820:836  symbol = _symbol */\n  swap1\n  dup2\n  tag_14\n  swap2\n  swap1\n  tag_13\n  jump\t// in\ntag_14:\n  pop\n    /* \"contracts/Swap.sol\":858:867  _decimals */\n  dup1\n    /* \"contracts/Swap.sol\":847:855  decimals */\n  0x03\n  0x00\n    /* \"contracts/Swap.sol\":847:867  decimals = _decimals */\n  0x0100\n  exp\n  dup2\n  sload\n  dup2\n  0xff\n  mul\n  not\n  and\n  swap1\n  dup4\n  0xff\n  and\n  mul\n  or\n  swap1\n  sstore\n  pop\n    /* \"contracts/Swap.sol\":706:875  constructor(string memory _name, string memory _symbol, uint8 _decimals) public {... */\n  pop\n  pop\n  pop\n    /* \"contracts/Swap.sol\":249:1962  contract Swap is Ownable {... */\n  jump(tag_15)\n    /* \"@openzeppelin/contracts/utils/Context.sol\":640:736  function _msgSender() internal view virtual returns (address) {... */\ntag_9:\n    /* \"@openzeppelin/contracts/utils/Context.sol\":693:700  address */\n  0x00\n    /* \"@openzeppelin/contracts/utils/Context.sol\":719:729  msg.sender */\n  caller\n    /* \"@openzeppelin/contracts/utils/Context.sol\":712:729  return msg.sender */\n  swap1\n  pop\n    /* \"@openzeppelin/contracts/utils/Context.sol\":640:736  function _msgSender() internal view virtual returns (address) {... */\n  swap1\n  jump\t// out\n    /* \"@openzeppelin/contracts/access/Ownable.sol\":2433:2620  function _transferOwnership(address newOwner) internal virtual {... */\ntag_10:\n    /* \"@openzeppelin/contracts/access/Ownable.sol\":2506:2522  address oldOwner */\n  0x00\n    /* \"@openzeppelin/contracts/access/Ownable.sol\":2525:2531  _owner */\n  dup1\n  0x00\n  swap1\n  sload\n  swap1\n  0x0100\n  exp\n  swap1\n  div\n  0xffffffffffffffffffffffffffffffffffffffff\n  and\n    /* \"@openzeppelin/contracts/access/Ownable.sol\":2506:2531  address oldOwner = _owner */\n  swap1\n  pop\n    /* \"@openzeppelin/contracts/access/Ownable.sol\":2550:2558  newOwner */\n  dup2\n    /* \"@openzeppelin/contracts/access/Ownable.sol\":2541:2547  _owner */\n  0x00\n  dup1\n    /* \"@openzeppelin/contracts/access/Ownable.sol\":2541:2558  _owner = newOwner */\n  0x0100\n  exp\n  dup2\n  sload\n  dup2\n  0xffffffffffffffffffffffffffffffffffffffff\n  mul\n  not\n  and\n  swap1\n  dup4\n  0xffffffffffffffffffffffffffffffffffffffff\n  and\n  mul\n  or\n  swap1\n  sstore\n  pop\n    /* \"@openzeppelin/contracts/access/Ownable.sol\":2604:2612  newOwner */\n  dup2\n    /* \"@openzeppelin/contracts/access/Ownable.sol\":2573:2613  OwnershipTransferred(oldOwner, newOwner) */\n  0xffffffffffffffffffffffffffffffffffffffff\n  and\n    /* \"@openzeppelin/contracts/access/Ownable.sol\":2594:2602  oldOwner */\n  dup2\n    /* \"@openzeppelin/contracts/access/Ownable.sol\":2573:2613  OwnershipTransferred(oldOwner, newOwner) */\n  0xffffffffffffffffffffffffffffffffffffffff\n  and\n  0x8be0079c531659141344cd1fd0a4f28419497f9722a3daafe3b4186f6b6457e0\n  mload(0x40)\n  mload(0x40)\n  dup1\n  swap2\n  sub\n  swap1\n  log3\n    /* \"@openzeppelin/contracts/access/Ownable.sol\":2496:2620  {... */\n  pop\n    /* \"@openzeppelin/contracts/access/Ownable.sol\":2433:2620  function _transferOwnership(address newOwner) internal virtual {... */\n  pop\n  jump\t// out\n    /* \"#utility.yul\":7:82   */\ntag_18:\n    /* \"#utility.yul\":40:46   */\n  0x00\n    /* \"#utility.yul\":73:75   */\n  0x40\n    /* \"#utility.yul\":67:76   */\n  mload\n    /* \"#utility.yul\":57:76   */\n  swap1\n  pop\n    /* \"#utility.yul\":7:82   */\n  swap1\n  jump\t// out\n    /* \"#utility.yul\":88:205   */\ntag_19:\n    /* \"#utility.yul\":197:198   */\n  0x00\n    /* \"#utility.yul\":194:195   */\n  dup1\n    /* \"#utility.yul\":187:199   */\n  revert\n    /* \"#utility.yul\":211:328   */\ntag_20:\n    /* \"#utility.yul\":320:321   */\n  0x00\n    /* \"#utility.yul\":317:318   */\n  dup1\n    /* \"#utility.yul\":310:322   */\n  revert\n    /* \"#utility.yul\":334:451   */\ntag_21:\n    /* \"#utility.yul\":443:444   */\n  0x00\n    /* \"#utility.yul\":440:441   */\n  dup1\n    /* \"#utility.yul\":433:445   */\n  revert\n    /* \"#utility.yul\":457:574   */\ntag_22:\n    /* \"#utility.yul\":566:567   */\n  0x00\n    /* \"#utility.yul\":563:564   */\n  dup1\n    /* \"#utility.yul\":556:568   */\n  revert\n    /* \"#utility.yul\":580:682   */\ntag_23:\n    /* \"#utility.yul\":621:627   */\n  0x00\n    /* \"#utility.yul\":672:674   */\n  0x1f\n    /* \"#utility.yul\":668:675   */\n  not\n    /* \"#utility.yul\":663:665   */\n  0x1f\n    /* \"#utility.yul\":656:661   */\n  dup4\n    /* \"#utility.yul\":652:666   */\n  add\n    /* \"#utility.yul\":648:676   */\n  and\n    /* \"#utility.yul\":638:676   */\n  swap1\n  pop\n    /* \"#utility.yul\":580:682   */\n  swap2\n  swap1\n  pop\n  jump\t// out\n    /* \"#utility.yul\":688:868   */\ntag_24:\n    /* \"#utility.yul\":736:813   */\n  0x4e487b7100000000000000000000000000000000000000000000000000000000\n    /* \"#utility.yul\":733:734   */\n  0x00\n    /* \"#utility.yul\":726:814   */\n  mstore\n    /* \"#utility.yul\":833:837   */\n  0x41\n    /* \"#utility.yul\":830:831   */\n  0x04\n    /* \"#utility.yul\":823:838   */\n  mstore\n    /* \"#utility.yul\":857:861   */\n  0x24\n    /* \"#utility.yul\":854:855   */\n  0x00\n    /* \"#utility.yul\":847:862   */\n  revert\n    /* \"#utility.yul\":874:1155   */\ntag_25:\n    /* \"#utility.yul\":957:984   */\n  tag_62\n    /* \"#utility.yul\":979:983   */\n  dup3\n    /* \"#utility.yul\":957:984   */\n  tag_23\n  jump\t// in\ntag_62:\n    /* \"#utility.yul\":949:955   */\n  dup2\n    /* \"#utility.yul\":945:985   */\n  add\n    /* \"#utility.yul\":1087:1093   */\n  dup2\n    /* \"#utility.yul\":1075:1085   */\n  dup2\n    /* \"#utility.yul\":1072:1094   */\n  lt\n    /* \"#utility.yul\":1051:1069   */\n  0xffffffffffffffff\n    /* \"#utility.yul\":1039:1049   */\n  dup3\n    /* \"#utility.yul\":1036:1070   */\n  gt\n    /* \"#utility.yul\":1033:1095   */\n  or\n    /* \"#utility.yul\":1030:1118   */\n  iszero\n  tag_63\n  jumpi\n    /* \"#utility.yul\":1098:1116   */\n  tag_64\n  tag_24\n  jump\t// in\ntag_64:\n    /* \"#utility.yul\":1030:1118   */\ntag_63:\n    /* \"#utility.yul\":1138:1148   */\n  dup1\n    /* \"#utility.yul\":1134:1136   */\n  0x40\n    /* \"#utility.yul\":1127:1149   */\n  mstore\n    /* \"#utility.yul\":917:1155   */\n  pop\n    /* \"#utility.yul\":874:1155   */\n  pop\n  pop\n  jump\t// out\n    /* \"#utility.yul\":1161:1290   */\ntag_26:\n    /* \"#utility.yul\":1195:1201   */\n  0x00\n    /* \"#utility.yul\":1222:1242   */\n  tag_66\n  tag_18\n  jump\t// in\ntag_66:\n    /* \"#utility.yul\":1212:1242   */\n  swap1\n  pop\n    /* \"#utility.yul\":1251:1284   */\n  tag_67\n    /* \"#utility.yul\":1279:1283   */\n  dup3\n    /* \"#utility.yul\":1271:1277   */\n  dup3\n    /* \"#utility.yul\":1251:1284   */\n  tag_25\n  jump\t// in\ntag_67:\n    /* \"#utility.yul\":1161:1290   */\n  swap2\n  swap1\n  pop\n  jump\t// out\n    /* \"#utility.yul\":1296:1604   */\ntag_27:\n    /* \"#utility.yul\":1358:1362   */\n  0x00\n    /* \"#utility.yul\":1448:1466   */\n  0xffffffffffffffff\n    /* \"#utility.yul\":1440:1446   */\n  dup3\n    /* \"#utility.yul\":1437:1467   */\n  gt\n    /* \"#utility.yul\":1434:1490   */\n  iszero\n  tag_69\n  jumpi\n    /* \"#utility.yul\":1470:1488   */\n  tag_70\n  tag_24\n  jump\t// in\ntag_70:\n    /* \"#utility.yul\":1434:1490   */\ntag_69:\n    /* \"#utility.yul\":1508:1537   */\n  tag_71\n    /* \"#utility.yul\":1530:1536   */\n  dup3\n    /* \"#utility.yul\":1508:1537   */\n  tag_23\n  jump\t// in\ntag_71:\n    /* \"#utility.yul\":1500:1537   */\n  swap1\n  pop\n    /* \"#utility.yul\":1592:1596   */\n  0x20\n    /* \"#utility.yul\":1586:1590   */\n  dup2\n    /* \"#utility.yul\":1582:1597   */\n  add\n    /* \"#utility.yul\":1574:1597   */\n  swap1\n  pop\n    /* \"#utility.yul\":1296:1604   */\n  swap2\n  swap1\n  pop\n  jump\t// out\n    /* \"#utility.yul\":1610:1856   */\ntag_28:\n    /* \"#utility.yul\":1691:1692   */\n  0x00\n    /* \"#utility.yul\":1701:1814   */\ntag_73:\n    /* \"#utility.yul\":1715:1721   */\n  dup4\n    /* \"#utility.yul\":1712:1713   */\n  dup2\n    /* \"#utility.yul\":1709:1722   */\n  lt\n    /* \"#utility.yul\":1701:1814   */\n  iszero\n  tag_75\n  jumpi\n    /* \"#utility.yul\":1800:1801   */\n  dup1\n    /* \"#utility.yul\":1795:1798   */\n  dup3\n    /* \"#utility.yul\":1791:1802   */\n  add\n    /* \"#utility.yul\":1785:1803   */\n  mload\n    /* \"#utility.yul\":1781:1782   */\n  dup2\n    /* \"#utility.yul\":1776:1779   */\n  dup5\n    /* \"#utility.yul\":1772:1783   */\n  add\n    /* \"#utility.yul\":1765:1804   */\n  mstore\n    /* \"#utility.yul\":1737:1739   */\n  0x20\n    /* \"#utility.yul\":1734:1735   */\n  dup2\n    /* \"#utility.yul\":1730:1740   */\n  add\n    /* \"#utility.yul\":1725:1740   */\n  swap1\n  pop\n    /* \"#utility.yul\":1701:1814   */\n  jump(tag_73)\ntag_75:\n    /* \"#utility.yul\":1848:1849   */\n  0x00\n    /* \"#utility.yul\":1839:1845   */\n  dup5\n    /* \"#utility.yul\":1834:1837   */\n  dup5\n    /* \"#utility.yul\":1830:1846   */\n  add\n    /* \"#utility.yul\":1823:1850   */\n  mstore\n    /* \"#utility.yul\":1672:1856   */\n  pop\n    /* \"#utility.yul\":1610:1856   */\n  pop\n  pop\n  pop\n  jump\t// out\n    /* \"#utility.yul\":1862:2296   */\ntag_29:\n    /* \"#utility.yul\":1951:1956   */\n  0x00\n    /* \"#utility.yul\":1976:2042   */\n  tag_77\n    /* \"#utility.yul\":1992:2041   */\n  tag_78\n    /* \"#utility.yul\":2034:2040   */\n  dup5\n    /* \"#utility.yul\":1992:2041   */\n  tag_27\n  jump\t// in\ntag_78:\n    /* \"#utility.yul\":1976:2042   */\n  tag_26\n  jump\t// in\ntag_77:\n    /* \"#utility.yul\":1967:2042   */\n  swap1\n  pop\n    /* \"#utility.yul\":2065:2071   */\n  dup3\n    /* \"#utility.yul\":2058:2063   */\n  dup2\n    /* \"#utility.yul\":2051:2072   */\n  mstore\n    /* \"#utility.yul\":2103:2107   */\n  0x20\n    /* \"#utility.yul\":2096:2101   */\n  dup2\n    /* \"#utility.yul\":2092:2108   */\n  add\n    /* \"#utility.yul\":2141:2144   */\n  dup5\n    /* \"#utility.yul\":2132:2138   */\n  dup5\n    /* \"#utility.yul\":2127:2130   */\n  dup5\n    /* \"#utility.yul\":2123:2139   */\n  add\n    /* \"#utility.yul\":2120:2145   */\n  gt\n    /* \"#utility.yul\":2117:2229   */\n  iszero\n  tag_79\n  jumpi\n    /* \"#utility.yul\":2148:2227   */\n  tag_80\n  tag_22\n  jump\t// in\ntag_80:\n    /* \"#utility.yul\":2117:2229   */\ntag_79:\n    /* \"#utility.yul\":2238:2290   */\n  tag_81\n    /* \"#utility.yul\":2283:2289   */\n  dup5\n    /* \"#utility.yul\":2278:2281   */\n  dup3\n    /* \"#utility.yul\":2273:2276   */\n  dup6\n    /* \"#utility.yul\":2238:2290   */\n  tag_28\n  jump\t// in\ntag_81:\n    /* \"#utility.yul\":1957:2296   */\n  pop\n    /* \"#utility.yul\":1862:2296   */\n  swap4\n  swap3\n  pop\n  pop\n  pop\n  jump\t// out\n    /* \"#utility.yul\":2316:2671   */\ntag_30:\n    /* \"#utility.yul\":2383:2388   */\n  0x00\n    /* \"#utility.yul\":2432:2435   */\n  dup3\n    /* \"#utility.yul\":2425:2429   */\n  0x1f\n    /* \"#utility.yul\":2417:2423   */\n  dup4\n    /* \"#utility.yul\":2413:2430   */\n  add\n    /* \"#utility.yul\":2409:2436   */\n  slt\n    /* \"#utility.yul\":2399:2521   */\n  tag_83\n  jumpi\n    /* \"#utility.yul\":2440:2519   */\n  tag_84\n  tag_21\n  jump\t// in\ntag_84:\n    /* \"#utility.yul\":2399:2521   */\ntag_83:\n    /* \"#utility.yul\":2550:2556   */\n  dup2\n    /* \"#utility.yul\":2544:2557   */\n  mload\n    /* \"#utility.yul\":2575:2665   */\n  tag_85\n    /* \"#utility.yul\":2661:2664   */\n  dup5\n    /* \"#utility.yul\":2653:2659   */\n  dup3\n    /* \"#utility.yul\":2646:2650   */\n  0x20\n    /* \"#utility.yul\":2638:2644   */\n  dup7\n    /* \"#utility.yul\":2634:2651   */\n  add\n    /* \"#utility.yul\":2575:2665   */\n  tag_29\n  jump\t// in\ntag_85:\n    /* \"#utility.yul\":2566:2665   */\n  swap2\n  pop\n    /* \"#utility.yul\":2389:2671   */\n  pop\n    /* \"#utility.yul\":2316:2671   */\n  swap3\n  swap2\n  pop\n  pop\n  jump\t// out\n    /* \"#utility.yul\":2677:2763   */\ntag_31:\n    /* \"#utility.yul\":2712:2719   */\n  0x00\n    /* \"#utility.yul\":2752:2756   */\n  0xff\n    /* \"#utility.yul\":2745:2750   */\n  dup3\n    /* \"#utility.yul\":2741:2757   */\n  and\n    /* \"#utility.yul\":2730:2757   */\n  swap1\n  pop\n    /* \"#utility.yul\":2677:2763   */\n  swap2\n  swap1\n  pop\n  jump\t// out\n    /* \"#utility.yul\":2769:2887   */\ntag_32:\n    /* \"#utility.yul\":2840:2862   */\n  tag_88\n    /* \"#utility.yul\":2856:2861   */\n  dup2\n    /* \"#utility.yul\":2840:2862   */\n  tag_31\n  jump\t// in\ntag_88:\n    /* \"#utility.yul\":2833:2838   */\n  dup2\n    /* \"#utility.yul\":2830:2863   */\n  eq\n    /* \"#utility.yul\":2820:2881   */\n  tag_89\n  jumpi\n    /* \"#utility.yul\":2877:2878   */\n  0x00\n    /* \"#utility.yul\":2874:2875   */\n  dup1\n    /* \"#utility.yul\":2867:2879   */\n  revert\n    /* \"#utility.yul\":2820:2881   */\ntag_89:\n    /* \"#utility.yul\":2769:2887   */\n  pop\n  jump\t// out\n    /* \"#utility.yul\":2893:3032   */\ntag_33:\n    /* \"#utility.yul\":2948:2953   */\n  0x00\n    /* \"#utility.yul\":2979:2985   */\n  dup2\n    /* \"#utility.yul\":2973:2986   */\n  mload\n    /* \"#utility.yul\":2964:2986   */\n  swap1\n  pop\n    /* \"#utility.yul\":2995:3026   */\n  tag_91\n    /* \"#utility.yul\":3020:3025   */\n  dup2\n    /* \"#utility.yul\":2995:3026   */\n  tag_32\n  jump\t// in\ntag_91:\n    /* \"#utility.yul\":2893:3032   */\n  swap3\n  swap2\n  pop\n  pop\n  jump\t// out\n    /* \"#utility.yul\":3038:4043   */\ntag_3:\n    /* \"#utility.yul\":3144:3150   */\n  0x00\n    /* \"#utility.yul\":3152:3158   */\n  dup1\n    /* \"#utility.yul\":3160:3166   */\n  0x00\n    /* \"#utility.yul\":3209:3211   */\n  0x60\n    /* \"#utility.yul\":3197:3206   */\n  dup5\n    /* \"#utility.yul\":3188:3195   */\n  dup7\n    /* \"#utility.yul\":3184:3207   */\n  sub\n    /* \"#utility.yul\":3180:3212   */\n  slt\n    /* \"#utility.yul\":3177:3296   */\n  iszero\n  tag_93\n  jumpi\n    /* \"#utility.yul\":3215:3294   */\n  tag_94\n  tag_19\n  jump\t// in\ntag_94:\n    /* \"#utility.yul\":3177:3296   */\ntag_93:\n    /* \"#utility.yul\":3356:3357   */\n  0x00\n    /* \"#utility.yul\":3345:3354   */\n  dup5\n    /* \"#utility.yul\":3341:3358   */\n  add\n    /* \"#utility.yul\":3335:3359   */\n  mload\n    /* \"#utility.yul\":3386:3404   */\n  0xffffffffffffffff\n    /* \"#utility.yul\":3378:3384   */\n  dup2\n    /* \"#utility.yul\":3375:3405   */\n  gt\n    /* \"#utility.yul\":3372:3489   */\n  iszero\n  tag_95\n  jumpi\n    /* \"#utility.yul\":3408:3487   */\n  tag_96\n  tag_20\n  jump\t// in\ntag_96:\n    /* \"#utility.yul\":3372:3489   */\ntag_95:\n    /* \"#utility.yul\":3513:3587   */\n  tag_97\n    /* \"#utility.yul\":3579:3586   */\n  dup7\n    /* \"#utility.yul\":3570:3576   */\n  dup3\n    /* \"#utility.yul\":3559:3568   */\n  dup8\n    /* \"#utility.yul\":3555:3577   */\n  add\n    /* \"#utility.yul\":3513:3587   */\n  tag_30\n  jump\t// in\ntag_97:\n    /* \"#utility.yul\":3503:3587   */\n  swap4\n  pop\n    /* \"#utility.yul\":3306:3597   */\n  pop\n    /* \"#utility.yul\":3657:3659   */\n  0x20\n    /* \"#utility.yul\":3646:3655   */\n  dup5\n    /* \"#utility.yul\":3642:3660   */\n  add\n    /* \"#utility.yul\":3636:3661   */\n  mload\n    /* \"#utility.yul\":3688:3706   */\n  0xffffffffffffffff\n    /* \"#utility.yul\":3680:3686   */\n  dup2\n    /* \"#utility.yul\":3677:3707   */\n  gt\n    /* \"#utility.yul\":3674:3791   */\n  iszero\n  tag_98\n  jumpi\n    /* \"#utility.yul\":3710:3789   */\n  tag_99\n  tag_20\n  jump\t// in\ntag_99:\n    /* \"#utility.yul\":3674:3791   */\ntag_98:\n    /* \"#utility.yul\":3815:3889   */\n  tag_100\n    /* \"#utility.yul\":3881:3888   */\n  dup7\n    /* \"#utility.yul\":3872:3878   */\n  dup3\n    /* \"#utility.yul\":3861:3870   */\n  dup8\n    /* \"#utility.yul\":3857:3879   */\n  add\n    /* \"#utility.yul\":3815:3889   */\n  tag_30\n  jump\t// in\ntag_100:\n    /* \"#utility.yul\":3805:3889   */\n  swap3\n  pop\n    /* \"#utility.yul\":3607:3899   */\n  pop\n    /* \"#utility.yul\":3938:3940   */\n  0x40\n    /* \"#utility.yul\":3964:4026   */\n  tag_101\n    /* \"#utility.yul\":4018:4025   */\n  dup7\n    /* \"#utility.yul\":4009:4015   */\n  dup3\n    /* \"#utility.yul\":3998:4007   */\n  dup8\n    /* \"#utility.yul\":3994:4016   */\n  add\n    /* \"#utility.yul\":3964:4026   */\n  tag_33\n  jump\t// in\ntag_101:\n    /* \"#utility.yul\":3954:4026   */\n  swap2\n  pop\n    /* \"#utility.yul\":3909:4036   */\n  pop\n    /* \"#utility.yul\":3038:4043   */\n  swap3\n  pop\n  swap3\n  pop\n  swap3\n  jump\t// out\n    /* \"#utility.yul\":4049:4148   */\ntag_34:\n    /* \"#utility.yul\":4101:4107   */\n  0x00\n    /* \"#utility.yul\":4135:4140   */\n  dup2\n    /* \"#utility.yul\":4129:4141   */\n  mload\n    /* \"#utility.yul\":4119:4141   */\n  swap1\n  pop\n    /* \"#utility.yul\":4049:4148   */\n  swap2\n  swap1\n  pop\n  jump\t// out\n    /* \"#utility.yul\":4154:4334   */\ntag_35:\n    /* \"#utility.yul\":4202:4279   */\n  0x4e487b7100000000000000000000000000000000000000000000000000000000\n    /* \"#utility.yul\":4199:4200   */\n  0x00\n    /* \"#utility.yul\":4192:4280   */\n  mstore\n    /* \"#utility.yul\":4299:4303   */\n  0x22\n    /* \"#utility.yul\":4296:4297   */\n  0x04\n    /* \"#utility.yul\":4289:4304   */\n  mstore\n    /* \"#utility.yul\":4323:4327   */\n  0x24\n    /* \"#utility.yul\":4320:4321   */\n  0x00\n    /* \"#utility.yul\":4313:4328   */\n  revert\n    /* \"#utility.yul\":4340:4660   */\ntag_36:\n    /* \"#utility.yul\":4384:4390   */\n  0x00\n    /* \"#utility.yul\":4421:4422   */\n  0x02\n    /* \"#utility.yul\":4415:4419   */\n  dup3\n    /* \"#utility.yul\":4411:4423   */\n  div\n    /* \"#utility.yul\":4401:4423   */\n  swap1\n  pop\n    /* \"#utility.yul\":4468:4469   */\n  0x01\n    /* \"#utility.yul\":4462:4466   */\n  dup3\n    /* \"#utility.yul\":4458:4470   */\n  and\n    /* \"#utility.yul\":4489:4507   */\n  dup1\n    /* \"#utility.yul\":4479:4560   */\n  tag_105\n  jumpi\n    /* \"#utility.yul\":4545:4549   */\n  0x7f\n    /* \"#utility.yul\":4537:4543   */\n  dup3\n    /* \"#utility.yul\":4533:4550   */\n  and\n    /* \"#utility.yul\":4523:4550   */\n  swap2\n  pop\n    /* \"#utility.yul\":4479:4560   */\ntag_105:\n    /* \"#utility.yul\":4607:4609   */\n  0x20\n    /* \"#utility.yul\":4599:4605   */\n  dup3\n    /* \"#utility.yul\":4596:4610   */\n  lt\n    /* \"#utility.yul\":4576:4594   */\n  dup2\n    /* \"#utility.yul\":4573:4611   */\n  sub\n    /* \"#utility.yul\":4570:4654   */\n  tag_106\n  jumpi\n    /* \"#utility.yul\":4626:4644   */\n  tag_107\n  tag_35\n  jump\t// in\ntag_107:\n    /* \"#utility.yul\":4570:4654   */\ntag_106:\n    /* \"#utility.yul\":4391:4660   */\n  pop\n    /* \"#utility.yul\":4340:4660   */\n  swap2\n  swap1\n  pop\n  jump\t// out\n    /* \"#utility.yul\":4666:4807   */\ntag_37:\n    /* \"#utility.yul\":4715:4719   */\n  0x00\n    /* \"#utility.yul\":4738:4741   */\n  dup2\n    /* \"#utility.yul\":4730:4741   */\n  swap1\n  pop\n    /* \"#utility.yul\":4761:4764   */\n  dup2\n    /* \"#utility.yul\":4758:4759   */\n  0x00\n    /* \"#utility.yul\":4751:4765   */\n  mstore\n    /* \"#utility.yul\":4795:4799   */\n  0x20\n    /* \"#utility.yul\":4792:4793   */\n  0x00\n    /* \"#utility.yul\":4782:4800   */\n  keccak256\n    /* \"#utility.yul\":4774:4800   */\n  swap1\n  pop\n    /* \"#utility.yul\":4666:4807   */\n  swap2\n  swap1\n  pop\n  jump\t// out\n    /* \"#utility.yul\":4813:4906   */\ntag_38:\n    /* \"#utility.yul\":4850:4856   */\n  0x00\n    /* \"#utility.yul\":4897:4899   */\n  0x20\n    /* \"#utility.yul\":4892:4894   */\n  0x1f\n    /* \"#utility.yul\":4885:4890   */\n  dup4\n    /* \"#utility.yul\":4881:4895   */\n  add\n    /* \"#utility.yul\":4877:4900   */\n  div\n    /* \"#utility.yul\":4867:4900   */\n  swap1\n  pop\n    /* \"#utility.yul\":4813:4906   */\n  swap2\n  swap1\n  pop\n  jump\t// out\n    /* \"#utility.yul\":4912:5019   */\ntag_39:\n    /* \"#utility.yul\":4956:4964   */\n  0x00\n    /* \"#utility.yul\":5006:5011   */\n  dup3\n    /* \"#utility.yul\":5000:5004   */\n  dup3\n    /* \"#utility.yul\":4996:5012   */\n  shl\n    /* \"#utility.yul\":4975:5012   */\n  swap1\n  pop\n    /* \"#utility.yul\":4912:5019   */\n  swap3\n  swap2\n  pop\n  pop\n  jump\t// out\n    /* \"#utility.yul\":5025:5418   */\ntag_40:\n    /* \"#utility.yul\":5094:5100   */\n  0x00\n    /* \"#utility.yul\":5144:5145   */\n  0x08\n    /* \"#utility.yul\":5132:5142   */\n  dup4\n    /* \"#utility.yul\":5128:5146   */\n  mul\n    /* \"#utility.yul\":5167:5264   */\n  tag_112\n    /* \"#utility.yul\":5197:5263   */\n  0xffffffffffffffffffffffffffffffffffffffffffffffffffffffffffffffff\n    /* \"#utility.yul\":5186:5195   */\n  dup3\n    /* \"#utility.yul\":5167:5264   */\n  tag_39\n  jump\t// in\ntag_112:\n    /* \"#utility.yul\":5285:5324   */\n  tag_113\n    /* \"#utility.yul\":5315:5323   */\n  dup7\n    /* \"#utility.yul\":5304:5313   */\n  dup4\n    /* \"#utility.yul\":5285:5324   */\n  tag_39\n  jump\t// in\ntag_113:\n    /* \"#utility.yul\":5273:5324   */\n  swap6\n  pop\n    /* \"#utility.yul\":5357:5361   */\n  dup1\n    /* \"#utility.yul\":5353:5362   */\n  not\n    /* \"#utility.yul\":5346:5351   */\n  dup5\n    /* \"#utility.yul\":5342:5363   */\n  and\n    /* \"#utility.yul\":5333:5363   */\n  swap4\n  pop\n    /* \"#utility.yul\":5406:5410   */\n  dup1\n    /* \"#utility.yul\":5396:5404   */\n  dup7\n    /* \"#utility.yul\":5392:5411   */\n  and\n    /* \"#utility.yul\":5385:5390   */\n  dup5\n    /* \"#utility.yul\":5382:5412   */\n  or\n    /* \"#utility.yul\":5372:5412   */\n  swap3\n  pop\n    /* \"#utility.yul\":5101:5418   */\n  pop\n  pop\n    /* \"#utility.yul\":5025:5418   */\n  swap4\n  swap3\n  pop\n  pop\n  pop\n  jump\t// out\n    /* \"#utility.yul\":5424:5501   */\ntag_41:\n    /* \"#utility.yul\":5461:5468   */\n  0x00\n    /* \"#utility.yul\":5490:5495   */\n  dup2\n    /* \"#utility.yul\":5479:5495   */\n  swap1\n  pop\n    /* \"#utility.yul\":5424:5501   */\n  swap2\n  swap1\n  pop\n  jump\t// out\n    /* \"#utility.yul\":5507:5567   */\ntag_42:\n    /* \"#utility.yul\":5535:5538   */\n  0x00\n    /* \"#utility.yul\":5556:5561   */\n  dup2\n    /* \"#utility.yul\":5549:5561   */\n  swap1\n  pop\n    /* \"#utility.yul\":5507:5567   */\n  swap2\n  swap1\n  pop\n  jump\t// out\n    /* \"#utility.yul\":5573:5715   */\ntag_43:\n    /* \"#utility.yul\":5623:5632   */\n  0x00\n    /* \"#utility.yul\":5656:5709   */\n  tag_117\n    /* \"#utility.yul\":5674:5708   */\n  tag_118\n    /* \"#utility.yul\":5683:5707   */\n  tag_119\n    /* \"#utility.yul\":5701:5706   */\n  dup5\n    /* \"#utility.yul\":5683:5707   */\n  tag_41\n  jump\t// in\ntag_119:\n    /* \"#utility.yul\":5674:5708   */\n  tag_42\n  jump\t// in\ntag_118:\n    /* \"#utility.yul\":5656:5709   */\n  tag_41\n  jump\t// in\ntag_117:\n    /* \"#utility.yul\":5643:5709   */\n  swap1\n  pop\n    /* \"#utility.yul\":5573:5715   */\n  swap2\n  swap1\n  pop\n  jump\t// out\n    /* \"#utility.yul\":5721:5796   */\ntag_44:\n    /* \"#utility.yul\":5764:5767   */\n  0x00\n    /* \"#utility.yul\":5785:5790   */\n  dup2\n    /* \"#utility.yul\":5778:5790   */\n  swap1\n  pop\n    /* \"#utility.yul\":5721:5796   */\n  swap2\n  swap1\n  pop\n  jump\t// out\n    /* \"#utility.yul\":5802:6071   */\ntag_45:\n    /* \"#utility.yul\":5912:5951   */\n  tag_122\n    /* \"#utility.yul\":5943:5950   */\n  dup4\n    /* \"#utility.yul\":5912:5951   */\n  tag_43\n  jump\t// in\ntag_122:\n    /* \"#utility.yul\":5973:6064   */\n  tag_123\n    /* \"#utility.yul\":6022:6063   */\n  tag_124\n    /* \"#utility.yul\":6046:6062   */\n  dup3\n    /* \"#utility.yul\":6022:6063   */\n  tag_44\n  jump\t// in\ntag_124:\n    /* \"#utility.yul\":6014:6020   */\n  dup5\n    /* \"#utility.yul\":6007:6011   */\n  dup5\n    /* \"#utility.yul\":6001:6012   */\n  sload\n    /* \"#utility.yul\":5973:6064   */\n  tag_40\n  jump\t// in\ntag_123:\n    /* \"#utility.yul\":5967:5971   */\n  dup3\n    /* \"#utility.yul\":5960:6065   */\n  sstore\n    /* \"#utility.yul\":5878:6071   */\n  pop\n    /* \"#utility.yul\":5802:6071   */\n  pop\n  pop\n  pop\n  jump\t// out\n    /* \"#utility.yul\":6077:6150   */\ntag_46:\n    /* \"#utility.yul\":6122:6125   */\n  0x00\n    /* \"#utility.yul\":6077:6150   */\n  swap1\n  jump\t// out\n    /* \"#utility.yul\":6156:6345   */\ntag_47:\n    /* \"#utility.yul\":6233:6265   */\n  tag_127\n  tag_46\n  jump\t// in\ntag_127:\n    /* \"#utility.yul\":6274:6339   */\n  tag_128\n    /* \"#utility.yul\":6332:6338   */\n  dup2\n    /* \"#utility.yul\":6324:6330   */\n  dup5\n    /* \"#utility.yul\":6318:6322   */\n  dup5\n    /* \"#utility.yul\":6274:6339   */\n  tag_45\n  jump\t// in\ntag_128:\n    /* \"#utility.yul\":6209:6345   */\n  pop\n    /* \"#utility.yul\":6156:6345   */\n  pop\n  pop\n  jump\t// out\n    /* \"#utility.yul\":6351:6537   */\ntag_48:\n    /* \"#utility.yul\":6411:6531   */\ntag_130:\n    /* \"#utility.yul\":6428:6431   */\n  dup2\n    /* \"#utility.yul\":6421:6426   */\n  dup2\n    /* \"#utility.yul\":6418:6432   */\n  lt\n    /* \"#utility.yul\":6411:6531   */\n  iszero\n  tag_132\n  jumpi\n    /* \"#utility.yul\":6482:6521   */\n  tag_133\n    /* \"#utility.yul\":6519:6520   */\n  0x00\n    /* \"#utility.yul\":6512:6517   */\n  dup3\n    /* \"#utility.yul\":6482:6521   */\n  tag_47\n  jump\t// in\ntag_133:\n    /* \"#utility.yul\":6455:6456   */\n  0x01\n    /* \"#utility.yul\":6448:6453   */\n  dup2\n    /* \"#utility.yul\":6444:6457   */\n  add\n    /* \"#utility.yul\":6435:6457   */\n  swap1\n  pop\n    /* \"#utility.yul\":6411:6531   */\n  jump(tag_130)\ntag_132:\n    /* \"#utility.yul\":6351:6537   */\n  pop\n  pop\n  jump\t// out\n    /* \"#utility.yul\":6543:7086   */\ntag_49:\n    /* \"#utility.yul\":6644:6646   */\n  0x1f\n    /* \"#utility.yul\":6639:6642   */\n  dup3\n    /* \"#utility.yul\":6636:6647   */\n  gt\n    /* \"#utility.yul\":6633:7079   */\n  iszero\n  tag_135\n  jumpi\n    /* \"#utility.yul\":6678:6716   */\n  tag_136\n    /* \"#utility.yul\":6710:6715   */\n  dup2\n    /* \"#utility.yul\":6678:6716   */\n  tag_37\n  jump\t// in\ntag_136:\n    /* \"#utility.yul\":6762:6791   */\n  tag_137\n    /* \"#utility.yul\":6780:6790   */\n  dup5\n    /* \"#utility.yul\":6762:6791   */\n  tag_38\n  jump\t// in\ntag_137:\n    /* \"#utility.yul\":6752:6760   */\n  dup2\n    /* \"#utility.yul\":6748:6792   */\n  add\n    /* \"#utility.yul\":6945:6947   */\n  0x20\n    /* \"#utility.yul\":6933:6943   */\n  dup6\n    /* \"#utility.yul\":6930:6948   */\n  lt\n    /* \"#utility.yul\":6927:6976   */\n  iszero\n  tag_138\n  jumpi\n    /* \"#utility.yul\":6966:6974   */\n  dup2\n    /* \"#utility.yul\":6951:6974   */\n  swap1\n  pop\n    /* \"#utility.yul\":6927:6976   */\ntag_138:\n    /* \"#utility.yul\":6989:7069   */\n  tag_139\n    /* \"#utility.yul\":7045:7067   */\n  tag_140\n    /* \"#utility.yul\":7063:7066   */\n  dup6\n    /* \"#utility.yul\":7045:7067   */\n  tag_38\n  jump\t// in\ntag_140:\n    /* \"#utility.yul\":7035:7043   */\n  dup4\n    /* \"#utility.yul\":7031:7068   */\n  add\n    /* \"#utility.yul\":7018:7029   */\n  dup3\n    /* \"#utility.yul\":6989:7069   */\n  tag_48\n  jump\t// in\ntag_139:\n    /* \"#utility.yul\":6648:7079   */\n  pop\n  pop\n    /* \"#utility.yul\":6633:7079   */\ntag_135:\n    /* \"#utility.yul\":6543:7086   */\n  pop\n  pop\n  pop\n  jump\t// out\n    /* \"#utility.yul\":7092:7209   */\ntag_50:\n    /* \"#utility.yul\":7146:7154   */\n  0x00\n    /* \"#utility.yul\":7196:7201   */\n  dup3\n    /* \"#utility.yul\":7190:7194   */\n  dup3\n    /* \"#utility.yul\":7186:7202   */\n  shr\n    /* \"#utility.yul\":7165:7202   */\n  swap1\n  pop\n    /* \"#utility.yul\":7092:7209   */\n  swap3\n  swap2\n  pop\n  pop\n  jump\t// out\n    /* \"#utility.yul\":7215:7384   */\ntag_51:\n    /* \"#utility.yul\":7259:7265   */\n  0x00\n    /* \"#utility.yul\":7292:7343   */\n  tag_143\n    /* \"#utility.yul\":7340:7341   */\n  0x00\n    /* \"#utility.yul\":7336:7342   */\n  not\n    /* \"#utility.yul\":7328:7333   */\n  dup5\n    /* \"#utility.yul\":7325:7326   */\n  0x08\n    /* \"#utility.yul\":7321:7334   */\n  mul\n    /* \"#utility.yul\":7292:7343   */\n  tag_50\n  jump\t// in\ntag_143:\n    /* \"#utility.yul\":7288:7344   */\n  not\n    /* \"#utility.yul\":7373:7377   */\n  dup1\n    /* \"#utility.yul\":7367:7371   */\n  dup4\n    /* \"#utility.yul\":7363:7378   */\n  and\n    /* \"#utility.yul\":7353:7378   */\n  swap2\n  pop\n    /* \"#utility.yul\":7266:7384   */\n  pop\n    /* \"#utility.yul\":7215:7384   */\n  swap3\n  swap2\n  pop\n  pop\n  jump\t// out\n    /* \"#utility.yul\":7389:7684   */\ntag_52:\n    /* \"#utility.yul\":7465:7469   */\n  0x00\n    /* \"#utility.yul\":7611:7640   */\n  tag_145\n    /* \"#utility.yul\":7636:7639   */\n  dup4\n    /* \"#utility.yul\":7630:7634   */\n  dup4\n    /* \"#utility.yul\":7611:7640   */\n  tag_51\n  jump\t// in\ntag_145:\n    /* \"#utility.yul\":7603:7640   */\n  swap2\n  pop\n    /* \"#utility.yul\":7673:7676   */\n  dup3\n    /* \"#utility.yul\":7670:7671   */\n  0x02\n    /* \"#utility.yul\":7666:7677   */\n  mul\n    /* \"#utility.yul\":7660:7664   */\n  dup3\n    /* \"#utility.yul\":7657:7678   */\n  or\n    /* \"#utility.yul\":7649:7678   */\n  swap1\n  pop\n    /* \"#utility.yul\":7389:7684   */\n  swap3\n  swap2\n  pop\n  pop\n  jump\t// out\n    /* \"#utility.yul\":7689:9084   */\ntag_13:\n    /* \"#utility.yul\":7806:7843   */\n  tag_147\n    /* \"#utility.yul\":7839:7842   */\n  dup3\n    /* \"#utility.yul\":7806:7843   */\n  tag_34\n  jump\t// in\ntag_147:\n    /* \"#utility.yul\":7908:7926   */\n  0xffffffffffffffff\n    /* \"#utility.yul\":7900:7906   */\n  dup2\n    /* \"#utility.yul\":7897:7927   */\n  gt\n    /* \"#utility.yul\":7894:7950   */\n  iszero\n  tag_148\n  jumpi\n    /* \"#utility.yul\":7930:7948   */\n  tag_149\n  tag_24\n  jump\t// in\ntag_149:\n    /* \"#utility.yul\":7894:7950   */\ntag_148:\n    /* \"#utility.yul\":7974:8012   */\n  tag_150\n    /* \"#utility.yul\":8006:8010   */\n  dup3\n    /* \"#utility.yul\":8000:8011   */\n  sload\n    /* \"#utility.yul\":7974:8012   */\n  tag_36\n  jump\t// in\ntag_150:\n    /* \"#utility.yul\":8059:8126   */\n  tag_151\n    /* \"#utility.yul\":8119:8125   */\n  dup3\n    /* \"#utility.yul\":8111:8117   */\n  dup3\n    /* \"#utility.yul\":8105:8109   */\n  dup6\n    /* \"#utility.yul\":8059:8126   */\n  tag_49\n  jump\t// in\ntag_151:\n    /* \"#utility.yul\":8153:8154   */\n  0x00\n    /* \"#utility.yul\":8177:8181   */\n  0x20\n    /* \"#utility.yul\":8164:8181   */\n  swap1\n  pop\n    /* \"#utility.yul\":8209:8211   */\n  0x1f\n    /* \"#utility.yul\":8201:8207   */\n  dup4\n    /* \"#utility.yul\":8198:8212   */\n  gt\n    /* \"#utility.yul\":8226:8227   */\n  0x01\n    /* \"#utility.yul\":8221:8839   */\n  dup2\n  eq\n  tag_153\n  jumpi\n    /* \"#utility.yul\":8883:8884   */\n  0x00\n    /* \"#utility.yul\":8900:8906   */\n  dup5\n    /* \"#utility.yul\":8897:8974   */\n  iszero\n  tag_154\n  jumpi\n    /* \"#utility.yul\":8949:8958   */\n  dup3\n    /* \"#utility.yul\":8944:8947   */\n  dup8\n    /* \"#utility.yul\":8940:8959   */\n  add\n    /* \"#utility.yul\":8934:8960   */\n  mload\n    /* \"#utility.yul\":8925:8960   */\n  swap1\n  pop\n    /* \"#utility.yul\":8897:8974   */\ntag_154:\n    /* \"#utility.yul\":9000:9067   */\n  tag_155\n    /* \"#utility.yul\":9060:9066   */\n  dup6\n    /* \"#utility.yul\":9053:9058   */\n  dup3\n    /* \"#utility.yul\":9000:9067   */\n  tag_52\n  jump\t// in\ntag_155:\n    /* \"#utility.yul\":8994:8998   */\n  dup7\n    /* \"#utility.yul\":8987:9068   */\n  sstore\n    /* \"#utility.yul\":8856:9078   */\n  pop\n    /* \"#utility.yul\":8191:9078   */\n  jump(tag_152)\n    /* \"#utility.yul\":8221:8839   */\ntag_153:\n    /* \"#utility.yul\":8273:8277   */\n  0x1f\n    /* \"#utility.yul\":8269:8278   */\n  not\n    /* \"#utility.yul\":8261:8267   */\n  dup5\n    /* \"#utility.yul\":8257:8279   */\n  and\n    /* \"#utility.yul\":8307:8344   */\n  tag_156\n    /* \"#utility.yul\":8339:8343   */\n  dup7\n    /* \"#utility.yul\":8307:8344   */\n  tag_37\n  jump\t// in\ntag_156:\n    /* \"#utility.yul\":8366:8367   */\n  0x00\n    /* \"#utility.yul\":8380:8588   */\ntag_157:\n    /* \"#utility.yul\":8394:8401   */\n  dup3\n    /* \"#utility.yul\":8391:8392   */\n  dup2\n    /* \"#utility.yul\":8388:8402   */\n  lt\n    /* \"#utility.yul\":8380:8588   */\n  iszero\n  tag_159\n  jumpi\n    /* \"#utility.yul\":8473:8482   */\n  dup5\n    /* \"#utility.yul\":8468:8471   */\n  dup10\n    /* \"#utility.yul\":8464:8483   */\n  add\n    /* \"#utility.yul\":8458:8484   */\n  mload\n    /* \"#utility.yul\":8450:8456   */\n  dup3\n    /* \"#utility.yul\":8443:8485   */\n  sstore\n    /* \"#utility.yul\":8524:8525   */\n  0x01\n    /* \"#utility.yul\":8516:8522   */\n  dup3\n    /* \"#utility.yul\":8512:8526   */\n  add\n    /* \"#utility.yul\":8502:8526   */\n  swap2\n  pop\n    /* \"#utility.yul\":8571:8573   */\n  0x20\n    /* \"#utility.yul\":8560:8569   */\n  dup6\n    /* \"#utility.yul\":8556:8574   */\n  add\n    /* \"#utility.yul\":8543:8574   */\n  swap5\n  pop\n    /* \"#utility.yul\":8417:8421   */\n  0x20\n    /* \"#utility.yul\":8414:8415   */\n  dup2\n    /* \"#utility.yul\":8410:8422   */\n  add\n    /* \"#utility.yul\":8405:8422   */\n  swap1\n  pop\n    /* \"#utility.yul\":8380:8588   */\n  jump(tag_157)\ntag_159:\n    /* \"#utility.yul\":8616:8622   */\n  dup7\n    /* \"#utility.yul\":8607:8614   */\n  dup4\n    /* \"#utility.yul\":8604:8623   */\n  lt\n    /* \"#utility.yul\":8601:8780   */\n  iszero\n  tag_160\n  jumpi\n    /* \"#utility.yul\":8674:8683   */\n  dup5\n    /* \"#utility.yul\":8669:8672   */\n  dup10\n    /* \"#utility.yul\":8665:8684   */\n  add\n    /* \"#utility.yul\":8659:8685   */\n  mload\n    /* \"#utility.yul\":8717:8765   */\n  tag_161\n    /* \"#utility.yul\":8759:8763   */\n  0x1f\n    /* \"#utility.yul\":8751:8757   */\n  dup10\n    /* \"#utility.yul\":8747:8764   */\n  and\n    /* \"#utility.yul\":8736:8745   */\n  dup3\n    /* \"#utility.yul\":8717:8765   */\n  tag_51\n  jump\t// in\ntag_161:\n    /* \"#utility.yul\":8709:8715   */\n  dup4\n    /* \"#utility.yul\":8702:8766   */\n  sstore\n    /* \"#utility.yul\":8624:8780   */\n  pop\n    /* \"#utility.yul\":8601:8780   */\ntag_160:\n    /* \"#utility.yul\":8826:8827   */\n  0x01\n    /* \"#utility.yul\":8822:8823   */\n  0x02\n    /* \"#utility.yul\":8814:8820   */\n  dup9\n    /* \"#utility.yul\":8810:8824   */\n  mul\n    /* \"#utility.yul\":8806:8828   */\n  add\n    /* \"#utility.yul\":8800:8804   */\n  dup9\n    /* \"#utility.yul\":8793:8829   */\n  sstore\n    /* \"#utility.yul\":8228:8839   */\n  pop\n  pop\n  pop\n    /* \"#utility.yul\":8191:9078   */\ntag_152:\n  pop\n    /* \"#utility.yul\":7781:9084   */\n  pop\n  pop\n  pop\n    /* \"#utility.yul\":7689:9084   */\n  pop\n  pop\n  jump\t// out\n    /* \"contracts/Swap.sol\":249:1962  contract Swap is Ownable {... */\ntag_15:\n  dataSize(sub_0)\n  dup1\n  dataOffset(sub_0)\n  0x00\n  codecopy\n  0x00\n  return\nstop\n\nsub_0: assembly {\n        /* \"contracts/Swap.sol\":249:1962  contract Swap is Ownable {... */\n      mstore(0x40, 0x80)\n      callvalue\n      dup1\n      iszero\n      tag_1\n      jumpi\n      0x00\n      dup1\n      revert\n    tag_1:\n      pop\n      jumpi(tag_2, lt(calldatasize, 0x04))\n      shr(0xe0, calldataload(0x00))\n      dup1\n      0x8da5cb5b\n      gt\n      tag_15\n      jumpi\n      dup1\n      0x8da5cb5b\n      eq\n      tag_9\n      jumpi\n      dup1\n      0x95d89b41\n      eq\n      tag_10\n      jumpi\n      dup1\n      0x9dc29fac\n      eq\n      tag_11\n      jumpi\n      dup1\n      0xa9059cbb\n      eq\n      tag_12\n      jumpi\n      dup1\n      0xddca3f43\n      eq\n      tag_13\n      jumpi\n      dup1\n      0xf2fde38b\n      eq\n      tag_14\n      jumpi\n      jump(tag_2)\n    tag_15:\n      dup1\n      0x06fdde03\n      eq\n      tag_3\n      jumpi\n      dup1\n      0x313ce567\n      eq\n      tag_4\n      jumpi\n      dup1\n      0x3e032a3b\n      eq\n      tag_5\n      jumpi\n      dup1\n      0x40c10f19\n      eq\n      tag_6\n      jumpi\n      dup1\n      0x70a08231\n      eq\n      tag_7\n      jumpi\n      dup1\n      0x715018a6\n      eq\n      tag_8\n      jumpi\n    tag_2:\n      0x00\n      dup1\n      revert\n        /* \"contracts/Swap.sol\":351:369  string public name */\n    tag_3:\n      tag_16\n      tag_17\n      jump\t// in\n    tag_16:\n      mload(0x40)\n      tag_18\n      swap2\n      swap1\n      tag_19\n      jump\t// in\n    tag_18:\n      mload(0x40)\n      dup1\n      swap2\n      sub\n      swap1\n      return\n        /* \"contracts/Swap.sol\":403:424  uint8 public decimals */\n    tag_4:\n      tag_20\n      tag_21\n      jump\t// in\n    tag_20:\n      mload(0x40)\n      tag_22\n      swap2\n      swap1\n      tag_23\n      jump\t// in\n    tag_22:\n      mload(0x40)\n      dup1\n      swap2\n      sub\n      swap1\n      return\n        /* \"contracts/Swap.sol\":674:697  uint256 public slippage */\n    tag_5:\n      tag_24\n      tag_25\n      jump\t// in\n    tag_24:\n      mload(0x40)\n      tag_26\n      swap2\n      swap1\n      tag_27\n      jump\t// in\n    tag_26:\n      mload(0x40)\n      dup1\n      swap2\n      sub\n      swap1\n      return\n        /* \"contracts/Swap.sol\":907:1164  function mint(address account, uint256 amount) public onlyOwner {... */\n    tag_6:\n      tag_28\n      0x04\n      dup1\n      calldatasize\n      sub\n      dup2\n      add\n      swap1\n      tag_29\n      swap2\n      swap1\n      tag_30\n      jump\t// in\n    tag_29:\n      tag_31\n      jump\t// in\n    tag_28:\n      stop\n        /* \"contracts/Swap.sol\":431:475  mapping(address => uint256) public balanceOf */\n    tag_7:\n      tag_32\n      0x04\n      dup1\n      calldatasize\n      sub\n      dup2\n      add\n      swap1\n      tag_33\n      swap2\n      swap1\n      tag_34\n      jump\t// in\n    tag_33:\n      tag_35\n      jump\t// in\n    tag_32:\n      mload(0x40)\n      tag_36\n      swap2\n      swap1\n      tag_27\n      jump\t// in\n    tag_36:\n      mload(0x40)\n      dup1\n      swap2\n      sub\n      swap1\n      return\n        /* \"@openzeppelin/contracts/access/Ownable.sol\":1831:1932  function renounceOwnership() public virtual onlyOwner {... */\n    tag_8:\n      tag_37\n      tag_38\n      jump\t// in\n    tag_37:\n      stop\n        /* \"@openzeppelin/contracts/access/Ownable.sol\":1201:1286  function owner() public view virtual returns (address) {... */\n    tag_9:\n      tag_39\n      tag_40\n      jump\t// in\n    tag_39:\n      mload(0x40)\n      tag_41\n      swap2\n      swap1\n      tag_42\n      jump\t// in\n    tag_41:\n      mload(0x40)\n      dup1\n      swap2\n      sub\n      swap1\n      return\n        /* \"contracts/Swap.sol\":376:396  string public symbol */\n    tag_10:\n      tag_43\n      tag_44\n      jump\t// in\n    tag_43:\n      mload(0x40)\n      tag_45\n      swap2\n      swap1\n      tag_19\n      jump\t// in\n    tag_45:\n      mload(0x40)\n      dup1\n      swap2\n      sub\n      swap1\n      return\n        /* \"contracts/Swap.sol\":1196:1454  function burn(address account, uint256 amount) public onlyOwner {... */\n    tag_11:\n      tag_46\n      0x04\n      dup1\n      calldatasize\n      sub\n      dup2\n      add\n      swap1\n      tag_47\n      swap2\n      swap1\n      tag_30\n      jump\t// in\n    tag_47:\n      tag_48\n      jump\t// in\n    tag_46:\n      stop\n        /* \"contracts/Swap.sol\":1483:1959  function transfer(address to, uint256 value) public {... */\n    tag_12:\n      tag_49\n      0x04\n      dup1\n      calldatasize\n      sub\n      dup2\n      add\n      swap1\n      tag_50\n      swap2\n      swap1\n      tag_30\n      jump\t// in\n    tag_50:\n      tag_51\n      jump\t// in\n    tag_49:\n      stop\n        /* \"contracts/Swap.sol\":616:638  uint256 public fee = 3 */\n    tag_13:\n      tag_52\n      tag_53\n      jump\t// in\n    tag_52:\n      mload(0x40)\n      tag_54\n      swap2\n      swap1\n      tag_27\n      jump\t// in\n    tag_54:\n      mload(0x40)\n      dup1\n      swap2\n      sub\n      swap1\n      return\n        /* \"@openzeppelin/contracts/access/Ownable.sol\":2081:2279  function transferOwnership(address newOwner) public virtual onlyOwner {... */\n    tag_14:\n      tag_55\n      0x04\n      dup1\n      calldatasize\n      sub\n      dup2\n      add\n      swap1\n      tag_56\n      swap2\n      swap1\n      tag_34\n      jump\t// in\n    tag_56:\n      tag_57\n      jump\t// in\n    tag_55:\n      stop\n        /* \"contracts/Swap.sol\":351:369  string public name */\n    tag_17:\n      0x01\n      dup1\n      sload\n      tag_58\n      swap1\n      tag_59\n      jump\t// in\n    tag_58:\n      dup1\n      0x1f\n      add\n      0x20\n      dup1\n      swap2\n      div\n      mul\n      0x20\n      add\n      mload(0x40)\n      swap1\n      dup2\n      add\n      0x40\n      mstore\n      dup1\n      swap3\n      swap2\n      swap1\n      dup2\n      dup2\n      mstore\n      0x20\n      add\n      dup3\n      dup1\n      sload\n      tag_60\n      swap1\n      tag_59\n      jump\t// in\n    tag_60:\n      dup1\n      iszero\n      tag_61\n      jumpi\n      dup1\n      0x1f\n      lt\n      tag_62\n      jumpi\n      0x0100\n      dup1\n      dup4\n      sload\n      div\n      mul\n      dup4\n      mstore\n      swap2\n      0x20\n      add\n      swap2\n      jump(tag_61)\n    tag_62:\n      dup3\n      add\n      swap2\n      swap1\n      0x00\n      mstore\n      keccak256(0x00, 0x20)\n      swap1\n    tag_63:\n      dup2\n      sload\n      dup2\n      mstore\n      swap1\n      0x01\n      add\n      swap1\n      0x20\n      add\n      dup1\n      dup4\n      gt\n      tag_63\n      jumpi\n      dup3\n      swap1\n      sub\n      0x1f\n      and\n      dup3\n      add\n      swap2\n    tag_61:\n      pop\n      pop\n      pop\n      pop\n      pop\n      dup2\n      jump\t// out\n        /* \"contracts/Swap.sol\":403:424  uint8 public decimals */\n    tag_21:\n      0x03\n      0x00\n      swap1\n      sload\n      swap1\n      0x0100\n      exp\n      swap1\n      div\n      0xff\n      and\n      dup2\n      jump\t// out\n        /* \"contracts/Swap.sol\":674:697  uint256 public slippage */\n    tag_25:\n      sload(0x06)\n      dup2\n      jump\t// out\n        /* \"contracts/Swap.sol\":907:1164  function mint(address account, uint256 amount) public onlyOwner {... */\n    tag_31:\n        /* \"@openzeppelin/contracts/access/Ownable.sol\":1094:1107  _checkOwner() */\n      tag_65\n        /* \"@openzeppelin/contracts/access/Ownable.sol\":1094:1105  _checkOwner */\n      tag_66\n        /* \"@openzeppelin/contracts/access/Ownable.sol\":1094:1107  _checkOwner() */\n      jump\t// in\n    tag_65:\n        /* \"contracts/Swap.sol\":999:1000  0 */\n      0x00\n        /* \"contracts/Swap.sol\":990:996  amount */\n      dup2\n        /* \"contracts/Swap.sol\":990:1000  amount > 0 */\n      gt\n        /* \"contracts/Swap.sol\":982:1041  require(amount > 0, \"Cannot mint zero or negative tokens.\") */\n      tag_68\n      jumpi\n      mload(0x40)\n      0x08c379a000000000000000000000000000000000000000000000000000000000\n      dup2\n      mstore\n      0x04\n      add\n      tag_69\n      swap1\n      tag_70\n      jump\t// in\n    tag_69:\n      mload(0x40)\n      dup1\n      swap2\n      sub\n      swap1\n      revert\n    tag_68:\n        /* \"contracts/Swap.sol\":1073:1103  balanceOf[account].add(amount) */\n      tag_71\n        /* \"contracts/Swap.sol\":1096:1102  amount */\n      dup2\n        /* \"contracts/Swap.sol\":1073:1082  balanceOf */\n      0x04\n        /* \"contracts/Swap.sol\":1073:1091  balanceOf[account] */\n      0x00\n        /* \"contracts/Swap.sol\":1083:1090  account */\n      dup6\n        /* \"contracts/Swap.sol\":1073:1091  balanceOf[account] */\n      0xffffffffffffffffffffffffffffffffffffffff\n      and\n      0xffffffffffffffffffffffffffffffffffffffff\n      and\n      dup2\n      mstore\n      0x20\n      add\n      swap1\n      dup2\n      mstore\n      0x20\n      add\n      0x00\n      keccak256\n      sload\n        /* \"contracts/Swap.sol\":1073:1095  balanceOf[account].add */\n      tag_72\n      swap1\n        /* \"contracts/Swap.sol\":1073:1103  balanceOf[account].add(amount) */\n      swap2\n      swap1\n      0xffffffff\n      and\n      jump\t// in\n    tag_71:\n        /* \"contracts/Swap.sol\":1052:1061  balanceOf */\n      0x04\n        /* \"contracts/Swap.sol\":1052:1070  balanceOf[account] */\n      0x00\n        /* \"contracts/Swap.sol\":1062:1069  account */\n      dup5\n        /* \"contracts/Swap.sol\":1052:1070  balanceOf[account] */\n      0xffffffffffffffffffffffffffffffffffffffff\n      and\n      0xffffffffffffffffffffffffffffffffffffffff\n      and\n      dup2\n      mstore\n      0x20\n      add\n      swap1\n      dup2\n      mstore\n      0x20\n      add\n      0x00\n      keccak256\n        /* \"contracts/Swap.sol\":1052:1103  balanceOf[account] = balanceOf[account].add(amount) */\n      dup2\n      swap1\n      sstore\n      pop\n        /* \"contracts/Swap.sol\":1140:1147  account */\n      dup2\n        /* \"contracts/Swap.sol\":1119:1156  Transfer(address(0), account, amount) */\n      0xffffffffffffffffffffffffffffffffffffffff\n      and\n        /* \"contracts/Swap.sol\":1136:1137  0 */\n      0x00\n        /* \"contracts/Swap.sol\":1119:1156  Transfer(address(0), account, amount) */\n      0xffffffffffffffffffffffffffffffffffffffff\n      and\n      0xddf252ad1be2c89b69c2b068fc378daa952ba7f163c4a11628f55a4df523b3ef\n        /* \"contracts/Swap.sol\":1149:1155  amount */\n      dup4\n        /* \"contracts/Swap.sol\":1119:1156  Transfer(address(0), account, amount) */\n      mload(0x40)\n      tag_73\n      swap2\n      swap1\n      tag_27\n      jump\t// in\n    tag_73:\n      mload(0x40)\n      dup1\n      swap2\n      sub\n      swap1\n      log3\n        /* \"contracts/Swap.sol\":907:1164  function mint(address account, uint256 amount) public onlyOwner {... */\n      pop\n      pop\n      jump\t// out\n        /* \"contracts/Swap.sol\":431:475  mapping(address => uint256) public balanceOf */\n    tag_35:\n      mstore(0x20, 0x04)\n      dup1\n      0x00\n      mstore\n      keccak256(0x00, 0x40)\n      0x00\n      swap2\n      pop\n      swap1\n      pop\n      sload\n      dup2\n      jump\t// out\n        /* \"@openzeppelin/contracts/access/Ownable.sol\":1831:1932  function renounceOwnership() public virtual onlyOwner {... */\n    tag_38:\n        /* \"@openzeppelin/contracts/access/Ownable.sol\":1094:1107  _checkOwner() */\n      tag_75\n        /* \"@openzeppelin/contracts/access/Ownable.sol\":1094:1105  _checkOwner */\n      tag_66\n        /* \"@openzeppelin/contracts/access/Ownable.sol\":1094:1107  _checkOwner() */\n      jump\t// in\n    tag_75:\n        /* \"@openzeppelin/contracts/access/Ownable.sol\":1895:1925  _transferOwnership(address(0)) */\n      tag_77\n        /* \"@openzeppelin/contracts/access/Ownable.sol\":1922:1923  0 */\n      0x00\n        /* \"@openzeppelin/contracts/access/Ownable.sol\":1895:1913  _transferOwnership */\n      tag_78\n        /* \"@openzeppelin/contracts/access/Ownable.sol\":1895:1925  _transferOwnership(address(0)) */\n      jump\t// in\n    tag_77:\n        /* \"@openzeppelin/contracts/access/Ownable.sol\":1831:1932  function renounceOwnership() public virtual onlyOwner {... */\n      jump\t// out\n        /* \"@openzeppelin/contracts/access/Ownable.sol\":1201:1286  function owner() public view virtual returns (address) {... */\n    tag_40:\n        /* \"@openzeppelin/contracts/access/Ownable.sol\":1247:1254  address */\n      0x00\n        /* \"@openzeppelin/contracts/access/Ownable.sol\":1273:1279  _owner */\n      dup1\n      0x00\n      swap1\n      sload\n      swap1\n      0x0100\n      exp\n      swap1\n      div\n      0xffffffffffffffffffffffffffffffffffffffff\n      and\n        /* \"@openzeppelin/contracts/access/Ownable.sol\":1266:1279  return _owner */\n      swap1\n      pop\n        /* \"@openzeppelin/contracts/access/Ownable.sol\":1201:1286  function owner() public view virtual returns (address) {... */\n      swap1\n      jump\t// out\n        /* \"contracts/Swap.sol\":376:396  string public symbol */\n    tag_44:\n      0x02\n      dup1\n      sload\n      tag_80\n      swap1\n      tag_59\n      jump\t// in\n    tag_80:\n      dup1\n      0x1f\n      add\n      0x20\n      dup1\n      swap2\n      div\n      mul\n      0x20\n      add\n      mload(0x40)\n      swap1\n      dup2\n      add\n      0x40\n      mstore\n      dup1\n      swap3\n      swap2\n      swap1\n      dup2\n      dup2\n      mstore\n      0x20\n      add\n      dup3\n      dup1\n      sload\n      tag_81\n      swap1\n      tag_59\n      jump\t// in\n    tag_81:\n      dup1\n      iszero\n      tag_82\n      jumpi\n      dup1\n      0x1f\n      lt\n      tag_83\n      jumpi\n      0x0100\n      dup1\n      dup4\n      sload\n      div\n      mul\n      dup4\n      mstore\n      swap2\n      0x20\n      add\n      swap2\n      jump(tag_82)\n    tag_83:\n      dup3\n      add\n      swap2\n      swap1\n      0x00\n      mstore\n      keccak256(0x00, 0x20)\n      swap1\n    tag_84:\n      dup2\n      sload\n      dup2\n      mstore\n      swap1\n      0x01\n      add\n      swap1\n      0x20\n      add\n      dup1\n      dup4\n      gt\n      tag_84\n      jumpi\n      dup3\n      swap1\n      sub\n      0x1f\n      and\n      dup3\n      add\n      swap2\n    tag_82:\n      pop\n      pop\n      pop\n      pop\n      pop\n      dup2\n      jump\t// out\n        /* \"contracts/Swap.sol\":1196:1454  function burn(address account, uint256 amount) public onlyOwner {... */\n    tag_48:\n        /* \"@openzeppelin/contracts/access/Ownable.sol\":1094:1107  _checkOwner() */\n      tag_86\n        /* \"@openzeppelin/contracts/access/Ownable.sol\":1094:1105  _checkOwner */\n      tag_66\n        /* \"@openzeppelin/contracts/access/Ownable.sol\":1094:1107  _checkOwner() */\n      jump\t// in\n    tag_86:\n        /* \"contracts/Swap.sol\":1301:1307  amount */\n      dup1\n        /* \"contracts/Swap.sol\":1279:1288  balanceOf */\n      0x04\n        /* \"contracts/Swap.sol\":1279:1297  balanceOf[account] */\n      0x00\n        /* \"contracts/Swap.sol\":1289:1296  account */\n      dup5\n        /* \"contracts/Swap.sol\":1279:1297  balanceOf[account] */\n      0xffffffffffffffffffffffffffffffffffffffff\n      and\n      0xffffffffffffffffffffffffffffffffffffffff\n      and\n      dup2\n      mstore\n      0x20\n      add\n      swap1\n      dup2\n      mstore\n      0x20\n      add\n      0x00\n      keccak256\n      sload\n        /* \"contracts/Swap.sol\":1279:1307  balanceOf[account] >= amount */\n      lt\n      iszero\n        /* \"contracts/Swap.sol\":1271:1331  require(balanceOf[account] >= amount, \"Not enough balance.\") */\n      tag_88\n      jumpi\n      mload(0x40)\n      0x08c379a000000000000000000000000000000000000000000000000000000000\n      dup2\n      mstore\n      0x04\n      add\n      tag_89\n      swap1\n      tag_90\n      jump\t// in\n    tag_89:\n      mload(0x40)\n      dup1\n      swap2\n      sub\n      swap1\n      revert\n    tag_88:\n        /* \"contracts/Swap.sol\":1363:1393  balanceOf[account].sub(amount) */\n      tag_91\n        /* \"contracts/Swap.sol\":1386:1392  amount */\n      dup2\n        /* \"contracts/Swap.sol\":1363:1372  balanceOf */\n      0x04\n        /* \"contracts/Swap.sol\":1363:1381  balanceOf[account] */\n      0x00\n        /* \"contracts/Swap.sol\":1373:1380  account */\n      dup6\n        /* \"contracts/Swap.sol\":1363:1381  balanceOf[account] */\n      0xffffffffffffffffffffffffffffffffffffffff\n      and\n      0xffffffffffffffffffffffffffffffffffffffff\n      and\n      dup2\n      mstore\n      0x20\n      add\n      swap1\n      dup2\n      mstore\n      0x20\n      add\n      0x00\n      keccak256\n      sload\n        /* \"contracts/Swap.sol\":1363:1385  balanceOf[account].sub */\n      tag_92\n      swap1\n        /* \"contracts/Swap.sol\":1363:1393  balanceOf[account].sub(amount) */\n      swap2\n      swap1\n      0xffffffff\n      and\n      jump\t// in\n    tag_91:\n        /* \"contracts/Swap.sol\":1342:1351  balanceOf */\n      0x04\n        /* \"contracts/Swap.sol\":1342:1360  balanceOf[account] */\n      0x00\n        /* \"contracts/Swap.sol\":1352:1359  account */\n      dup5\n        /* \"contracts/Swap.sol\":1342:1360  balanceOf[account] */\n      0xffffffffffffffffffffffffffffffffffffffff\n      and\n      0xffffffffffffffffffffffffffffffffffffffff\n      and\n      dup2\n      mstore\n      0x20\n      add\n      swap1\n      dup2\n      mstore\n      0x20\n      add\n      0x00\n      keccak256\n        /* \"contracts/Swap.sol\":1342:1393  balanceOf[account] = balanceOf[account].sub(amount) */\n      dup2\n      swap1\n      sstore\n      pop\n        /* \"contracts/Swap.sol\":1435:1436  0 */\n      0x00\n        /* \"contracts/Swap.sol\":1409:1446  Transfer(account, address(0), amount) */\n      0xffffffffffffffffffffffffffffffffffffffff\n      and\n        /* \"contracts/Swap.sol\":1418:1425  account */\n      dup3\n        /* \"contracts/Swap.sol\":1409:1446  Transfer(account, address(0), amount) */\n      0xffffffffffffffffffffffffffffffffffffffff\n      and\n      0xddf252ad1be2c89b69c2b068fc378daa952ba7f163c4a11628f55a4df523b3ef\n        /* \"contracts/Swap.sol\":1439:1445  amount */\n      dup4\n        /* \"contracts/Swap.sol\":1409:1446  Transfer(account, address(0), amount) */\n      mload(0x40)\n      tag_93\n      swap2\n      swap1\n      tag_27\n      jump\t// in\n    tag_93:\n      mload(0x40)\n      dup1\n      swap2\n      sub\n      swap1\n      log3\n        /* \"contracts/Swap.sol\":1196:1454  function burn(address account, uint256 amount) public onlyOwner {... */\n      pop\n      pop\n      jump\t// out\n        /* \"contracts/Swap.sol\":1483:1959  function transfer(address to, uint256 value) public {... */\n    tag_51:\n        /* \"contracts/Swap.sol\":1579:1610  value.mul(1000).div(1000 + fee) */\n      tag_95\n        /* \"contracts/Swap.sol\":1606:1609  fee */\n      sload(0x05)\n        /* \"contracts/Swap.sol\":1599:1603  1000 */\n      0x03e8\n        /* \"contracts/Swap.sol\":1599:1609  1000 + fee */\n      tag_96\n      swap2\n      swap1\n      tag_97\n      jump\t// in\n    tag_96:\n        /* \"contracts/Swap.sol\":1579:1594  value.mul(1000) */\n      tag_98\n        /* \"contracts/Swap.sol\":1589:1593  1000 */\n      0x03e8\n        /* \"contracts/Swap.sol\":1579:1584  value */\n      dup5\n        /* \"contracts/Swap.sol\":1579:1588  value.mul */\n      tag_99\n      swap1\n        /* \"contracts/Swap.sol\":1579:1594  value.mul(1000) */\n      swap2\n      swap1\n      0xffffffff\n      and\n      jump\t// in\n    tag_98:\n        /* \"contracts/Swap.sol\":1579:1598  value.mul(1000).div */\n      tag_100\n      swap1\n        /* \"contracts/Swap.sol\":1579:1610  value.mul(1000).div(1000 + fee) */\n      swap2\n      swap1\n      0xffffffff\n      and\n      jump\t// in\n    tag_95:\n        /* \"contracts/Swap.sol\":1554:1563  balanceOf */\n      0x04\n        /* \"contracts/Swap.sol\":1554:1575  balanceOf[msg.sender] */\n      0x00\n        /* \"contracts/Swap.sol\":1564:1574  msg.sender */\n      caller\n        /* \"contracts/Swap.sol\":1554:1575  balanceOf[msg.sender] */\n      0xffffffffffffffffffffffffffffffffffffffff\n      and\n      0xffffffffffffffffffffffffffffffffffffffff\n      and\n      dup2\n      mstore\n      0x20\n      add\n      swap1\n      dup2\n      mstore\n      0x20\n      add\n      0x00\n      keccak256\n      sload\n        /* \"contracts/Swap.sol\":1554:1610  balanceOf[msg.sender] >= value.mul(1000).div(1000 + fee) */\n      lt\n      iszero\n        /* \"contracts/Swap.sol\":1546:1634  require(balanceOf[msg.sender] >= value.mul(1000).div(1000 + fee), \"Not enough balance.\") */\n      tag_101\n      jumpi\n      mload(0x40)\n      0x08c379a000000000000000000000000000000000000000000000000000000000\n      dup2\n      mstore\n      0x04\n      add\n      tag_102\n      swap1\n      tag_90\n      jump\t// in\n    tag_102:\n      mload(0x40)\n      dup1\n      swap2\n      sub\n      swap1\n      revert\n    tag_101:\n        /* \"contracts/Swap.sol\":1678:1733  balanceOf[to].add(value).mul(1000 + slippage).div(1000) */\n      tag_103\n        /* \"contracts/Swap.sol\":1728:1732  1000 */\n      0x03e8\n        /* \"contracts/Swap.sol\":1678:1723  balanceOf[to].add(value).mul(1000 + slippage) */\n      tag_104\n        /* \"contracts/Swap.sol\":1714:1722  slippage */\n      sload(0x06)\n        /* \"contracts/Swap.sol\":1707:1711  1000 */\n      0x03e8\n        /* \"contracts/Swap.sol\":1707:1722  1000 + slippage */\n      tag_105\n      swap2\n      swap1\n      tag_97\n      jump\t// in\n    tag_105:\n        /* \"contracts/Swap.sol\":1678:1702  balanceOf[to].add(value) */\n      tag_106\n        /* \"contracts/Swap.sol\":1696:1701  value */\n      dup6\n        /* \"contracts/Swap.sol\":1678:1687  balanceOf */\n      0x04\n        /* \"contracts/Swap.sol\":1678:1691  balanceOf[to] */\n      0x00\n        /* \"contracts/Swap.sol\":1688:1690  to */\n      dup10\n        /* \"contracts/Swap.sol\":1678:1691  balanceOf[to] */\n      0xffffffffffffffffffffffffffffffffffffffff\n      and\n      0xffffffffffffffffffffffffffffffffffffffff\n      and\n      dup2\n      mstore\n      0x20\n      add\n      swap1\n      dup2\n      mstore\n      0x20\n      add\n      0x00\n      keccak256\n      sload\n        /* \"contracts/Swap.sol\":1678:1695  balanceOf[to].add */\n      tag_72\n      swap1\n        /* \"contracts/Swap.sol\":1678:1702  balanceOf[to].add(value) */\n      swap2\n      swap1\n      0xffffffff\n      and\n      jump\t// in\n    tag_106:\n        /* \"contracts/Swap.sol\":1678:1706  balanceOf[to].add(value).mul */\n      tag_99\n      swap1\n        /* \"contracts/Swap.sol\":1678:1723  balanceOf[to].add(value).mul(1000 + slippage) */\n      swap2\n      swap1\n      0xffffffff\n      and\n      jump\t// in\n    tag_104:\n        /* \"contracts/Swap.sol\":1678:1727  balanceOf[to].add(value).mul(1000 + slippage).div */\n      tag_100\n      swap1\n        /* \"contracts/Swap.sol\":1678:1733  balanceOf[to].add(value).mul(1000 + slippage).div(1000) */\n      swap2\n      swap1\n      0xffffffff\n      and\n      jump\t// in\n    tag_103:\n        /* \"contracts/Swap.sol\":1669:1674  value */\n      dup2\n        /* \"contracts/Swap.sol\":1653:1662  balanceOf */\n      0x04\n        /* \"contracts/Swap.sol\":1653:1666  balanceOf[to] */\n      0x00\n        /* \"contracts/Swap.sol\":1663:1665  to */\n      dup6\n        /* \"contracts/Swap.sol\":1653:1666  balanceOf[to] */\n      0xffffffffffffffffffffffffffffffffffffffff\n      and\n      0xffffffffffffffffffffffffffffffffffffffff\n      and\n      dup2\n      mstore\n      0x20\n      add\n      swap1\n      dup2\n      mstore\n      0x20\n      add\n      0x00\n      keccak256\n      sload\n        /* \"contracts/Swap.sol\":1653:1674  balanceOf[to] + value */\n      tag_107\n      swap2\n      swap1\n      tag_97\n      jump\t// in\n    tag_107:\n        /* \"contracts/Swap.sol\":1653:1733  balanceOf[to] + value <= balanceOf[to].add(value).mul(1000 + slippage).div(1000) */\n      gt\n      iszero\n        /* \"contracts/Swap.sol\":1645:1760  require(balanceOf[to] + value <= balanceOf[to].add(value).mul(1000 + slippage).div(1000), \"Exceeds slippage rate.\") */\n      tag_108\n      jumpi\n      mload(0x40)\n      0x08c379a000000000000000000000000000000000000000000000000000000000\n      dup2\n      mstore\n      0x04\n      add\n      tag_109\n      swap1\n      tag_110\n      jump\t// in\n    tag_109:\n      mload(0x40)\n      dup1\n      swap2\n      sub\n      swap1\n      revert\n    tag_108:\n        /* \"contracts/Swap.sol\":1795:1853  balanceOf[msg.sender].sub(value.mul(1000).div(1000 + fee)) */\n      tag_111\n        /* \"contracts/Swap.sol\":1821:1852  value.mul(1000).div(1000 + fee) */\n      tag_112\n        /* \"contracts/Swap.sol\":1848:1851  fee */\n      sload(0x05)\n        /* \"contracts/Swap.sol\":1841:1845  1000 */\n      0x03e8\n        /* \"contracts/Swap.sol\":1841:1851  1000 + fee */\n      tag_113\n      swap2\n      swap1\n      tag_97\n      jump\t// in\n    tag_113:\n        /* \"contracts/Swap.sol\":1821:1836  value.mul(1000) */\n      tag_114\n        /* \"contracts/Swap.sol\":1831:1835  1000 */\n      0x03e8\n        /* \"contracts/Swap.sol\":1821:1826  value */\n      dup6\n        /* \"contracts/Swap.sol\":1821:1830  value.mul */\n      tag_99\n      swap1\n        /* \"contracts/Swap.sol\":1821:1836  value.mul(1000) */\n      swap2\n      swap1\n      0xffffffff\n      and\n      jump\t// in\n    tag_114:\n        /* \"contracts/Swap.sol\":1821:1840  value.mul(1000).div */\n      tag_100\n      swap1\n        /* \"contracts/Swap.sol\":1821:1852  value.mul(1000).div(1000 + fee) */\n      swap2\n      swap1\n      0xffffffff\n      and\n      jump\t// in\n    tag_112:\n        /* \"contracts/Swap.sol\":1795:1804  balanceOf */\n      0x04\n        /* \"contracts/Swap.sol\":1795:1816  balanceOf[msg.sender] */\n      0x00\n        /* \"contracts/Swap.sol\":1805:1815  msg.sender */\n      caller\n        /* \"contracts/Swap.sol\":1795:1816  balanceOf[msg.sender] */\n      0xffffffffffffffffffffffffffffffffffffffff\n      and\n      0xffffffffffffffffffffffffffffffffffffffff\n      and\n      dup2\n      mstore\n      0x20\n      add\n      swap1\n      dup2\n      mstore\n      0x20\n      add\n      0x00\n      keccak256\n      sload\n        /* \"contracts/Swap.sol\":1795:1820  balanceOf[msg.sender].sub */\n      tag_92\n      swap1\n        /* \"contracts/Swap.sol\":1795:1853  balanceOf[msg.sender].sub(value.mul(1000).div(1000 + fee)) */\n      swap2\n      swap1\n      0xffffffff\n      and\n      jump\t// in\n    tag_111:\n        /* \"contracts/Swap.sol\":1771:1780  balanceOf */\n      0x04\n        /* \"contracts/Swap.sol\":1771:1792  balanceOf[msg.sender] */\n      0x00\n        /* \"contracts/Swap.sol\":1781:1791  msg.sender */\n      caller\n        /* \"contracts/Swap.sol\":1771:1792  balanceOf[msg.sender] */\n      0xffffffffffffffffffffffffffffffffffffffff\n      and\n      0xffffffffffffffffffffffffffffffffffffffff\n      and\n      dup2\n      mstore\n      0x20\n      add\n      swap1\n      dup2\n      mstore\n      0x20\n      add\n      0x00\n      keccak256\n        /* \"contracts/Swap.sol\":1771:1853  balanceOf[msg.sender] = balanceOf[msg.sender].sub(value.mul(1000).div(1000 + fee)) */\n      dup2\n      swap1\n      sstore\n      pop\n        /* \"contracts/Swap.sol\":1880:1904  balanceOf[to].add(value) */\n      tag_115\n        /* \"contracts/Swap.sol\":1898:1903  value */\n      dup2\n        /* \"contracts/Swap.sol\":1880:1889  balanceOf */\n      0x04\n        /* \"contracts/Swap.sol\":1880:1893  balanceOf[to] */\n      0x00\n        /* \"contracts/Swap.sol\":1890:1892  to */\n      dup6\n        /* \"contracts/Swap.sol\":1880:1893  balanceOf[to] */\n      0xffffffffffffffffffffffffffffffffffffffff\n      and\n      0xffffffffffffffffffffffffffffffffffffffff\n      and\n      dup2\n      mstore\n      0x20\n      add\n      swap1\n      dup2\n      mstore\n      0x20\n      add\n      0x00\n      keccak256\n      sload\n        /* \"contracts/Swap.sol\":1880:1897  balanceOf[to].add */\n      tag_72\n      swap1\n        /* \"contracts/Swap.sol\":1880:1904  balanceOf[to].add(value) */\n      swap2\n      swap1\n      0xffffffff\n      and\n      jump\t// in\n    tag_115:\n        /* \"contracts/Swap.sol\":1864:1873  balanceOf */\n      0x04\n        /* \"contracts/Swap.sol\":1864:1877  balanceOf[to] */\n      0x00\n        /* \"contracts/Swap.sol\":1874:1876  to */\n      dup5\n        /* \"contracts/Swap.sol\":1864:1877  balanceOf[to] */\n      0xffffffffffffffffffffffffffffffffffffffff\n      and\n      0xffffffffffffffffffffffffffffffffffffffff\n      and\n      dup2\n      mstore\n      0x20\n      add\n      swap1\n      dup2\n      mstore\n      0x20\n      add\n      0x00\n      keccak256\n        /* \"contracts/Swap.sol\":1864:1904  balanceOf[to] = balanceOf[to].add(value) */\n      dup2\n      swap1\n      sstore\n      pop\n        /* \"contracts/Swap.sol\":1941:1943  to */\n      dup2\n        /* \"contracts/Swap.sol\":1920:1951  Transfer(msg.sender, to, value) */\n      0xffffffffffffffffffffffffffffffffffffffff\n      and\n        /* \"contracts/Swap.sol\":1929:1939  msg.sender */\n      caller\n        /* \"contracts/Swap.sol\":1920:1951  Transfer(msg.sender, to, value) */\n      0xffffffffffffffffffffffffffffffffffffffff\n      and\n      0xddf252ad1be2c89b69c2b068fc378daa952ba7f163c4a11628f55a4df523b3ef\n        /* \"contracts/Swap.sol\":1945:1950  value */\n      dup4\n        /* \"contracts/Swap.sol\":1920:1951  Transfer(msg.sender, to, value) */\n      mload(0x40)\n      tag_116\n      swap2\n      swap1\n      tag_27\n      jump\t// in\n    tag_116:\n      mload(0x40)\n      dup1\n      swap2\n      sub\n      swap1\n      log3\n        /* \"contracts/Swap.sol\":1483:1959  function transfer(address to, uint256 value) public {... */\n      pop\n      pop\n      jump\t// out\n        /* \"contracts/Swap.sol\":616:638  uint256 public fee = 3 */\n    tag_53:\n      sload(0x05)\n      dup2\n      jump\t// out\n        /* \"@openzeppelin/contracts/access/Ownable.sol\":2081:2279  function transferOwnership(address newOwner) public virtual onlyOwner {... */\n    tag_57:\n        /* \"@openzeppelin/contracts/access/Ownable.sol\":1094:1107  _checkOwner() */\n      tag_118\n        /* \"@openzeppelin/contracts/access/Ownable.sol\":1094:1105  _checkOwner */\n      tag_66\n        /* \"@openzeppelin/contracts/access/Ownable.sol\":1094:1107  _checkOwner() */\n      jump\t// in\n    tag_118:\n        /* \"@openzeppelin/contracts/access/Ownable.sol\":2189:2190  0 */\n      0x00\n        /* \"@openzeppelin/contracts/access/Ownable.sol\":2169:2191  newOwner != address(0) */\n      0xffffffffffffffffffffffffffffffffffffffff\n      and\n        /* \"@openzeppelin/contracts/access/Ownable.sol\":2169:2177  newOwner */\n      dup2\n        /* \"@openzeppelin/contracts/access/Ownable.sol\":2169:2191  newOwner != address(0) */\n      0xffffffffffffffffffffffffffffffffffffffff\n      and\n      sub\n        /* \"@openzeppelin/contracts/access/Ownable.sol\":2161:2234  require(newOwner != address(0), \"Ownable: new owner is the zero address\") */\n      tag_120\n      jumpi\n      mload(0x40)\n      0x08c379a000000000000000000000000000000000000000000000000000000000\n      dup2\n      mstore\n      0x04\n      add\n      tag_121\n      swap1\n      tag_122\n      jump\t// in\n    tag_121:\n      mload(0x40)\n      dup1\n      swap2\n      sub\n      swap1\n      revert\n    tag_120:\n        /* \"@openzeppelin/contracts/access/Ownable.sol\":2244:2272  _transferOwnership(newOwner) */\n      tag_123\n        /* \"@openzeppelin/contracts/access/Ownable.sol\":2263:2271  newOwner */\n      dup2\n        /* \"@openzeppelin/contracts/access/Ownable.sol\":2244:2262  _transferOwnership */\n      tag_78\n        /* \"@openzeppelin/contracts/access/Ownable.sol\":2244:2272  _transferOwnership(newOwner) */\n      jump\t// in\n    tag_123:\n        /* \"@openzeppelin/contracts/access/Ownable.sol\":2081:2279  function transferOwnership(address newOwner) public virtual onlyOwner {... */\n      pop\n      jump\t// out\n        /* \"@openzeppelin/contracts/access/Ownable.sol\":1359:1489  function _checkOwner() internal view virtual {... */\n    tag_66:\n        /* \"@openzeppelin/contracts/access/Ownable.sol\":1433:1445  _msgSender() */\n      tag_125\n        /* \"@openzeppelin/contracts/access/Ownable.sol\":1433:1443  _msgSender */\n      tag_126\n        /* \"@openzeppelin/contracts/access/Ownable.sol\":1433:1445  _msgSender() */\n      jump\t// in\n    tag_125:\n        /* \"@openzeppelin/contracts/access/Ownable.sol\":1422:1445  owner() == _msgSender() */\n      0xffffffffffffffffffffffffffffffffffffffff\n      and\n        /* \"@openzeppelin/contracts/access/Ownable.sol\":1422:1429  owner() */\n      tag_127\n        /* \"@openzeppelin/contracts/access/Ownable.sol\":1422:1427  owner */\n      tag_40\n        /* \"@openzeppelin/contracts/access/Ownable.sol\":1422:1429  owner() */\n      jump\t// in\n    tag_127:\n        /* \"@openzeppelin/contracts/access/Ownable.sol\":1422:1445  owner() == _msgSender() */\n      0xffffffffffffffffffffffffffffffffffffffff\n      and\n      eq\n        /* \"@openzeppelin/contracts/access/Ownable.sol\":1414:1482  require(owner() == _msgSender(), \"Ownable: caller is not the owner\") */\n      tag_128\n      jumpi\n      mload(0x40)\n      0x08c379a000000000000000000000000000000000000000000000000000000000\n      dup2\n      mstore\n      0x04\n      add\n      tag_129\n      swap1\n      tag_130\n      jump\t// in\n    tag_129:\n      mload(0x40)\n      dup1\n      swap2\n      sub\n      swap1\n      revert\n    tag_128:\n        /* \"@openzeppelin/contracts/access/Ownable.sol\":1359:1489  function _checkOwner() internal view virtual {... */\n      jump\t// out\n        /* \"@openzeppelin/contracts/utils/math/SafeMath.sol\":2755:2851  function add(uint256 a, uint256 b) internal pure returns (uint256) {... */\n    tag_72:\n        /* \"@openzeppelin/contracts/utils/math/SafeMath.sol\":2813:2820  uint256 */\n      0x00\n        /* \"@openzeppelin/contracts/utils/math/SafeMath.sol\":2843:2844  b */\n      dup2\n        /* \"@openzeppelin/contracts/utils/math/SafeMath.sol\":2839:2840  a */\n      dup4\n        /* \"@openzeppelin/contracts/utils/math/SafeMath.sol\":2839:2844  a + b */\n      tag_132\n      swap2\n      swap1\n      tag_97\n      jump\t// in\n    tag_132:\n        /* \"@openzeppelin/contracts/utils/math/SafeMath.sol\":2832:2844  return a + b */\n      swap1\n      pop\n        /* \"@openzeppelin/contracts/utils/math/SafeMath.sol\":2755:2851  function add(uint256 a, uint256 b) internal pure returns (uint256) {... */\n      swap3\n      swap2\n      pop\n      pop\n      jump\t// out\n        /* \"@openzeppelin/contracts/access/Ownable.sol\":2433:2620  function _transferOwnership(address newOwner) internal virtual {... */\n    tag_78:\n        /* \"@openzeppelin/contracts/access/Ownable.sol\":2506:2522  address oldOwner */\n      0x00\n        /* \"@openzeppelin/contracts/access/Ownable.sol\":2525:2531  _owner */\n      dup1\n      0x00\n      swap1\n      sload\n      swap1\n      0x0100\n      exp\n      swap1\n      div\n      0xffffffffffffffffffffffffffffffffffffffff\n      and\n        /* \"@openzeppelin/contracts/access/Ownable.sol\":2506:2531  address oldOwner = _owner */\n      swap1\n      pop\n        /* \"@openzeppelin/contracts/access/Ownable.sol\":2550:2558  newOwner */\n      dup2\n        /* \"@openzeppelin/contracts/access/Ownable.sol\":2541:2547  _owner */\n      0x00\n      dup1\n        /* \"@openzeppelin/contracts/access/Ownable.sol\":2541:2558  _owner = newOwner */\n      0x0100\n      exp\n      dup2\n      sload\n      dup2\n      0xffffffffffffffffffffffffffffffffffffffff\n      mul\n      not\n      and\n      swap1\n      dup4\n      0xffffffffffffffffffffffffffffffffffffffff\n      and\n      mul\n      or\n      swap1\n      sstore\n      pop\n        /* \"@openzeppelin/contracts/access/Ownable.sol\":2604:2612  newOwner */\n      dup2\n        /* \"@openzeppelin/contracts/access/Ownable.sol\":2573:2613  OwnershipTransferred(oldOwner, newOwner) */\n      0xffffffffffffffffffffffffffffffffffffffff\n      and\n        /* \"@openzeppelin/contracts/access/Ownable.sol\":2594:2602  oldOwner */\n      dup2\n        /* \"@openzeppelin/contracts/access/Ownable.sol\":2573:2613  OwnershipTransferred(oldOwner, newOwner) */\n      0xffffffffffffffffffffffffffffffffffffffff\n      and\n      0x8be0079c531659141344cd1fd0a4f28419497f9722a3daafe3b4186f6b6457e0\n      mload(0x40)\n      mload(0x40)\n      dup1\n      swap2\n      sub\n      swap1\n      log3\n        /* \"@openzeppelin/contracts/access/Ownable.sol\":2496:2620  {... */\n      pop\n        /* \"@openzeppelin/contracts/access/Ownable.sol\":2433:2620  function _transferOwnership(address newOwner) internal virtual {... */\n      pop\n      jump\t// out\n        /* \"@openzeppelin/contracts/utils/math/SafeMath.sol\":3122:3218  function sub(uint256 a, uint256 b) internal pure returns (uint256) {... */\n    tag_92:\n        /* \"@openzeppelin/contracts/utils/math/SafeMath.sol\":3180:3187  uint256 */\n      0x00\n        /* \"@openzeppelin/contracts/utils/math/SafeMath.sol\":3210:3211  b */\n      dup2\n        /* \"@openzeppelin/contracts/utils/math/SafeMath.sol\":3206:3207  a */\n      dup4\n        /* \"@openzeppelin/contracts/utils/math/SafeMath.sol\":3206:3211  a - b */\n      tag_135\n      swap2\n      swap1\n      tag_136\n      jump\t// in\n    tag_135:\n        /* \"@openzeppelin/contracts/utils/math/SafeMath.sol\":3199:3211  return a - b */\n      swap1\n      pop\n        /* \"@openzeppelin/contracts/utils/math/SafeMath.sol\":3122:3218  function sub(uint256 a, uint256 b) internal pure returns (uint256) {... */\n      swap3\n      swap2\n      pop\n      pop\n      jump\t// out\n        /* \"@openzeppelin/contracts/utils/math/SafeMath.sol\":3465:3561  function mul(uint256 a, uint256 b) internal pure returns (uint256) {... */\n    tag_99:\n        /* \"@openzeppelin/contracts/utils/math/SafeMath.sol\":3523:3530  uint256 */\n      0x00\n        /* \"@openzeppelin/contracts/utils/math/SafeMath.sol\":3553:3554  b */\n      dup2\n        /* \"@openzeppelin/contracts/utils/math/SafeMath.sol\":3549:3550  a */\n      dup4\n        /* \"@openzeppelin/contracts/utils/math/SafeMath.sol\":3549:3554  a * b */\n      tag_138\n      swap2\n      swap1\n      tag_139\n      jump\t// in\n    tag_138:\n        /* \"@openzeppelin/contracts/utils/math/SafeMath.sol\":3542:3554  return a * b */\n      swap1\n      pop\n        /* \"@openzeppelin/contracts/utils/math/SafeMath.sol\":3465:3561  function mul(uint256 a, uint256 b) internal pure returns (uint256) {... */\n      swap3\n      swap2\n      pop\n      pop\n      jump\t// out\n        /* \"@openzeppelin/contracts/utils/math/SafeMath.sol\":3850:3946  function div(uint256 a, uint256 b) internal pure returns (uint256) {... */\n    tag_100:\n        /* \"@openzeppelin/contracts/utils/math/SafeMath.sol\":3908:3915  uint256 */\n      0x00\n        /* \"@openzeppelin/contracts/utils/math/SafeMath.sol\":3938:3939  b */\n      dup2\n        /* \"@openzeppelin/contracts/utils/math/SafeMath.sol\":3934:3935  a */\n      dup4\n        /* \"@openzeppelin/contracts/utils/math/SafeMath.sol\":3934:3939  a / b */\n      tag_141\n      swap2\n      swap1\n      tag_142\n      jump\t// in\n    tag_141:\n        /* \"@openzeppelin/contracts/utils/math/SafeMath.sol\":3927:3939  return a / b */\n      swap1\n      pop\n        /* \"@openzeppelin/contracts/utils/math/SafeMath.sol\":3850:3946  function div(uint256 a, uint256 b) internal pure returns (uint256) {... */\n      swap3\n      swap2\n      pop\n      pop\n      jump\t// out\n        /* \"@openzeppelin/contracts/utils/Context.sol\":640:736  function _msgSender() internal view virtual returns (address) {... */\n    tag_126:\n        /* \"@openzeppelin/contracts/utils/Context.sol\":693:700  address */\n      0x00\n        /* \"@openzeppelin/contracts/utils/Context.sol\":719:729  msg.sender */\n      caller\n        /* \"@openzeppelin/contracts/utils/Context.sol\":712:729  return msg.sender */\n      swap1\n      pop\n        /* \"@openzeppelin/contracts/utils/Context.sol\":640:736  function _msgSender() internal view virtual returns (address) {... */\n      swap1\n      jump\t// out\n        /* \"#utility.yul\":7:106   */\n    tag_144:\n        /* \"#utility.yul\":59:65   */\n      0x00\n        /* \"#utility.yul\":93:98   */\n      dup2\n        /* \"#utility.yul\":87:99   */\n      mload\n        /* \"#utility.yul\":77:99   */\n      swap1\n      pop\n        /* \"#utility.yul\":7:106   */\n      swap2\n      swap1\n      pop\n      jump\t// out\n        /* \"#utility.yul\":112:281   */\n    tag_145:\n        /* \"#utility.yul\":196:207   */\n      0x00\n        /* \"#utility.yul\":230:236   */\n      dup3\n        /* \"#utility.yul\":225:228   */\n      dup3\n        /* \"#utility.yul\":218:237   */\n      mstore\n        /* \"#utility.yul\":270:274   */\n      0x20\n        /* \"#utility.yul\":265:268   */\n      dup3\n        /* \"#utility.yul\":261:275   */\n      add\n        /* \"#utility.yul\":246:275   */\n      swap1\n      pop\n        /* \"#utility.yul\":112:281   */\n      swap3\n      swap2\n      pop\n      pop\n      jump\t// out\n        /* \"#utility.yul\":287:533   */\n    tag_146:\n        /* \"#utility.yul\":368:369   */\n      0x00\n        /* \"#utility.yul\":378:491   */\n    tag_180:\n        /* \"#utility.yul\":392:398   */\n      dup4\n        /* \"#utility.yul\":389:390   */\n      dup2\n        /* \"#utility.yul\":386:399   */\n      lt\n        /* \"#utility.yul\":378:491   */\n      iszero\n      tag_182\n      jumpi\n        /* \"#utility.yul\":477:478   */\n      dup1\n        /* \"#utility.yul\":472:475   */\n      dup3\n        /* \"#utility.yul\":468:479   */\n      add\n        /* \"#utility.yul\":462:480   */\n      mload\n        /* \"#utility.yul\":458:459   */\n      dup2\n        /* \"#utility.yul\":453:456   */\n      dup5\n        /* \"#utility.yul\":449:460   */\n      add\n        /* \"#utility.yul\":442:481   */\n      mstore\n        /* \"#utility.yul\":414:416   */\n      0x20\n        /* \"#utility.yul\":411:412   */\n      dup2\n        /* \"#utility.yul\":407:417   */\n      add\n        /* \"#utility.yul\":402:417   */\n      swap1\n      pop\n        /* \"#utility.yul\":378:491   */\n      jump(tag_180)\n    tag_182:\n        /* \"#utility.yul\":525:526   */\n      0x00\n        /* \"#utility.yul\":516:522   */\n      dup5\n        /* \"#utility.yul\":511:514   */\n      dup5\n        /* \"#utility.yul\":507:523   */\n      add\n        /* \"#utility.yul\":500:527   */\n      mstore\n        /* \"#utility.yul\":349:533   */\n      pop\n        /* \"#utility.yul\":287:533   */\n      pop\n      pop\n      pop\n      jump\t// out\n        /* \"#utility.yul\":539:641   */\n    tag_147:\n        /* \"#utility.yul\":580:586   */\n      0x00\n        /* \"#utility.yul\":631:633   */\n      0x1f\n        /* \"#utility.yul\":627:634   */\n      not\n        /* \"#utility.yul\":622:624   */\n      0x1f\n        /* \"#utility.yul\":615:620   */\n      dup4\n        /* \"#utility.yul\":611:625   */\n      add\n        /* \"#utility.yul\":607:635   */\n      and\n        /* \"#utility.yul\":597:635   */\n      swap1\n      pop\n        /* \"#utility.yul\":539:641   */\n      swap2\n      swap1\n      pop\n      jump\t// out\n        /* \"#utility.yul\":647:1024   */\n    tag_148:\n        /* \"#utility.yul\":735:738   */\n      0x00\n        /* \"#utility.yul\":763:802   */\n      tag_185\n        /* \"#utility.yul\":796:801   */\n      dup3\n        /* \"#utility.yul\":763:802   */\n      tag_144\n      jump\t// in\n    tag_185:\n        /* \"#utility.yul\":818:889   */\n      tag_186\n        /* \"#utility.yul\":882:888   */\n      dup2\n        /* \"#utility.yul\":877:880   */\n      dup6\n        /* \"#utility.yul\":818:889   */\n      tag_145\n      jump\t// in\n    tag_186:\n        /* \"#utility.yul\":811:889   */\n      swap4\n      pop\n        /* \"#utility.yul\":898:963   */\n      tag_187\n        /* \"#utility.yul\":956:962   */\n      dup2\n        /* \"#utility.yul\":951:954   */\n      dup6\n        /* \"#utility.yul\":944:948   */\n      0x20\n        /* \"#utility.yul\":937:942   */\n      dup7\n        /* \"#utility.yul\":933:949   */\n      add\n        /* \"#utility.yul\":898:963   */\n      tag_146\n      jump\t// in\n    tag_187:\n        /* \"#utility.yul\":988:1017   */\n      tag_188\n        /* \"#utility.yul\":1010:1016   */\n      dup2\n        /* \"#utility.yul\":988:1017   */\n      tag_147\n      jump\t// in\n    tag_188:\n        /* \"#utility.yul\":983:986   */\n      dup5\n        /* \"#utility.yul\":979:1018   */\n      add\n        /* \"#utility.yul\":972:1018   */\n      swap2\n      pop\n        /* \"#utility.yul\":739:1024   */\n      pop\n        /* \"#utility.yul\":647:1024   */\n      swap3\n      swap2\n      pop\n      pop\n      jump\t// out\n        /* \"#utility.yul\":1030:1343   */\n    tag_19:\n        /* \"#utility.yul\":1143:1147   */\n      0x00\n        /* \"#utility.yul\":1181:1183   */\n      0x20\n        /* \"#utility.yul\":1170:1179   */\n      dup3\n        /* \"#utility.yul\":1166:1184   */\n      add\n        /* \"#utility.yul\":1158:1184   */\n      swap1\n      pop\n        /* \"#utility.yul\":1230:1239   */\n      dup2\n        /* \"#utility.yul\":1224:1228   */\n      dup2\n        /* \"#utility.yul\":1220:1240   */\n      sub\n        /* \"#utility.yul\":1216:1217   */\n      0x00\n        /* \"#utility.yul\":1205:1214   */\n      dup4\n        /* \"#utility.yul\":1201:1218   */\n      add\n        /* \"#utility.yul\":1194:1241   */\n      mstore\n        /* \"#utility.yul\":1258:1336   */\n      tag_190\n        /* \"#utility.yul\":1331:1335   */\n      dup2\n        /* \"#utility.yul\":1322:1328   */\n      dup5\n        /* \"#utility.yul\":1258:1336   */\n      tag_148\n      jump\t// in\n    tag_190:\n        /* \"#utility.yul\":1250:1336   */\n      swap1\n      pop\n        /* \"#utility.yul\":1030:1343   */\n      swap3\n      swap2\n      pop\n      pop\n      jump\t// out\n        /* \"#utility.yul\":1349:1435   */\n    tag_149:\n        /* \"#utility.yul\":1384:1391   */\n      0x00\n        /* \"#utility.yul\":1424:1428   */\n      0xff\n        /* \"#utility.yul\":1417:1422   */\n      dup3\n        /* \"#utility.yul\":1413:1429   */\n      and\n        /* \"#utility.yul\":1402:1429   */\n      swap1\n      pop\n        /* \"#utility.yul\":1349:1435   */\n      swap2\n      swap1\n      pop\n      jump\t// out\n        /* \"#utility.yul\":1441:1553   */\n    tag_150:\n        /* \"#utility.yul\":1524:1546   */\n      tag_193\n        /* \"#utility.yul\":1540:1545   */\n      dup2\n        /* \"#utility.yul\":1524:1546   */\n      tag_149\n      jump\t// in\n    tag_193:\n        /* \"#utility.yul\":1519:1522   */\n      dup3\n        /* \"#utility.yul\":1512:1547   */\n      mstore\n        /* \"#utility.yul\":1441:1553   */\n      pop\n      pop\n      jump\t// out\n        /* \"#utility.yul\":1559:1773   */\n    tag_23:\n        /* \"#utility.yul\":1648:1652   */\n      0x00\n        /* \"#utility.yul\":1686:1688   */\n      0x20\n        /* \"#utility.yul\":1675:1684   */\n      dup3\n        /* \"#utility.yul\":1671:1689   */\n      add\n        /* \"#utility.yul\":1663:1689   */\n      swap1\n      pop\n        /* \"#utility.yul\":1699:1766   */\n      tag_195\n        /* \"#utility.yul\":1763:1764   */\n      0x00\n        /* \"#utility.yul\":1752:1761   */\n      dup4\n        /* \"#utility.yul\":1748:1765   */\n      add\n        /* \"#utility.yul\":1739:1745   */\n      dup5\n        /* \"#utility.yul\":1699:1766   */\n      tag_150\n      jump\t// in\n    tag_195:\n        /* \"#utility.yul\":1559:1773   */\n      swap3\n      swap2\n      pop\n      pop\n      jump\t// out\n        /* \"#utility.yul\":1779:1856   */\n    tag_151:\n        /* \"#utility.yul\":1816:1823   */\n      0x00\n        /* \"#utility.yul\":1845:1850   */\n      dup2\n        /* \"#utility.yul\":1834:1850   */\n      swap1\n      pop\n        /* \"#utility.yul\":1779:1856   */\n      swap2\n      swap1\n      pop\n      jump\t// out\n        /* \"#utility.yul\":1862:1980   */\n    tag_152:\n        /* \"#utility.yul\":1949:1973   */\n      tag_198\n        /* \"#utility.yul\":1967:1972   */\n      dup2\n        /* \"#utility.yul\":1949:1973   */\n      tag_151\n      jump\t// in\n    tag_198:\n        /* \"#utility.yul\":1944:1947   */\n      dup3\n        /* \"#utility.yul\":1937:1974   */\n      mstore\n        /* \"#utility.yul\":1862:1980   */\n      pop\n      pop\n      jump\t// out\n        /* \"#utility.yul\":1986:2208   */\n    tag_27:\n        /* \"#utility.yul\":2079:2083   */\n      0x00\n        /* \"#utility.yul\":2117:2119   */\n      0x20\n        /* \"#utility.yul\":2106:2115   */\n      dup3\n        /* \"#utility.yul\":2102:2120   */\n      add\n        /* \"#utility.yul\":2094:2120   */\n      swap1\n      pop\n        /* \"#utility.yul\":2130:2201   */\n      tag_200\n        /* \"#utility.yul\":2198:2199   */\n      0x00\n        /* \"#utility.yul\":2187:2196   */\n      dup4\n        /* \"#utility.yul\":2183:2200   */\n      add\n        /* \"#utility.yul\":2174:2180   */\n      dup5\n        /* \"#utility.yul\":2130:2201   */\n      tag_152\n      jump\t// in\n    tag_200:\n        /* \"#utility.yul\":1986:2208   */\n      swap3\n      swap2\n      pop\n      pop\n      jump\t// out\n        /* \"#utility.yul\":2295:2412   */\n    tag_154:\n        /* \"#utility.yul\":2404:2405   */\n      0x00\n        /* \"#utility.yul\":2401:2402   */\n      dup1\n        /* \"#utility.yul\":2394:2406   */\n      revert\n        /* \"#utility.yul\":2541:2667   */\n    tag_156:\n        /* \"#utility.yul\":2578:2585   */\n      0x00\n        /* \"#utility.yul\":2618:2660   */\n      0xffffffffffffffffffffffffffffffffffffffff\n        /* \"#utility.yul\":2611:2616   */\n      dup3\n        /* \"#utility.yul\":2607:2661   */\n      and\n        /* \"#utility.yul\":2596:2661   */\n      swap1\n      pop\n        /* \"#utility.yul\":2541:2667   */\n      swap2\n      swap1\n      pop\n      jump\t// out\n        /* \"#utility.yul\":2673:2769   */\n    tag_157:\n        /* \"#utility.yul\":2710:2717   */\n      0x00\n        /* \"#utility.yul\":2739:2763   */\n      tag_206\n        /* \"#utility.yul\":2757:2762   */\n      dup3\n        /* \"#utility.yul\":2739:2763   */\n      tag_156\n      jump\t// in\n    tag_206:\n        /* \"#utility.yul\":2728:2763   */\n      swap1\n      pop\n        /* \"#utility.yul\":2673:2769   */\n      swap2\n      swap1\n      pop\n      jump\t// out\n        /* \"#utility.yul\":2775:2897   */\n    tag_158:\n        /* \"#utility.yul\":2848:2872   */\n      tag_208\n        /* \"#utility.yul\":2866:2871   */\n      dup2\n        /* \"#utility.yul\":2848:2872   */\n      tag_157\n      jump\t// in\n    tag_208:\n        /* \"#utility.yul\":2841:2846   */\n      dup2\n        /* \"#utility.yul\":2838:2873   */\n      eq\n        /* \"#utility.yul\":2828:2891   */\n      tag_209\n      jumpi\n        /* \"#utility.yul\":2887:2888   */\n      0x00\n        /* \"#utility.yul\":2884:2885   */\n      dup1\n        /* \"#utility.yul\":2877:2889   */\n      revert\n        /* \"#utility.yul\":2828:2891   */\n    tag_209:\n        /* \"#utility.yul\":2775:2897   */\n      pop\n      jump\t// out\n        /* \"#utility.yul\":2903:3042   */\n    tag_159:\n        /* \"#utility.yul\":2949:2954   */\n      0x00\n        /* \"#utility.yul\":2987:2993   */\n      dup2\n        /* \"#utility.yul\":2974:2994   */\n      calldataload\n        /* \"#utility.yul\":2965:2994   */\n      swap1\n      pop\n        /* \"#utility.yul\":3003:3036   */\n      tag_211\n        /* \"#utility.yul\":3030:3035   */\n      dup2\n        /* \"#utility.yul\":3003:3036   */\n      tag_158\n      jump\t// in\n    tag_211:\n        /* \"#utility.yul\":2903:3042   */\n      swap3\n      swap2\n      pop\n      pop\n      jump\t// out\n        /* \"#utility.yul\":3048:3170   */\n    tag_160:\n        /* \"#utility.yul\":3121:3145   */\n      tag_213\n        /* \"#utility.yul\":3139:3144   */\n      dup2\n        /* \"#utility.yul\":3121:3145   */\n      tag_151\n      jump\t// in\n    tag_213:\n        /* \"#utility.yul\":3114:3119   */\n      dup2\n        /* \"#utility.yul\":3111:3146   */\n      eq\n        /* \"#utility.yul\":3101:3164   */\n      tag_214\n      jumpi\n        /* \"#utility.yul\":3160:3161   */\n      0x00\n        /* \"#utility.yul\":3157:3158   */\n      dup1\n        /* \"#utility.yul\":3150:3162   */\n      revert\n        /* \"#utility.yul\":3101:3164   */\n    tag_214:\n        /* \"#utility.yul\":3048:3170   */\n      pop\n      jump\t// out\n        /* \"#utility.yul\":3176:3315   */\n    tag_161:\n        /* \"#utility.yul\":3222:3227   */\n      0x00\n        /* \"#utility.yul\":3260:3266   */\n      dup2\n        /* \"#utility.yul\":3247:3267   */\n      calldataload\n        /* \"#utility.yul\":3238:3267   */\n      swap1\n      pop\n        /* \"#utility.yul\":3276:3309   */\n      tag_216\n        /* \"#utility.yul\":3303:3308   */\n      dup2\n        /* \"#utility.yul\":3276:3309   */\n      tag_160\n      jump\t// in\n    tag_216:\n        /* \"#utility.yul\":3176:3315   */\n      swap3\n      swap2\n      pop\n      pop\n      jump\t// out\n        /* \"#utility.yul\":3321:3795   */\n    tag_30:\n        /* \"#utility.yul\":3389:3395   */\n      0x00\n        /* \"#utility.yul\":3397:3403   */\n      dup1\n        /* \"#utility.yul\":3446:3448   */\n      0x40\n        /* \"#utility.yul\":3434:3443   */\n      dup4\n        /* \"#utility.yul\":3425:3432   */\n      dup6\n        /* \"#utility.yul\":3421:3444   */\n      sub\n        /* \"#utility.yul\":3417:3449   */\n      slt\n        /* \"#utility.yul\":3414:3533   */\n      iszero\n      tag_218\n      jumpi\n        /* \"#utility.yul\":3452:3531   */\n      tag_219\n      tag_154\n      jump\t// in\n    tag_219:\n        /* \"#utility.yul\":3414:3533   */\n    tag_218:\n        /* \"#utility.yul\":3572:3573   */\n      0x00\n        /* \"#utility.yul\":3597:3650   */\n      tag_220\n        /* \"#utility.yul\":3642:3649   */\n      dup6\n        /* \"#utility.yul\":3633:3639   */\n      dup3\n        /* \"#utility.yul\":3622:3631   */\n      dup7\n        /* \"#utility.yul\":3618:3640   */\n      add\n        /* \"#utility.yul\":3597:3650   */\n      tag_159\n      jump\t// in\n    tag_220:\n        /* \"#utility.yul\":3587:3650   */\n      swap3\n      pop\n        /* \"#utility.yul\":3543:3660   */\n      pop\n        /* \"#utility.yul\":3699:3701   */\n      0x20\n        /* \"#utility.yul\":3725:3778   */\n      tag_221\n        /* \"#utility.yul\":3770:3777   */\n      dup6\n        /* \"#utility.yul\":3761:3767   */\n      dup3\n        /* \"#utility.yul\":3750:3759   */\n      dup7\n        /* \"#utility.yul\":3746:3768   */\n      add\n        /* \"#utility.yul\":3725:3778   */\n      tag_161\n      jump\t// in\n    tag_221:\n        /* \"#utility.yul\":3715:3778   */\n      swap2\n      pop\n        /* \"#utility.yul\":3670:3788   */\n      pop\n        /* \"#utility.yul\":3321:3795   */\n      swap3\n      pop\n      swap3\n      swap1\n      pop\n      jump\t// out\n        /* \"#utility.yul\":3801:4130   */\n    tag_34:\n        /* \"#utility.yul\":3860:3866   */\n      0x00\n        /* \"#utility.yul\":3909:3911   */\n      0x20\n        /* \"#utility.yul\":3897:3906   */\n      dup3\n        /* \"#utility.yul\":3888:3895   */\n      dup5\n        /* \"#utility.yul\":3884:3907   */\n      sub\n        /* \"#utility.yul\":3880:3912   */\n      slt\n        /* \"#utility.yul\":3877:3996   */\n      iszero\n      tag_223\n      jumpi\n        /* \"#utility.yul\":3915:3994   */\n      tag_224\n      tag_154\n      jump\t// in\n    tag_224:\n        /* \"#utility.yul\":3877:3996   */\n    tag_223:\n        /* \"#utility.yul\":4035:4036   */\n      0x00\n        /* \"#utility.yul\":4060:4113   */\n      tag_225\n        /* \"#utility.yul\":4105:4112   */\n      dup5\n        /* \"#utility.yul\":4096:4102   */\n      dup3\n        /* \"#utility.yul\":4085:4094   */\n      dup6\n        /* \"#utility.yul\":4081:4103   */\n      add\n        /* \"#utility.yul\":4060:4113   */\n      tag_159\n      jump\t// in\n    tag_225:\n        /* \"#utility.yul\":4050:4113   */\n      swap2\n      pop\n        /* \"#utility.yul\":4006:4123   */\n      pop\n        /* \"#utility.yul\":3801:4130   */\n      swap3\n      swap2\n      pop\n      pop\n      jump\t// out\n        /* \"#utility.yul\":4136:4254   */\n    tag_162:\n        /* \"#utility.yul\":4223:4247   */\n      tag_227\n        /* \"#utility.yul\":4241:4246   */\n      dup2\n        /* \"#utility.yul\":4223:4247   */\n      tag_157\n      jump\t// in\n    tag_227:\n        /* \"#utility.yul\":4218:4221   */\n      dup3\n        /* \"#utility.yul\":4211:4248   */\n      mstore\n        /* \"#utility.yul\":4136:4254   */\n      pop\n      pop\n      jump\t// out\n        /* \"#utility.yul\":4260:4482   */\n    tag_42:\n        /* \"#utility.yul\":4353:4357   */\n      0x00\n        /* \"#utility.yul\":4391:4393   */\n      0x20\n        /* \"#utility.yul\":4380:4389   */\n      dup3\n        /* \"#utility.yul\":4376:4394   */\n      add\n        /* \"#utility.yul\":4368:4394   */\n      swap1\n      pop\n        /* \"#utility.yul\":4404:4475   */\n      tag_229\n        /* \"#utility.yul\":4472:4473   */\n      0x00\n        /* \"#utility.yul\":4461:4470   */\n      dup4\n        /* \"#utility.yul\":4457:4474   */\n      add\n        /* \"#utility.yul\":4448:4454   */\n      dup5\n        /* \"#utility.yul\":4404:4475   */\n      tag_162\n      jump\t// in\n    tag_229:\n        /* \"#utility.yul\":4260:4482   */\n      swap3\n      swap2\n      pop\n      pop\n      jump\t// out\n        /* \"#utility.yul\":4488:4668   */\n    tag_163:\n        /* \"#utility.yul\":4536:4613   */\n      0x4e487b7100000000000000000000000000000000000000000000000000000000\n        /* \"#utility.yul\":4533:4534   */\n      0x00\n        /* \"#utility.yul\":4526:4614   */\n      mstore\n        /* \"#utility.yul\":4633:4637   */\n      0x22\n        /* \"#utility.yul\":4630:4631   */\n      0x04\n        /* \"#utility.yul\":4623:4638   */\n      mstore\n        /* \"#utility.yul\":4657:4661   */\n      0x24\n        /* \"#utility.yul\":4654:4655   */\n      0x00\n        /* \"#utility.yul\":4647:4662   */\n      revert\n        /* \"#utility.yul\":4674:4994   */\n    tag_59:\n        /* \"#utility.yul\":4718:4724   */\n      0x00\n        /* \"#utility.yul\":4755:4756   */\n      0x02\n        /* \"#utility.yul\":4749:4753   */\n      dup3\n        /* \"#utility.yul\":4745:4757   */\n      div\n        /* \"#utility.yul\":4735:4757   */\n      swap1\n      pop\n        /* \"#utility.yul\":4802:4803   */\n      0x01\n        /* \"#utility.yul\":4796:4800   */\n      dup3\n        /* \"#utility.yul\":4792:4804   */\n      and\n        /* \"#utility.yul\":4823:4841   */\n      dup1\n        /* \"#utility.yul\":4813:4894   */\n      tag_232\n      jumpi\n        /* \"#utility.yul\":4879:4883   */\n      0x7f\n        /* \"#utility.yul\":4871:4877   */\n      dup3\n        /* \"#utility.yul\":4867:4884   */\n      and\n        /* \"#utility.yul\":4857:4884   */\n      swap2\n      pop\n        /* \"#utility.yul\":4813:4894   */\n    tag_232:\n        /* \"#utility.yul\":4941:4943   */\n      0x20\n        /* \"#utility.yul\":4933:4939   */\n      dup3\n        /* \"#utility.yul\":4930:4944   */\n      lt\n        /* \"#utility.yul\":4910:4928   */\n      dup2\n        /* \"#utility.yul\":4907:4945   */\n      sub\n        /* \"#utility.yul\":4904:4988   */\n      tag_233\n      jumpi\n        /* \"#utility.yul\":4960:4978   */\n      tag_234\n      tag_163\n      jump\t// in\n    tag_234:\n        /* \"#utility.yul\":4904:4988   */\n    tag_233:\n        /* \"#utility.yul\":4725:4994   */\n      pop\n        /* \"#utility.yul\":4674:4994   */\n      swap2\n      swap1\n      pop\n      jump\t// out\n        /* \"#utility.yul\":5000:5223   */\n    tag_164:\n        /* \"#utility.yul\":5140:5174   */\n      0x43616e6e6f74206d696e74207a65726f206f72206e6567617469766520746f6b\n        /* \"#utility.yul\":5136:5137   */\n      0x00\n        /* \"#utility.yul\":5128:5134   */\n      dup3\n        /* \"#utility.yul\":5124:5138   */\n      add\n        /* \"#utility.yul\":5117:5175   */\n      mstore\n        /* \"#utility.yul\":5209:5215   */\n      0x656e732e00000000000000000000000000000000000000000000000000000000\n        /* \"#utility.yul\":5204:5206   */\n      0x20\n        /* \"#utility.yul\":5196:5202   */\n      dup3\n        /* \"#utility.yul\":5192:5207   */\n      add\n        /* \"#utility.yul\":5185:5216   */\n      mstore\n        /* \"#utility.yul\":5000:5223   */\n      pop\n      jump\t// out\n        /* \"#utility.yul\":5229:5595   */\n    tag_165:\n        /* \"#utility.yul\":5371:5374   */\n      0x00\n        /* \"#utility.yul\":5392:5459   */\n      tag_237\n        /* \"#utility.yul\":5456:5458   */\n      0x24\n        /* \"#utility.yul\":5451:5454   */\n      dup4\n        /* \"#utility.yul\":5392:5459   */\n      tag_145\n      jump\t// in\n    tag_237:\n        /* \"#utility.yul\":5385:5459   */\n      swap2\n      pop\n        /* \"#utility.yul\":5468:5561   */\n      tag_238\n        /* \"#utility.yul\":5557:5560   */\n      dup3\n        /* \"#utility.yul\":5468:5561   */\n      tag_164\n      jump\t// in\n    tag_238:\n        /* \"#utility.yul\":5586:5588   */\n      0x40\n        /* \"#utility.yul\":5581:5584   */\n      dup3\n        /* \"#utility.yul\":5577:5589   */\n      add\n        /* \"#utility.yul\":5570:5589   */\n      swap1\n      pop\n        /* \"#utility.yul\":5229:5595   */\n      swap2\n      swap1\n      pop\n      jump\t// out\n        /* \"#utility.yul\":5601:6020   */\n    tag_70:\n        /* \"#utility.yul\":5767:5771   */\n      0x00\n        /* \"#utility.yul\":5805:5807   */\n      0x20\n        /* \"#utility.yul\":5794:5803   */\n      dup3\n        /* \"#utility.yul\":5790:5808   */\n      add\n        /* \"#utility.yul\":5782:5808   */\n      swap1\n      pop\n        /* \"#utility.yul\":5854:5863   */\n      dup2\n        /* \"#utility.yul\":5848:5852   */\n      dup2\n        /* \"#utility.yul\":5844:5864   */\n      sub\n        /* \"#utility.yul\":5840:5841   */\n      0x00\n        /* \"#utility.yul\":5829:5838   */\n      dup4\n        /* \"#utility.yul\":5825:5842   */\n      add\n        /* \"#utility.yul\":5818:5865   */\n      mstore\n        /* \"#utility.yul\":5882:6013   */\n      tag_240\n        /* \"#utility.yul\":6008:6012   */\n      dup2\n        /* \"#utility.yul\":5882:6013   */\n      tag_165\n      jump\t// in\n    tag_240:\n        /* \"#utility.yul\":5874:6013   */\n      swap1\n      pop\n        /* \"#utility.yul\":5601:6020   */\n      swap2\n      swap1\n      pop\n      jump\t// out\n        /* \"#utility.yul\":6026:6195   */\n    tag_166:\n        /* \"#utility.yul\":6166:6187   */\n      0x4e6f7420656e6f7567682062616c616e63652e00000000000000000000000000\n        /* \"#utility.yul\":6162:6163   */\n      0x00\n        /* \"#utility.yul\":6154:6160   */\n      dup3\n        /* \"#utility.yul\":6150:6164   */\n      add\n        /* \"#utility.yul\":6143:6188   */\n      mstore\n        /* \"#utility.yul\":6026:6195   */\n      pop\n      jump\t// out\n        /* \"#utility.yul\":6201:6567   */\n    tag_167:\n        /* \"#utility.yul\":6343:6346   */\n      0x00\n        /* \"#utility.yul\":6364:6431   */\n      tag_243\n        /* \"#utility.yul\":6428:6430   */\n      0x13\n        /* \"#utility.yul\":6423:6426   */\n      dup4\n        /* \"#utility.yul\":6364:6431   */\n      tag_145\n      jump\t// in\n    tag_243:\n        /* \"#utility.yul\":6357:6431   */\n      swap2\n      pop\n        /* \"#utility.yul\":6440:6533   */\n      tag_244\n        /* \"#utility.yul\":6529:6532   */\n      dup3\n        /* \"#utility.yul\":6440:6533   */\n      tag_166\n      jump\t// in\n    tag_244:\n        /* \"#utility.yul\":6558:6560   */\n      0x20\n        /* \"#utility.yul\":6553:6556   */\n      dup3\n        /* \"#utility.yul\":6549:6561   */\n      add\n        /* \"#utility.yul\":6542:6561   */\n      swap1\n      pop\n        /* \"#utility.yul\":6201:6567   */\n      swap2\n      swap1\n      pop\n      jump\t// out\n        /* \"#utility.yul\":6573:6992   */\n    tag_90:\n        /* \"#utility.yul\":6739:6743   */\n      0x00\n        /* \"#utility.yul\":6777:6779   */\n      0x20\n        /* \"#utility.yul\":6766:6775   */\n      dup3\n        /* \"#utility.yul\":6762:6780   */\n      add\n        /* \"#utility.yul\":6754:6780   */\n      swap1\n      pop\n        /* \"#utility.yul\":6826:6835   */\n      dup2\n        /* \"#utility.yul\":6820:6824   */\n      dup2\n        /* \"#utility.yul\":6816:6836   */\n      sub\n        /* \"#utility.yul\":6812:6813   */\n      0x00\n        /* \"#utility.yul\":6801:6810   */\n      dup4\n        /* \"#utility.yul\":6797:6814   */\n      add\n        /* \"#utility.yul\":6790:6837   */\n      mstore\n        /* \"#utility.yul\":6854:6985   */\n      tag_246\n        /* \"#utility.yul\":6980:6984   */\n      dup2\n        /* \"#utility.yul\":6854:6985   */\n      tag_167\n      jump\t// in\n    tag_246:\n        /* \"#utility.yul\":6846:6985   */\n      swap1\n      pop\n        /* \"#utility.yul\":6573:6992   */\n      swap2\n      swap1\n      pop\n      jump\t// out\n        /* \"#utility.yul\":6998:7178   */\n    tag_168:\n        /* \"#utility.yul\":7046:7123   */\n      0x4e487b7100000000000000000000000000000000000000000000000000000000\n        /* \"#utility.yul\":7043:7044   */\n      0x00\n        /* \"#utility.yul\":7036:7124   */\n      mstore\n        /* \"#utility.yul\":7143:7147   */\n      0x11\n        /* \"#utility.yul\":7140:7141   */\n      0x04\n        /* \"#utility.yul\":7133:7148   */\n      mstore\n        /* \"#utility.yul\":7167:7171   */\n      0x24\n        /* \"#utility.yul\":7164:7165   */\n      0x00\n        /* \"#utility.yul\":7157:7172   */\n      revert\n        /* \"#utility.yul\":7184:7375   */\n    tag_97:\n        /* \"#utility.yul\":7224:7227   */\n      0x00\n        /* \"#utility.yul\":7243:7263   */\n      tag_249\n        /* \"#utility.yul\":7261:7262   */\n      dup3\n        /* \"#utility.yul\":7243:7263   */\n      tag_151\n      jump\t// in\n    tag_249:\n        /* \"#utility.yul\":7238:7263   */\n      swap2\n      pop\n        /* \"#utility.yul\":7277:7297   */\n      tag_250\n        /* \"#utility.yul\":7295:7296   */\n      dup4\n        /* \"#utility.yul\":7277:7297   */\n      tag_151\n      jump\t// in\n    tag_250:\n        /* \"#utility.yul\":7272:7297   */\n      swap3\n      pop\n        /* \"#utility.yul\":7320:7321   */\n      dup3\n        /* \"#utility.yul\":7317:7318   */\n      dup3\n        /* \"#utility.yul\":7313:7322   */\n      add\n        /* \"#utility.yul\":7306:7322   */\n      swap1\n      pop\n        /* \"#utility.yul\":7341:7344   */\n      dup1\n        /* \"#utility.yul\":7338:7339   */\n      dup3\n        /* \"#utility.yul\":7335:7345   */\n      gt\n        /* \"#utility.yul\":7332:7368   */\n      iszero\n      tag_251\n      jumpi\n        /* \"#utility.yul\":7348:7366   */\n      tag_252\n      tag_168\n      jump\t// in\n    tag_252:\n        /* \"#utility.yul\":7332:7368   */\n    tag_251:\n        /* \"#utility.yul\":7184:7375   */\n      swap3\n      swap2\n      pop\n      pop\n      jump\t// out\n        /* \"#utility.yul\":7381:7553   */\n    tag_169:\n        /* \"#utility.yul\":7521:7545   */\n      0x4578636565647320736c69707061676520726174652e00000000000000000000\n        /* \"#utility.yul\":7517:7518   */\n      0x00\n        /* \"#utility.yul\":7509:7515   */\n      dup3\n        /* \"#utility.yul\":7505:7519   */\n      add\n        /* \"#utility.yul\":7498:7546   */\n      mstore\n        /* \"#utility.yul\":7381:7553   */\n      pop\n      jump\t// out\n        /* \"#utility.yul\":7559:7925   */\n    tag_170:\n        /* \"#utility.yul\":7701:7704   */\n      0x00\n        /* \"#utility.yul\":7722:7789   */\n      tag_255\n        /* \"#utility.yul\":7786:7788   */\n      0x16\n        /* \"#utility.yul\":7781:7784   */\n      dup4\n        /* \"#utility.yul\":7722:7789   */\n      tag_145\n      jump\t// in\n    tag_255:\n        /* \"#utility.yul\":7715:7789   */\n      swap2\n      pop\n        /* \"#utility.yul\":7798:7891   */\n      tag_256\n        /* \"#utility.yul\":7887:7890   */\n      dup3\n        /* \"#utility.yul\":7798:7891   */\n      tag_169\n      jump\t// in\n    tag_256:\n        /* \"#utility.yul\":7916:7918   */\n      0x20\n        /* \"#utility.yul\":7911:7914   */\n      dup3\n        /* \"#utility.yul\":7907:7919   */\n      add\n        /* \"#utility.yul\":7900:7919   */\n      swap1\n      pop\n        /* \"#utility.yul\":7559:7925   */\n      swap2\n      swap1\n      pop\n      jump\t// out\n        /* \"#utility.yul\":7931:8350   */\n    tag_110:\n        /* \"#utility.yul\":8097:8101   */\n      0x00\n        /* \"#utility.yul\":8135:8137   */\n      0x20\n        /* \"#utility.yul\":8124:8133   */\n      dup3\n        /* \"#utility.yul\":8120:8138   */\n      add\n        /* \"#utility.yul\":8112:8138   */\n      swap1\n      pop\n        /* \"#utility.yul\":8184:8193   */\n      dup2\n        /* \"#utility.yul\":8178:8182   */\n      dup2\n        /* \"#utility.yul\":8174:8194   */\n      sub\n        /* \"#utility.yul\":8170:8171   */\n      0x00\n        /* \"#utility.yul\":8159:8168   */\n      dup4\n        /* \"#utility.yul\":8155:8172   */\n      add\n        /* \"#utility.yul\":8148:8195   */\n      mstore\n        /* \"#utility.yul\":8212:8343   */\n      tag_258\n        /* \"#utility.yul\":8338:8342   */\n      dup2\n        /* \"#utility.yul\":8212:8343   */\n      tag_170\n      jump\t// in\n    tag_258:\n        /* \"#utility.yul\":8204:8343   */\n      swap1\n      pop\n        /* \"#utility.yul\":7931:8350   */\n      swap2\n      swap1\n      pop\n      jump\t// out\n        /* \"#utility.yul\":8356:8581   */\n    tag_171:\n        /* \"#utility.yul\":8496:8530   */\n      0x4f776e61626c653a206e6577206f776e657220697320746865207a65726f2061\n        /* \"#utility.yul\":8492:8493   */\n      0x00\n        /* \"#utility.yul\":8484:8490   */\n      dup3\n        /* \"#utility.yul\":8480:8494   */\n      add\n        /* \"#utility.yul\":8473:8531   */\n      mstore\n        /* \"#utility.yul\":8565:8573   */\n      0x6464726573730000000000000000000000000000000000000000000000000000\n        /* \"#utility.yul\":8560:8562   */\n      0x20\n        /* \"#utility.yul\":8552:8558   */\n      dup3\n        /* \"#utility.yul\":8548:8563   */\n      add\n        /* \"#utility.yul\":8541:8574   */\n      mstore\n        /* \"#utility.yul\":8356:8581   */\n      pop\n      jump\t// out\n        /* \"#utility.yul\":8587:8953   */\n    tag_172:\n        /* \"#utility.yul\":8729:8732   */\n      0x00\n        /* \"#utility.yul\":8750:8817   */\n      tag_261\n        /* \"#utility.yul\":8814:8816   */\n      0x26\n        /* \"#utility.yul\":8809:8812   */\n      dup4\n        /* \"#utility.yul\":8750:8817   */\n      tag_145\n      jump\t// in\n    tag_261:\n        /* \"#utility.yul\":8743:8817   */\n      swap2\n      pop\n        /* \"#utility.yul\":8826:8919   */\n      tag_262\n        /* \"#utility.yul\":8915:8918   */\n      dup3\n        /* \"#utility.yul\":8826:8919   */\n      tag_171\n      jump\t// in\n    tag_262:\n        /* \"#utility.yul\":8944:8946   */\n      0x40\n        /* \"#utility.yul\":8939:8942   */\n      dup3\n        /* \"#utility.yul\":8935:8947   */\n      add\n        /* \"#utility.yul\":8928:8947   */\n      swap1\n      pop\n        /* \"#utility.yul\":8587:8953   */\n      swap2\n      swap1\n      pop\n      jump\t// out\n        /* \"#utility.yul\":8959:9378   */\n    tag_122:\n        /* \"#utility.yul\":9125:9129   */\n      0x00\n        /* \"#utility.yul\":9163:9165   */\n      0x20\n        /* \"#utility.yul\":9152:9161   */\n      dup3\n        /* \"#utility.yul\":9148:9166   */\n      add\n        /* \"#utility.yul\":9140:9166   */\n      swap1\n      pop\n        /* \"#utility.yul\":9212:9221   */\n      dup2\n        /* \"#utility.yul\":9206:9210   */\n      dup2\n        /* \"#utility.yul\":9202:9222   */\n      sub\n        /* \"#utility.yul\":9198:9199   */\n      0x00\n        /* \"#utility.yul\":9187:9196   */\n      dup4\n        /* \"#utility.yul\":9183:9200   */\n      add\n        /* \"#utility.yul\":9176:9223   */\n      mstore\n        /* \"#utility.yul\":9240:9371   */\n      tag_264\n        /* \"#utility.yul\":9366:9370   */\n      dup2\n        /* \"#utility.yul\":9240:9371   */\n      tag_172\n      jump\t// in\n    tag_264:\n        /* \"#utility.yul\":9232:9371   */\n      swap1\n      pop\n        /* \"#utility.yul\":8959:9378   */\n      swap2\n      swap1\n      pop\n      jump\t// out\n        /* \"#utility.yul\":9384:9566   */\n    tag_173:\n        /* \"#utility.yul\":9524:9558   */\n      0x4f776e61626c653a2063616c6c6572206973206e6f7420746865206f776e6572\n        /* \"#utility.yul\":9520:9521   */\n      0x00\n        /* \"#utility.yul\":9512:9518   */\n      dup3\n        /* \"#utility.yul\":9508:9522   */\n      add\n        /* \"#utility.yul\":9501:9559   */\n      mstore\n        /* \"#utility.yul\":9384:9566   */\n      pop\n      jump\t// out\n        /* \"#utility.yul\":9572:9938   */\n    tag_174:\n        /* \"#utility.yul\":9714:9717   */\n      0x00\n        /* \"#utility.yul\":9735:9802   */\n      tag_267\n        /* \"#utility.yul\":9799:9801   */\n      0x20\n        /* \"#utility.yul\":9794:9797   */\n      dup4\n        /* \"#utility.yul\":9735:9802   */\n      tag_145\n      jump\t// in\n    tag_267:\n        /* \"#utility.yul\":9728:9802   */\n      swap2\n      pop\n        /* \"#utility.yul\":9811:9904   */\n      tag_268\n        /* \"#utility.yul\":9900:9903   */\n      dup3\n        /* \"#utility.yul\":9811:9904   */\n      tag_173\n      jump\t// in\n    tag_268:\n        /* \"#utility.yul\":9929:9931   */\n      0x20\n        /* \"#utility.yul\":9924:9927   */\n      dup3\n        /* \"#utility.yul\":9920:9932   */\n      add\n        /* \"#utility.yul\":9913:9932   */\n      swap1\n      pop\n        /* \"#utility.yul\":9572:9938   */\n      swap2\n      swap1\n      pop\n      jump\t// out\n        /* \"#utility.yul\":9944:10363   */\n    tag_130:\n        /* \"#utility.yul\":10110:10114   */\n      0x00\n        /* \"#utility.yul\":10148:10150   */\n      0x20\n        /* \"#utility.yul\":10137:10146   */\n      dup3\n        /* \"#utility.yul\":10133:10151   */\n      add\n        /* \"#utility.yul\":10125:10151   */\n      swap1\n      pop\n        /* \"#utility.yul\":10197:10206   */\n      dup2\n        /* \"#utility.yul\":10191:10195   */\n      dup2\n        /* \"#utility.yul\":10187:10207   */\n      sub\n        /* \"#utility.yul\":10183:10184   */\n      0x00\n        /* \"#utility.yul\":10172:10181   */\n      dup4\n        /* \"#utility.yul\":10168:10185   */\n      add\n        /* \"#utility.yul\":10161:10208   */\n      mstore\n        /* \"#utility.yul\":10225:10356   */\n      tag_270\n        /* \"#utility.yul\":10351:10355   */\n      dup2\n        /* \"#utility.yul\":10225:10356   */\n      tag_174\n      jump\t// in\n    tag_270:\n        /* \"#utility.yul\":10217:10356   */\n      swap1\n      pop\n        /* \"#utility.yul\":9944:10363   */\n      swap2\n      swap1\n      pop\n      jump\t// out\n        /* \"#utility.yul\":10369:10563   */\n    tag_136:\n        /* \"#utility.yul\":10409:10413   */\n      0x00\n        /* \"#utility.yul\":10429:10449   */\n      tag_272\n        /* \"#utility.yul\":10447:10448   */\n      dup3\n        /* \"#utility.yul\":10429:10449   */\n      tag_151\n      jump\t// in\n    tag_272:\n        /* \"#utility.yul\":10424:10449   */\n      swap2\n      pop\n        /* \"#utility.yul\":10463:10483   */\n      tag_273\n        /* \"#utility.yul\":10481:10482   */\n      dup4\n        /* \"#utility.yul\":10463:10483   */\n      tag_151\n      jump\t// in\n    tag_273:\n        /* \"#utility.yul\":10458:10483   */\n      swap3\n      pop\n        /* \"#utility.yul\":10507:10508   */\n      dup3\n        /* \"#utility.yul\":10504:10505   */\n      dup3\n        /* \"#utility.yul\":10500:10509   */\n      sub\n        /* \"#utility.yul\":10492:10509   */\n      swap1\n      pop\n        /* \"#utility.yul\":10531:10532   */\n      dup2\n        /* \"#utility.yul\":10525:10529   */\n      dup2\n        /* \"#utility.yul\":10522:10533   */\n      gt\n        /* \"#utility.yul\":10519:10556   */\n      iszero\n      tag_274\n      jumpi\n        /* \"#utility.yul\":10536:10554   */\n      tag_275\n      tag_168\n      jump\t// in\n    tag_275:\n        /* \"#utility.yul\":10519:10556   */\n    tag_274:\n        /* \"#utility.yul\":10369:10563   */\n      swap3\n      swap2\n      pop\n      pop\n      jump\t// out\n        /* \"#utility.yul\":10569:10979   */\n    tag_139:\n        /* \"#utility.yul\":10609:10616   */\n      0x00\n        /* \"#utility.yul\":10632:10652   */\n      tag_277\n        /* \"#utility.yul\":10650:10651   */\n      dup3\n        /* \"#utility.yul\":10632:10652   */\n      tag_151\n      jump\t// in\n    tag_277:\n        /* \"#utility.yul\":10627:10652   */\n      swap2\n      pop\n        /* \"#utility.yul\":10666:10686   */\n      tag_278\n        /* \"#utility.yul\":10684:10685   */\n      dup4\n        /* \"#utility.yul\":10666:10686   */\n      tag_151\n      jump\t// in\n    tag_278:\n        /* \"#utility.yul\":10661:10686   */\n      swap3\n      pop\n        /* \"#utility.yul\":10721:10722   */\n      dup3\n        /* \"#utility.yul\":10718:10719   */\n      dup3\n        /* \"#utility.yul\":10714:10723   */\n      mul\n        /* \"#utility.yul\":10743:10773   */\n      tag_279\n        /* \"#utility.yul\":10761:10772   */\n      dup2\n        /* \"#utility.yul\":10743:10773   */\n      tag_151\n      jump\t// in\n    tag_279:\n        /* \"#utility.yul\":10732:10773   */\n      swap2\n      pop\n        /* \"#utility.yul\":10922:10923   */\n      dup3\n        /* \"#utility.yul\":10913:10920   */\n      dup3\n        /* \"#utility.yul\":10909:10924   */\n      div\n        /* \"#utility.yul\":10906:10907   */\n      dup5\n        /* \"#utility.yul\":10903:10925   */\n      eq\n        /* \"#utility.yul\":10883:10884   */\n      dup4\n        /* \"#utility.yul\":10876:10885   */\n      iszero\n        /* \"#utility.yul\":10856:10939   */\n      or\n        /* \"#utility.yul\":10833:10972   */\n      tag_280\n      jumpi\n        /* \"#utility.yul\":10952:10970   */\n      tag_281\n      tag_168\n      jump\t// in\n    tag_281:\n        /* \"#utility.yul\":10833:10972   */\n    tag_280:\n        /* \"#utility.yul\":10617:10979   */\n      pop\n        /* \"#utility.yul\":10569:10979   */\n      swap3\n      swap2\n      pop\n      pop\n      jump\t// out\n        /* \"#utility.yul\":10985:11165   */\n    tag_175:\n        /* \"#utility.yul\":11033:11110   */\n      0x4e487b7100000000000000000000000000000000000000000000000000000000\n        /* \"#utility.yul\":11030:11031   */\n      0x00\n        /* \"#utility.yul\":11023:11111   */\n      mstore\n        /* \"#utility.yul\":11130:11134   */\n      0x12\n        /* \"#utility.yul\":11127:11128   */\n      0x04\n        /* \"#utility.yul\":11120:11135   */\n      mstore\n        /* \"#utility.yul\":11154:11158   */\n      0x24\n        /* \"#utility.yul\":11151:11152   */\n      0x00\n        /* \"#utility.yul\":11144:11159   */\n      revert\n        /* \"#utility.yul\":11171:11356   */\n    tag_142:\n        /* \"#utility.yul\":11211:11212   */\n      0x00\n        /* \"#utility.yul\":11228:11248   */\n      tag_284\n        /* \"#utility.yul\":11246:11247   */\n      dup3\n        /* \"#utility.yul\":11228:11248   */\n      tag_151\n      jump\t// in\n    tag_284:\n        /* \"#utility.yul\":11223:11248   */\n      swap2\n      pop\n        /* \"#utility.yul\":11262:11282   */\n      tag_285\n        /* \"#utility.yul\":11280:11281   */\n      dup4\n        /* \"#utility.yul\":11262:11282   */\n      tag_151\n      jump\t// in\n    tag_285:\n        /* \"#utility.yul\":11257:11282   */\n      swap3\n      pop\n        /* \"#utility.yul\":11301:11302   */\n      dup3\n        /* \"#utility.yul\":11291:11326   */\n      tag_286\n      jumpi\n        /* \"#utility.yul\":11306:11324   */\n      tag_287\n      tag_175\n      jump\t// in\n    tag_287:\n        /* \"#utility.yul\":11291:11326   */\n    tag_286:\n        /* \"#utility.yul\":11348:11349   */\n      dup3\n        /* \"#utility.yul\":11345:11346   */\n      dup3\n        /* \"#utility.yul\":11341:11350   */\n      div\n        /* \"#utility.yul\":11336:11350   */\n      swap1\n      pop\n        /* \"#utility.yul\":11171:11356   */\n      swap3\n      swap2\n      pop\n      pop\n      jump\t// out\n\n    auxdata: 0xa2646970667358221220397a5c4736d14eaf95e8b20544f0efcba71ca205f58ad2a0e269ac907dd1ba4564736f6c63430008110033\n}\n",
				"bytecode": {
					"linkReferences": {},
					"object": "608060405260036005553480156200001657600080fd5b50604051620019c8380380620019c883398181016040528101906200003c919062000341565b6200005c62000050620000a460201b60201c565b620000ac60201b60201c565b82600190816200006d919062000626565b5081600290816200007f919062000626565b5080600360006101000a81548160ff021916908360ff1602179055505050506200070d565b600033905090565b60008060009054906101000a900473ffffffffffffffffffffffffffffffffffffffff169050816000806101000a81548173ffffffffffffffffffffffffffffffffffffffff021916908373ffffffffffffffffffffffffffffffffffffffff1602179055508173ffffffffffffffffffffffffffffffffffffffff168173ffffffffffffffffffffffffffffffffffffffff167f8be0079c531659141344cd1fd0a4f28419497f9722a3daafe3b4186f6b6457e060405160405180910390a35050565b6000604051905090565b600080fd5b600080fd5b600080fd5b600080fd5b6000601f19601f8301169050919050565b7f4e487b7100000000000000000000000000000000000000000000000000000000600052604160045260246000fd5b620001d9826200018e565b810181811067ffffffffffffffff82111715620001fb57620001fa6200019f565b5b80604052505050565b60006200021062000170565b90506200021e8282620001ce565b919050565b600067ffffffffffffffff8211156200024157620002406200019f565b5b6200024c826200018e565b9050602081019050919050565b60005b83811015620002795780820151818401526020810190506200025c565b60008484015250505050565b60006200029c620002968462000223565b62000204565b905082815260208101848484011115620002bb57620002ba62000189565b5b620002c884828562000259565b509392505050565b600082601f830112620002e857620002e762000184565b5b8151620002fa84826020860162000285565b91505092915050565b600060ff82169050919050565b6200031b8162000303565b81146200032757600080fd5b50565b6000815190506200033b8162000310565b92915050565b6000806000606084860312156200035d576200035c6200017a565b5b600084015167ffffffffffffffff8111156200037e576200037d6200017f565b5b6200038c86828701620002d0565b935050602084015167ffffffffffffffff811115620003b057620003af6200017f565b5b620003be86828701620002d0565b9250506040620003d1868287016200032a565b9150509250925092565b600081519050919050565b7f4e487b7100000000000000000000000000000000000000000000000000000000600052602260045260246000fd5b600060028204905060018216806200042e57607f821691505b602082108103620004445762000443620003e6565b5b50919050565b60008190508160005260206000209050919050565b60006020601f8301049050919050565b600082821b905092915050565b600060088302620004ae7fffffffffffffffffffffffffffffffffffffffffffffffffffffffffffffffff826200046f565b620004ba86836200046f565b95508019841693508086168417925050509392505050565b6000819050919050565b6000819050919050565b60006200050762000501620004fb84620004d2565b620004dc565b620004d2565b9050919050565b6000819050919050565b6200052383620004e6565b6200053b62000532826200050e565b8484546200047c565b825550505050565b600090565b6200055262000543565b6200055f81848462000518565b505050565b5b8181101562000587576200057b60008262000548565b60018101905062000565565b5050565b601f821115620005d657620005a0816200044a565b620005ab846200045f565b81016020851015620005bb578190505b620005d3620005ca856200045f565b83018262000564565b50505b505050565b600082821c905092915050565b6000620005fb60001984600802620005db565b1980831691505092915050565b6000620006168383620005e8565b9150826002028217905092915050565b6200063182620003db565b67ffffffffffffffff8111156200064d576200064c6200019f565b5b62000659825462000415565b620006668282856200058b565b600060209050601f8311600181146200069e576000841562000689578287015190505b62000695858262000608565b86555062000705565b601f198416620006ae866200044a565b60005b82811015620006d857848901518255600182019150602085019450602081019050620006b1565b86831015620006f85784890151620006f4601f891682620005e8565b8355505b6001600288020188555050505b505050505050565b6112ab806200071d6000396000f3fe608060405234801561001057600080fd5b50600436106100b45760003560e01c80638da5cb5b116100715780638da5cb5b1461016957806395d89b41146101875780639dc29fac146101a5578063a9059cbb146101c1578063ddca3f43146101dd578063f2fde38b146101fb576100b4565b806306fdde03146100b9578063313ce567146100d75780633e032a3b146100f557806340c10f191461011357806370a082311461012f578063715018a61461015f575b600080fd5b6100c1610217565b6040516100ce9190610cc1565b60405180910390f35b6100df6102a5565b6040516100ec9190610cff565b60405180910390f35b6100fd6102b8565b60405161010a9190610d33565b60405180910390f35b61012d60048036038101906101289190610ddd565b6102be565b005b61014960048036038101906101449190610e1d565b610408565b6040516101569190610d33565b60405180910390f35b610167610420565b005b610171610434565b60405161017e9190610e59565b60405180910390f35b61018f61045d565b60405161019c9190610cc1565b60405180910390f35b6101bf60048036038101906101ba9190610ddd565b6104eb565b005b6101db60048036038101906101d69190610ddd565b610674565b005b6101e5610a06565b6040516101f29190610d33565b60405180910390f35b61021560048036038101906102109190610e1d565b610a0c565b005b6001805461022490610ea3565b80601f016020809104026020016040519081016040528092919081815260200182805461025090610ea3565b801561029d5780601f106102725761010080835404028352916020019161029d565b820191906000526020600020905b81548152906001019060200180831161028057829003601f168201915b505050505081565b600360009054906101000a900460ff1681565b60065481565b6102c6610a8f565b60008111610309576040517f08c379a000000000000000000000000000000000000000000000000000000000815260040161030090610f46565b60405180910390fd5b61035b81600460008573ffffffffffffffffffffffffffffffffffffffff1673ffffffffffffffffffffffffffffffffffffffff16815260200190815260200160002054610b0d90919063ffffffff16565b600460008473ffffffffffffffffffffffffffffffffffffffff1673ffffffffffffffffffffffffffffffffffffffff168152602001908152602001600020819055508173ffffffffffffffffffffffffffffffffffffffff16600073ffffffffffffffffffffffffffffffffffffffff167fddf252ad1be2c89b69c2b068fc378daa952ba7f163c4a11628f55a4df523b3ef836040516103fc9190610d33565b60405180910390a35050565b60046020528060005260406000206000915090505481565b610428610a8f565b6104326000610b23565b565b60008060009054906101000a900473ffffffffffffffffffffffffffffffffffffffff16905090565b6002805461046a90610ea3565b80601f016020809104026020016040519081016040528092919081815260200182805461049690610ea3565b80156104e35780601f106104b8576101008083540402835291602001916104e3565b820191906000526020600020905b8154815290600101906020018083116104c657829003601f168201915b505050505081565b6104f3610a8f565b80600460008473ffffffffffffffffffffffffffffffffffffffff1673ffffffffffffffffffffffffffffffffffffffff168152602001908152602001600020541015610575576040517f08c379a000000000000000000000000000000000000000000000000000000000815260040161056c90610fb2565b60405180910390fd5b6105c781600460008573ffffffffffffffffffffffffffffffffffffffff1673ffffffffffffffffffffffffffffffffffffffff16815260200190815260200160002054610be790919063ffffffff16565b600460008473ffffffffffffffffffffffffffffffffffffffff1673ffffffffffffffffffffffffffffffffffffffff16815260200190815260200160002081905550600073ffffffffffffffffffffffffffffffffffffffff168273ffffffffffffffffffffffffffffffffffffffff167fddf252ad1be2c89b69c2b068fc378daa952ba7f163c4a11628f55a4df523b3ef836040516106689190610d33565b60405180910390a35050565b6106aa6005546103e86106879190611001565b61069c6103e884610bfd90919063ffffffff16565b610c1390919063ffffffff16565b600460003373ffffffffffffffffffffffffffffffffffffffff1673ffffffffffffffffffffffffffffffffffffffff16815260200190815260200160002054101561072b576040517f08c379a000000000000000000000000000000000000000000000000000000000815260040161072290610fb2565b60405180910390fd5b6107b26103e86107a46006546103e86107449190611001565b61079685600460008973ffffffffffffffffffffffffffffffffffffffff1673ffffffffffffffffffffffffffffffffffffffff16815260200190815260200160002054610b0d90919063ffffffff16565b610bfd90919063ffffffff16565b610c1390919063ffffffff16565b81600460008573ffffffffffffffffffffffffffffffffffffffff1673ffffffffffffffffffffffffffffffffffffffff168152602001908152602001600020546107fd9190611001565b111561083e576040517f08c379a000000000000000000000000000000000000000000000000000000000815260040161083590611081565b60405180910390fd5b6108c56108776005546103e86108549190611001565b6108696103e885610bfd90919063ffffffff16565b610c1390919063ffffffff16565b600460003373ffffffffffffffffffffffffffffffffffffffff1673ffffffffffffffffffffffffffffffffffffffff16815260200190815260200160002054610be790919063ffffffff16565b600460003373ffffffffffffffffffffffffffffffffffffffff1673ffffffffffffffffffffffffffffffffffffffff1681526020019081526020016000208190555061095a81600460008573ffffffffffffffffffffffffffffffffffffffff1673ffffffffffffffffffffffffffffffffffffffff16815260200190815260200160002054610b0d90919063ffffffff16565b600460008473ffffffffffffffffffffffffffffffffffffffff1673ffffffffffffffffffffffffffffffffffffffff168152602001908152602001600020819055508173ffffffffffffffffffffffffffffffffffffffff163373ffffffffffffffffffffffffffffffffffffffff167fddf252ad1be2c89b69c2b068fc378daa952ba7f163c4a11628f55a4df523b3ef836040516109fa9190610d33565b60405180910390a35050565b60055481565b610a14610a8f565b600073ffffffffffffffffffffffffffffffffffffffff168173ffffffffffffffffffffffffffffffffffffffff1603610a83576040517f08c379a0000000000000000000000000000000000000000000000000000000008152600401610a7a90611113565b60405180910390fd5b610a8c81610b23565b50565b610a97610c29565b73ffffffffffffffffffffffffffffffffffffffff16610ab5610434565b73ffffffffffffffffffffffffffffffffffffffff1614610b0b576040517f08c379a0000000000000000000000000000000000000000000000000000000008152600401610b029061117f565b60405180910390fd5b565b60008183610b1b9190611001565b905092915050565b60008060009054906101000a900473ffffffffffffffffffffffffffffffffffffffff169050816000806101000a81548173ffffffffffffffffffffffffffffffffffffffff021916908373ffffffffffffffffffffffffffffffffffffffff1602179055508173ffffffffffffffffffffffffffffffffffffffff168173ffffffffffffffffffffffffffffffffffffffff167f8be0079c531659141344cd1fd0a4f28419497f9722a3daafe3b4186f6b6457e060405160405180910390a35050565b60008183610bf5919061119f565b905092915050565b60008183610c0b91906111d3565b905092915050565b60008183610c219190611244565b905092915050565b600033905090565b600081519050919050565b600082825260208201905092915050565b60005b83811015610c6b578082015181840152602081019050610c50565b60008484015250505050565b6000601f19601f8301169050919050565b6000610c9382610c31565b610c9d8185610c3c565b9350610cad818560208601610c4d565b610cb681610c77565b840191505092915050565b60006020820190508181036000830152610cdb8184610c88565b905092915050565b600060ff82169050919050565b610cf981610ce3565b82525050565b6000602082019050610d146000830184610cf0565b92915050565b6000819050919050565b610d2d81610d1a565b82525050565b6000602082019050610d486000830184610d24565b92915050565b600080fd5b600073ffffffffffffffffffffffffffffffffffffffff82169050919050565b6000610d7e82610d53565b9050919050565b610d8e81610d73565b8114610d9957600080fd5b50565b600081359050610dab81610d85565b92915050565b610dba81610d1a565b8114610dc557600080fd5b50565b600081359050610dd781610db1565b92915050565b60008060408385031215610df457610df3610d4e565b5b6000610e0285828601610d9c565b9250506020610e1385828601610dc8565b9150509250929050565b600060208284031215610e3357610e32610d4e565b5b6000610e4184828501610d9c565b91505092915050565b610e5381610d73565b82525050565b6000602082019050610e6e6000830184610e4a565b92915050565b7f4e487b7100000000000000000000000000000000000000000000000000000000600052602260045260246000fd5b60006002820490506001821680610ebb57607f821691505b602082108103610ece57610ecd610e74565b5b50919050565b7f43616e6e6f74206d696e74207a65726f206f72206e6567617469766520746f6b60008201527f656e732e00000000000000000000000000000000000000000000000000000000602082015250565b6000610f30602483610c3c565b9150610f3b82610ed4565b604082019050919050565b60006020820190508181036000830152610f5f81610f23565b9050919050565b7f4e6f7420656e6f7567682062616c616e63652e00000000000000000000000000600082015250565b6000610f9c601383610c3c565b9150610fa782610f66565b602082019050919050565b60006020820190508181036000830152610fcb81610f8f565b9050919050565b7f4e487b7100000000000000000000000000000000000000000000000000000000600052601160045260246000fd5b600061100c82610d1a565b915061101783610d1a565b925082820190508082111561102f5761102e610fd2565b5b92915050565b7f4578636565647320736c69707061676520726174652e00000000000000000000600082015250565b600061106b601683610c3c565b915061107682611035565b602082019050919050565b6000602082019050818103600083015261109a8161105e565b9050919050565b7f4f776e61626c653a206e6577206f776e657220697320746865207a65726f206160008201527f6464726573730000000000000000000000000000000000000000000000000000602082015250565b60006110fd602683610c3c565b9150611108826110a1565b604082019050919050565b6000602082019050818103600083015261112c816110f0565b9050919050565b7f4f776e61626c653a2063616c6c6572206973206e6f7420746865206f776e6572600082015250565b6000611169602083610c3c565b915061117482611133565b602082019050919050565b600060208201905081810360008301526111988161115c565b9050919050565b60006111aa82610d1a565b91506111b583610d1a565b92508282039050818111156111cd576111cc610fd2565b5b92915050565b60006111de82610d1a565b91506111e983610d1a565b92508282026111f781610d1a565b9150828204841483151761120e5761120d610fd2565b5b5092915050565b7f4e487b7100000000000000000000000000000000000000000000000000000000600052601260045260246000fd5b600061124f82610d1a565b915061125a83610d1a565b92508261126a57611269611215565b5b82820490509291505056fea2646970667358221220397a5c4736d14eaf95e8b20544f0efcba71ca205f58ad2a0e269ac907dd1ba4564736f6c63430008110033",
					"opcodes": "PUSH1 0x80 PUSH1 0x40 MSTORE PUSH1 0x3 PUSH1 0x5 SSTORE CALLVALUE DUP1 ISZERO PUSH3 0x16 JUMPI PUSH1 0x0 DUP1 REVERT JUMPDEST POP PUSH1 0x40 MLOAD PUSH3 0x19C8 CODESIZE SUB DUP1 PUSH3 0x19C8 DUP4 CODECOPY DUP2 DUP2 ADD PUSH1 0x40 MSTORE DUP2 ADD SWAP1 PUSH3 0x3C SWAP2 SWAP1 PUSH3 0x341 JUMP JUMPDEST PUSH3 0x5C PUSH3 0x50 PUSH3 0xA4 PUSH1 0x20 SHL PUSH1 0x20 SHR JUMP JUMPDEST PUSH3 0xAC PUSH1 0x20 SHL PUSH1 0x20 SHR JUMP JUMPDEST DUP3 PUSH1 0x1 SWAP1 DUP2 PUSH3 0x6D SWAP2 SWAP1 PUSH3 0x626 JUMP JUMPDEST POP DUP2 PUSH1 0x2 SWAP1 DUP2 PUSH3 0x7F SWAP2 SWAP1 PUSH3 0x626 JUMP JUMPDEST POP DUP1 PUSH1 0x3 PUSH1 0x0 PUSH2 0x100 EXP DUP2 SLOAD DUP2 PUSH1 0xFF MUL NOT AND SWAP1 DUP4 PUSH1 0xFF AND MUL OR SWAP1 SSTORE POP POP POP POP PUSH3 0x70D JUMP JUMPDEST PUSH1 0x0 CALLER SWAP1 POP SWAP1 JUMP JUMPDEST PUSH1 0x0 DUP1 PUSH1 0x0 SWAP1 SLOAD SWAP1 PUSH2 0x100 EXP SWAP1 DIV PUSH20 0xFFFFFFFFFFFFFFFFFFFFFFFFFFFFFFFFFFFFFFFF AND SWAP1 POP DUP2 PUSH1 0x0 DUP1 PUSH2 0x100 EXP DUP2 SLOAD DUP2 PUSH20 0xFFFFFFFFFFFFFFFFFFFFFFFFFFFFFFFFFFFFFFFF MUL NOT AND SWAP1 DUP4 PUSH20 0xFFFFFFFFFFFFFFFFFFFFFFFFFFFFFFFFFFFFFFFF AND MUL OR SWAP1 SSTORE POP DUP2 PUSH20 0xFFFFFFFFFFFFFFFFFFFFFFFFFFFFFFFFFFFFFFFF AND DUP2 PUSH20 0xFFFFFFFFFFFFFFFFFFFFFFFFFFFFFFFFFFFFFFFF AND PUSH32 0x8BE0079C531659141344CD1FD0A4F28419497F9722A3DAAFE3B4186F6B6457E0 PUSH1 0x40 MLOAD PUSH1 0x40 MLOAD DUP1 SWAP2 SUB SWAP1 LOG3 POP POP JUMP JUMPDEST PUSH1 0x0 PUSH1 0x40 MLOAD SWAP1 POP SWAP1 JUMP JUMPDEST PUSH1 0x0 DUP1 REVERT JUMPDEST PUSH1 0x0 DUP1 REVERT JUMPDEST PUSH1 0x0 DUP1 REVERT JUMPDEST PUSH1 0x0 DUP1 REVERT JUMPDEST PUSH1 0x0 PUSH1 0x1F NOT PUSH1 0x1F DUP4 ADD AND SWAP1 POP SWAP2 SWAP1 POP JUMP JUMPDEST PUSH32 0x4E487B7100000000000000000000000000000000000000000000000000000000 PUSH1 0x0 MSTORE PUSH1 0x41 PUSH1 0x4 MSTORE PUSH1 0x24 PUSH1 0x0 REVERT JUMPDEST PUSH3 0x1D9 DUP3 PUSH3 0x18E JUMP JUMPDEST DUP2 ADD DUP2 DUP2 LT PUSH8 0xFFFFFFFFFFFFFFFF DUP3 GT OR ISZERO PUSH3 0x1FB JUMPI PUSH3 0x1FA PUSH3 0x19F JUMP JUMPDEST JUMPDEST DUP1 PUSH1 0x40 MSTORE POP POP POP JUMP JUMPDEST PUSH1 0x0 PUSH3 0x210 PUSH3 0x170 JUMP JUMPDEST SWAP1 POP PUSH3 0x21E DUP3 DUP3 PUSH3 0x1CE JUMP JUMPDEST SWAP2 SWAP1 POP JUMP JUMPDEST PUSH1 0x0 PUSH8 0xFFFFFFFFFFFFFFFF DUP3 GT ISZERO PUSH3 0x241 JUMPI PUSH3 0x240 PUSH3 0x19F JUMP JUMPDEST JUMPDEST PUSH3 0x24C DUP3 PUSH3 0x18E JUMP JUMPDEST SWAP1 POP PUSH1 0x20 DUP2 ADD SWAP1 POP SWAP2 SWAP1 POP JUMP JUMPDEST PUSH1 0x0 JUMPDEST DUP4 DUP2 LT ISZERO PUSH3 0x279 JUMPI DUP1 DUP3 ADD MLOAD DUP2 DUP5 ADD MSTORE PUSH1 0x20 DUP2 ADD SWAP1 POP PUSH3 0x25C JUMP JUMPDEST PUSH1 0x0 DUP5 DUP5 ADD MSTORE POP POP POP POP JUMP JUMPDEST PUSH1 0x0 PUSH3 0x29C PUSH3 0x296 DUP5 PUSH3 0x223 JUMP JUMPDEST PUSH3 0x204 JUMP JUMPDEST SWAP1 POP DUP3 DUP2 MSTORE PUSH1 0x20 DUP2 ADD DUP5 DUP5 DUP5 ADD GT ISZERO PUSH3 0x2BB JUMPI PUSH3 0x2BA PUSH3 0x189 JUMP JUMPDEST JUMPDEST PUSH3 0x2C8 DUP5 DUP3 DUP6 PUSH3 0x259 JUMP JUMPDEST POP SWAP4 SWAP3 POP POP POP JUMP JUMPDEST PUSH1 0x0 DUP3 PUSH1 0x1F DUP4 ADD SLT PUSH3 0x2E8 JUMPI PUSH3 0x2E7 PUSH3 0x184 JUMP JUMPDEST JUMPDEST DUP2 MLOAD PUSH3 0x2FA DUP5 DUP3 PUSH1 0x20 DUP7 ADD PUSH3 0x285 JUMP JUMPDEST SWAP2 POP POP SWAP3 SWAP2 POP POP JUMP JUMPDEST PUSH1 0x0 PUSH1 0xFF DUP3 AND SWAP1 POP SWAP2 SWAP1 POP JUMP JUMPDEST PUSH3 0x31B DUP2 PUSH3 0x303 JUMP JUMPDEST DUP2 EQ PUSH3 0x327 JUMPI PUSH1 0x0 DUP1 REVERT JUMPDEST POP JUMP JUMPDEST PUSH1 0x0 DUP2 MLOAD SWAP1 POP PUSH3 0x33B DUP2 PUSH3 0x310 JUMP JUMPDEST SWAP3 SWAP2 POP POP JUMP JUMPDEST PUSH1 0x0 DUP1 PUSH1 0x0 PUSH1 0x60 DUP5 DUP7 SUB SLT ISZERO PUSH3 0x35D JUMPI PUSH3 0x35C PUSH3 0x17A JUMP JUMPDEST JUMPDEST PUSH1 0x0 DUP5 ADD MLOAD PUSH8 0xFFFFFFFFFFFFFFFF DUP2 GT ISZERO PUSH3 0x37E JUMPI PUSH3 0x37D PUSH3 0x17F JUMP JUMPDEST JUMPDEST PUSH3 0x38C DUP7 DUP3 DUP8 ADD PUSH3 0x2D0 JUMP JUMPDEST SWAP4 POP POP PUSH1 0x20 DUP5 ADD MLOAD PUSH8 0xFFFFFFFFFFFFFFFF DUP2 GT ISZERO PUSH3 0x3B0 JUMPI PUSH3 0x3AF PUSH3 0x17F JUMP JUMPDEST JUMPDEST PUSH3 0x3BE DUP7 DUP3 DUP8 ADD PUSH3 0x2D0 JUMP JUMPDEST SWAP3 POP POP PUSH1 0x40 PUSH3 0x3D1 DUP7 DUP3 DUP8 ADD PUSH3 0x32A JUMP JUMPDEST SWAP2 POP POP SWAP3 POP SWAP3 POP SWAP3 JUMP JUMPDEST PUSH1 0x0 DUP2 MLOAD SWAP1 POP SWAP2 SWAP1 POP JUMP JUMPDEST PUSH32 0x4E487B7100000000000000000000000000000000000000000000000000000000 PUSH1 0x0 MSTORE PUSH1 0x22 PUSH1 0x4 MSTORE PUSH1 0x24 PUSH1 0x0 REVERT JUMPDEST PUSH1 0x0 PUSH1 0x2 DUP3 DIV SWAP1 POP PUSH1 0x1 DUP3 AND DUP1 PUSH3 0x42E JUMPI PUSH1 0x7F DUP3 AND SWAP2 POP JUMPDEST PUSH1 0x20 DUP3 LT DUP2 SUB PUSH3 0x444 JUMPI PUSH3 0x443 PUSH3 0x3E6 JUMP JUMPDEST JUMPDEST POP SWAP2 SWAP1 POP JUMP JUMPDEST PUSH1 0x0 DUP2 SWAP1 POP DUP2 PUSH1 0x0 MSTORE PUSH1 0x20 PUSH1 0x0 KECCAK256 SWAP1 POP SWAP2 SWAP1 POP JUMP JUMPDEST PUSH1 0x0 PUSH1 0x20 PUSH1 0x1F DUP4 ADD DIV SWAP1 POP SWAP2 SWAP1 POP JUMP JUMPDEST PUSH1 0x0 DUP3 DUP3 SHL SWAP1 POP SWAP3 SWAP2 POP POP JUMP JUMPDEST PUSH1 0x0 PUSH1 0x8 DUP4 MUL PUSH3 0x4AE PUSH32 0xFFFFFFFFFFFFFFFFFFFFFFFFFFFFFFFFFFFFFFFFFFFFFFFFFFFFFFFFFFFFFFFF DUP3 PUSH3 0x46F JUMP JUMPDEST PUSH3 0x4BA DUP7 DUP4 PUSH3 0x46F JUMP JUMPDEST SWAP6 POP DUP1 NOT DUP5 AND SWAP4 POP DUP1 DUP7 AND DUP5 OR SWAP3 POP POP POP SWAP4 SWAP3 POP POP POP JUMP JUMPDEST PUSH1 0x0 DUP2 SWAP1 POP SWAP2 SWAP1 POP JUMP JUMPDEST PUSH1 0x0 DUP2 SWAP1 POP SWAP2 SWAP1 POP JUMP JUMPDEST PUSH1 0x0 PUSH3 0x507 PUSH3 0x501 PUSH3 0x4FB DUP5 PUSH3 0x4D2 JUMP JUMPDEST PUSH3 0x4DC JUMP JUMPDEST PUSH3 0x4D2 JUMP JUMPDEST SWAP1 POP SWAP2 SWAP1 POP JUMP JUMPDEST PUSH1 0x0 DUP2 SWAP1 POP SWAP2 SWAP1 POP JUMP JUMPDEST PUSH3 0x523 DUP4 PUSH3 0x4E6 JUMP JUMPDEST PUSH3 0x53B PUSH3 0x532 DUP3 PUSH3 0x50E JUMP JUMPDEST DUP5 DUP5 SLOAD PUSH3 0x47C JUMP JUMPDEST DUP3 SSTORE POP POP POP POP JUMP JUMPDEST PUSH1 0x0 SWAP1 JUMP JUMPDEST PUSH3 0x552 PUSH3 0x543 JUMP JUMPDEST PUSH3 0x55F DUP2 DUP5 DUP5 PUSH3 0x518 JUMP JUMPDEST POP POP POP JUMP JUMPDEST JUMPDEST DUP2 DUP2 LT ISZERO PUSH3 0x587 JUMPI PUSH3 0x57B PUSH1 0x0 DUP3 PUSH3 0x548 JUMP JUMPDEST PUSH1 0x1 DUP2 ADD SWAP1 POP PUSH3 0x565 JUMP JUMPDEST POP POP JUMP JUMPDEST PUSH1 0x1F DUP3 GT ISZERO PUSH3 0x5D6 JUMPI PUSH3 0x5A0 DUP2 PUSH3 0x44A JUMP JUMPDEST PUSH3 0x5AB DUP5 PUSH3 0x45F JUMP JUMPDEST DUP2 ADD PUSH1 0x20 DUP6 LT ISZERO PUSH3 0x5BB JUMPI DUP2 SWAP1 POP JUMPDEST PUSH3 0x5D3 PUSH3 0x5CA DUP6 PUSH3 0x45F JUMP JUMPDEST DUP4 ADD DUP3 PUSH3 0x564 JUMP JUMPDEST POP POP JUMPDEST POP POP POP JUMP JUMPDEST PUSH1 0x0 DUP3 DUP3 SHR SWAP1 POP SWAP3 SWAP2 POP POP JUMP JUMPDEST PUSH1 0x0 PUSH3 0x5FB PUSH1 0x0 NOT DUP5 PUSH1 0x8 MUL PUSH3 0x5DB JUMP JUMPDEST NOT DUP1 DUP4 AND SWAP2 POP POP SWAP3 SWAP2 POP POP JUMP JUMPDEST PUSH1 0x0 PUSH3 0x616 DUP4 DUP4 PUSH3 0x5E8 JUMP JUMPDEST SWAP2 POP DUP3 PUSH1 0x2 MUL DUP3 OR SWAP1 POP SWAP3 SWAP2 POP POP JUMP JUMPDEST PUSH3 0x631 DUP3 PUSH3 0x3DB JUMP JUMPDEST PUSH8 0xFFFFFFFFFFFFFFFF DUP2 GT ISZERO PUSH3 0x64D JUMPI PUSH3 0x64C PUSH3 0x19F JUMP JUMPDEST JUMPDEST PUSH3 0x659 DUP3 SLOAD PUSH3 0x415 JUMP JUMPDEST PUSH3 0x666 DUP3 DUP3 DUP6 PUSH3 0x58B JUMP JUMPDEST PUSH1 0x0 PUSH1 0x20 SWAP1 POP PUSH1 0x1F DUP4 GT PUSH1 0x1 DUP2 EQ PUSH3 0x69E JUMPI PUSH1 0x0 DUP5 ISZERO PUSH3 0x689 JUMPI DUP3 DUP8 ADD MLOAD SWAP1 POP JUMPDEST PUSH3 0x695 DUP6 DUP3 PUSH3 0x608 JUMP JUMPDEST DUP7 SSTORE POP PUSH3 0x705 JUMP JUMPDEST PUSH1 0x1F NOT DUP5 AND PUSH3 0x6AE DUP7 PUSH3 0x44A JUMP JUMPDEST PUSH1 0x0 JUMPDEST DUP3 DUP2 LT ISZERO PUSH3 0x6D8 JUMPI DUP5 DUP10 ADD MLOAD DUP3 SSTORE PUSH1 0x1 DUP3 ADD SWAP2 POP PUSH1 0x20 DUP6 ADD SWAP5 POP PUSH1 0x20 DUP2 ADD SWAP1 POP PUSH3 0x6B1 JUMP JUMPDEST DUP7 DUP4 LT ISZERO PUSH3 0x6F8 JUMPI DUP5 DUP10 ADD MLOAD PUSH3 0x6F4 PUSH1 0x1F DUP10 AND DUP3 PUSH3 0x5E8 JUMP JUMPDEST DUP4 SSTORE POP JUMPDEST PUSH1 0x1 PUSH1 0x2 DUP9 MUL ADD DUP9 SSTORE POP POP POP JUMPDEST POP POP POP POP POP POP JUMP JUMPDEST PUSH2 0x12AB DUP1 PUSH3 0x71D PUSH1 0x0 CODECOPY PUSH1 0x0 RETURN INVALID PUSH1 0x80 PUSH1 0x40 MSTORE CALLVALUE DUP1 ISZERO PUSH2 0x10 JUMPI PUSH1 0x0 DUP1 REVERT JUMPDEST POP PUSH1 0x4 CALLDATASIZE LT PUSH2 0xB4 JUMPI PUSH1 0x0 CALLDATALOAD PUSH1 0xE0 SHR DUP1 PUSH4 0x8DA5CB5B GT PUSH2 0x71 JUMPI DUP1 PUSH4 0x8DA5CB5B EQ PUSH2 0x169 JUMPI DUP1 PUSH4 0x95D89B41 EQ PUSH2 0x187 JUMPI DUP1 PUSH4 0x9DC29FAC EQ PUSH2 0x1A5 JUMPI DUP1 PUSH4 0xA9059CBB EQ PUSH2 0x1C1 JUMPI DUP1 PUSH4 0xDDCA3F43 EQ PUSH2 0x1DD JUMPI DUP1 PUSH4 0xF2FDE38B EQ PUSH2 0x1FB JUMPI PUSH2 0xB4 JUMP JUMPDEST DUP1 PUSH4 0x6FDDE03 EQ PUSH2 0xB9 JUMPI DUP1 PUSH4 0x313CE567 EQ PUSH2 0xD7 JUMPI DUP1 PUSH4 0x3E032A3B EQ PUSH2 0xF5 JUMPI DUP1 PUSH4 0x40C10F19 EQ PUSH2 0x113 JUMPI DUP1 PUSH4 0x70A08231 EQ PUSH2 0x12F JUMPI DUP1 PUSH4 0x715018A6 EQ PUSH2 0x15F JUMPI JUMPDEST PUSH1 0x0 DUP1 REVERT JUMPDEST PUSH2 0xC1 PUSH2 0x217 JUMP JUMPDEST PUSH1 0x40 MLOAD PUSH2 0xCE SWAP2 SWAP1 PUSH2 0xCC1 JUMP JUMPDEST PUSH1 0x40 MLOAD DUP1 SWAP2 SUB SWAP1 RETURN JUMPDEST PUSH2 0xDF PUSH2 0x2A5 JUMP JUMPDEST PUSH1 0x40 MLOAD PUSH2 0xEC SWAP2 SWAP1 PUSH2 0xCFF JUMP JUMPDEST PUSH1 0x40 MLOAD DUP1 SWAP2 SUB SWAP1 RETURN JUMPDEST PUSH2 0xFD PUSH2 0x2B8 JUMP JUMPDEST PUSH1 0x40 MLOAD PUSH2 0x10A SWAP2 SWAP1 PUSH2 0xD33 JUMP JUMPDEST PUSH1 0x40 MLOAD DUP1 SWAP2 SUB SWAP1 RETURN JUMPDEST PUSH2 0x12D PUSH1 0x4 DUP1 CALLDATASIZE SUB DUP2 ADD SWAP1 PUSH2 0x128 SWAP2 SWAP1 PUSH2 0xDDD JUMP JUMPDEST PUSH2 0x2BE JUMP JUMPDEST STOP JUMPDEST PUSH2 0x149 PUSH1 0x4 DUP1 CALLDATASIZE SUB DUP2 ADD SWAP1 PUSH2 0x144 SWAP2 SWAP1 PUSH2 0xE1D JUMP JUMPDEST PUSH2 0x408 JUMP JUMPDEST PUSH1 0x40 MLOAD PUSH2 0x156 SWAP2 SWAP1 PUSH2 0xD33 JUMP JUMPDEST PUSH1 0x40 MLOAD DUP1 SWAP2 SUB SWAP1 RETURN JUMPDEST PUSH2 0x167 PUSH2 0x420 JUMP JUMPDEST STOP JUMPDEST PUSH2 0x171 PUSH2 0x434 JUMP JUMPDEST PUSH1 0x40 MLOAD PUSH2 0x17E SWAP2 SWAP1 PUSH2 0xE59 JUMP JUMPDEST PUSH1 0x40 MLOAD DUP1 SWAP2 SUB SWAP1 RETURN JUMPDEST PUSH2 0x18F PUSH2 0x45D JUMP JUMPDEST PUSH1 0x40 MLOAD PUSH2 0x19C SWAP2 SWAP1 PUSH2 0xCC1 JUMP JUMPDEST PUSH1 0x40 MLOAD DUP1 SWAP2 SUB SWAP1 RETURN JUMPDEST PUSH2 0x1BF PUSH1 0x4 DUP1 CALLDATASIZE SUB DUP2 ADD SWAP1 PUSH2 0x1BA SWAP2 SWAP1 PUSH2 0xDDD JUMP JUMPDEST PUSH2 0x4EB JUMP JUMPDEST STOP JUMPDEST PUSH2 0x1DB PUSH1 0x4 DUP1 CALLDATASIZE SUB DUP2 ADD SWAP1 PUSH2 0x1D6 SWAP2 SWAP1 PUSH2 0xDDD JUMP JUMPDEST PUSH2 0x674 JUMP JUMPDEST STOP JUMPDEST PUSH2 0x1E5 PUSH2 0xA06 JUMP JUMPDEST PUSH1 0x40 MLOAD PUSH2 0x1F2 SWAP2 SWAP1 PUSH2 0xD33 JUMP JUMPDEST PUSH1 0x40 MLOAD DUP1 SWAP2 SUB SWAP1 RETURN JUMPDEST PUSH2 0x215 PUSH1 0x4 DUP1 CALLDATASIZE SUB DUP2 ADD SWAP1 PUSH2 0x210 SWAP2 SWAP1 PUSH2 0xE1D JUMP JUMPDEST PUSH2 0xA0C JUMP JUMPDEST STOP JUMPDEST PUSH1 0x1 DUP1 SLOAD PUSH2 0x224 SWAP1 PUSH2 0xEA3 JUMP JUMPDEST DUP1 PUSH1 0x1F ADD PUSH1 0x20 DUP1 SWAP2 DIV MUL PUSH1 0x20 ADD PUSH1 0x40 MLOAD SWAP1 DUP2 ADD PUSH1 0x40 MSTORE DUP1 SWAP3 SWAP2 SWAP1 DUP2 DUP2 MSTORE PUSH1 0x20 ADD DUP3 DUP1 SLOAD PUSH2 0x250 SWAP1 PUSH2 0xEA3 JUMP JUMPDEST DUP1 ISZERO PUSH2 0x29D JUMPI DUP1 PUSH1 0x1F LT PUSH2 0x272 JUMPI PUSH2 0x100 DUP1 DUP4 SLOAD DIV MUL DUP4 MSTORE SWAP2 PUSH1 0x20 ADD SWAP2 PUSH2 0x29D JUMP JUMPDEST DUP3 ADD SWAP2 SWAP1 PUSH1 0x0 MSTORE PUSH1 0x20 PUSH1 0x0 KECCAK256 SWAP1 JUMPDEST DUP2 SLOAD DUP2 MSTORE SWAP1 PUSH1 0x1 ADD SWAP1 PUSH1 0x20 ADD DUP1 DUP4 GT PUSH2 0x280 JUMPI DUP3 SWAP1 SUB PUSH1 0x1F AND DUP3 ADD SWAP2 JUMPDEST POP POP POP POP POP DUP2 JUMP JUMPDEST PUSH1 0x3 PUSH1 0x0 SWAP1 SLOAD SWAP1 PUSH2 0x100 EXP SWAP1 DIV PUSH1 0xFF AND DUP2 JUMP JUMPDEST PUSH1 0x6 SLOAD DUP2 JUMP JUMPDEST PUSH2 0x2C6 PUSH2 0xA8F JUMP JUMPDEST PUSH1 0x0 DUP2 GT PUSH2 0x309 JUMPI PUSH1 0x40 MLOAD PUSH32 0x8C379A000000000000000000000000000000000000000000000000000000000 DUP2 MSTORE PUSH1 0x4 ADD PUSH2 0x300 SWAP1 PUSH2 0xF46 JUMP JUMPDEST PUSH1 0x40 MLOAD DUP1 SWAP2 SUB SWAP1 REVERT JUMPDEST PUSH2 0x35B DUP2 PUSH1 0x4 PUSH1 0x0 DUP6 PUSH20 0xFFFFFFFFFFFFFFFFFFFFFFFFFFFFFFFFFFFFFFFF AND PUSH20 0xFFFFFFFFFFFFFFFFFFFFFFFFFFFFFFFFFFFFFFFF AND DUP2 MSTORE PUSH1 0x20 ADD SWAP1 DUP2 MSTORE PUSH1 0x20 ADD PUSH1 0x0 KECCAK256 SLOAD PUSH2 0xB0D SWAP1 SWAP2 SWAP1 PUSH4 0xFFFFFFFF AND JUMP JUMPDEST PUSH1 0x4 PUSH1 0x0 DUP5 PUSH20 0xFFFFFFFFFFFFFFFFFFFFFFFFFFFFFFFFFFFFFFFF AND PUSH20 0xFFFFFFFFFFFFFFFFFFFFFFFFFFFFFFFFFFFFFFFF AND DUP2 MSTORE PUSH1 0x20 ADD SWAP1 DUP2 MSTORE PUSH1 0x20 ADD PUSH1 0x0 KECCAK256 DUP2 SWAP1 SSTORE POP DUP2 PUSH20 0xFFFFFFFFFFFFFFFFFFFFFFFFFFFFFFFFFFFFFFFF AND PUSH1 0x0 PUSH20 0xFFFFFFFFFFFFFFFFFFFFFFFFFFFFFFFFFFFFFFFF AND PUSH32 0xDDF252AD1BE2C89B69C2B068FC378DAA952BA7F163C4A11628F55A4DF523B3EF DUP4 PUSH1 0x40 MLOAD PUSH2 0x3FC SWAP2 SWAP1 PUSH2 0xD33 JUMP JUMPDEST PUSH1 0x40 MLOAD DUP1 SWAP2 SUB SWAP1 LOG3 POP POP JUMP JUMPDEST PUSH1 0x4 PUSH1 0x20 MSTORE DUP1 PUSH1 0x0 MSTORE PUSH1 0x40 PUSH1 0x0 KECCAK256 PUSH1 0x0 SWAP2 POP SWAP1 POP SLOAD DUP2 JUMP JUMPDEST PUSH2 0x428 PUSH2 0xA8F JUMP JUMPDEST PUSH2 0x432 PUSH1 0x0 PUSH2 0xB23 JUMP JUMPDEST JUMP JUMPDEST PUSH1 0x0 DUP1 PUSH1 0x0 SWAP1 SLOAD SWAP1 PUSH2 0x100 EXP SWAP1 DIV PUSH20 0xFFFFFFFFFFFFFFFFFFFFFFFFFFFFFFFFFFFFFFFF AND SWAP1 POP SWAP1 JUMP JUMPDEST PUSH1 0x2 DUP1 SLOAD PUSH2 0x46A SWAP1 PUSH2 0xEA3 JUMP JUMPDEST DUP1 PUSH1 0x1F ADD PUSH1 0x20 DUP1 SWAP2 DIV MUL PUSH1 0x20 ADD PUSH1 0x40 MLOAD SWAP1 DUP2 ADD PUSH1 0x40 MSTORE DUP1 SWAP3 SWAP2 SWAP1 DUP2 DUP2 MSTORE PUSH1 0x20 ADD DUP3 DUP1 SLOAD PUSH2 0x496 SWAP1 PUSH2 0xEA3 JUMP JUMPDEST DUP1 ISZERO PUSH2 0x4E3 JUMPI DUP1 PUSH1 0x1F LT PUSH2 0x4B8 JUMPI PUSH2 0x100 DUP1 DUP4 SLOAD DIV MUL DUP4 MSTORE SWAP2 PUSH1 0x20 ADD SWAP2 PUSH2 0x4E3 JUMP JUMPDEST DUP3 ADD SWAP2 SWAP1 PUSH1 0x0 MSTORE PUSH1 0x20 PUSH1 0x0 KECCAK256 SWAP1 JUMPDEST DUP2 SLOAD DUP2 MSTORE SWAP1 PUSH1 0x1 ADD SWAP1 PUSH1 0x20 ADD DUP1 DUP4 GT PUSH2 0x4C6 JUMPI DUP3 SWAP1 SUB PUSH1 0x1F AND DUP3 ADD SWAP2 JUMPDEST POP POP POP POP POP DUP2 JUMP JUMPDEST PUSH2 0x4F3 PUSH2 0xA8F JUMP JUMPDEST DUP1 PUSH1 0x4 PUSH1 0x0 DUP5 PUSH20 0xFFFFFFFFFFFFFFFFFFFFFFFFFFFFFFFFFFFFFFFF AND PUSH20 0xFFFFFFFFFFFFFFFFFFFFFFFFFFFFFFFFFFFFFFFF AND DUP2 MSTORE PUSH1 0x20 ADD SWAP1 DUP2 MSTORE PUSH1 0x20 ADD PUSH1 0x0 KECCAK256 SLOAD LT ISZERO PUSH2 0x575 JUMPI PUSH1 0x40 MLOAD PUSH32 0x8C379A000000000000000000000000000000000000000000000000000000000 DUP2 MSTORE PUSH1 0x4 ADD PUSH2 0x56C SWAP1 PUSH2 0xFB2 JUMP JUMPDEST PUSH1 0x40 MLOAD DUP1 SWAP2 SUB SWAP1 REVERT JUMPDEST PUSH2 0x5C7 DUP2 PUSH1 0x4 PUSH1 0x0 DUP6 PUSH20 0xFFFFFFFFFFFFFFFFFFFFFFFFFFFFFFFFFFFFFFFF AND PUSH20 0xFFFFFFFFFFFFFFFFFFFFFFFFFFFFFFFFFFFFFFFF AND DUP2 MSTORE PUSH1 0x20 ADD SWAP1 DUP2 MSTORE PUSH1 0x20 ADD PUSH1 0x0 KECCAK256 SLOAD PUSH2 0xBE7 SWAP1 SWAP2 SWAP1 PUSH4 0xFFFFFFFF AND JUMP JUMPDEST PUSH1 0x4 PUSH1 0x0 DUP5 PUSH20 0xFFFFFFFFFFFFFFFFFFFFFFFFFFFFFFFFFFFFFFFF AND PUSH20 0xFFFFFFFFFFFFFFFFFFFFFFFFFFFFFFFFFFFFFFFF AND DUP2 MSTORE PUSH1 0x20 ADD SWAP1 DUP2 MSTORE PUSH1 0x20 ADD PUSH1 0x0 KECCAK256 DUP2 SWAP1 SSTORE POP PUSH1 0x0 PUSH20 0xFFFFFFFFFFFFFFFFFFFFFFFFFFFFFFFFFFFFFFFF AND DUP3 PUSH20 0xFFFFFFFFFFFFFFFFFFFFFFFFFFFFFFFFFFFFFFFF AND PUSH32 0xDDF252AD1BE2C89B69C2B068FC378DAA952BA7F163C4A11628F55A4DF523B3EF DUP4 PUSH1 0x40 MLOAD PUSH2 0x668 SWAP2 SWAP1 PUSH2 0xD33 JUMP JUMPDEST PUSH1 0x40 MLOAD DUP1 SWAP2 SUB SWAP1 LOG3 POP POP JUMP JUMPDEST PUSH2 0x6AA PUSH1 0x5 SLOAD PUSH2 0x3E8 PUSH2 0x687 SWAP2 SWAP1 PUSH2 0x1001 JUMP JUMPDEST PUSH2 0x69C PUSH2 0x3E8 DUP5 PUSH2 0xBFD SWAP1 SWAP2 SWAP1 PUSH4 0xFFFFFFFF AND JUMP JUMPDEST PUSH2 0xC13 SWAP1 SWAP2 SWAP1 PUSH4 0xFFFFFFFF AND JUMP JUMPDEST PUSH1 0x4 PUSH1 0x0 CALLER PUSH20 0xFFFFFFFFFFFFFFFFFFFFFFFFFFFFFFFFFFFFFFFF AND PUSH20 0xFFFFFFFFFFFFFFFFFFFFFFFFFFFFFFFFFFFFFFFF AND DUP2 MSTORE PUSH1 0x20 ADD SWAP1 DUP2 MSTORE PUSH1 0x20 ADD PUSH1 0x0 KECCAK256 SLOAD LT ISZERO PUSH2 0x72B JUMPI PUSH1 0x40 MLOAD PUSH32 0x8C379A000000000000000000000000000000000000000000000000000000000 DUP2 MSTORE PUSH1 0x4 ADD PUSH2 0x722 SWAP1 PUSH2 0xFB2 JUMP JUMPDEST PUSH1 0x40 MLOAD DUP1 SWAP2 SUB SWAP1 REVERT JUMPDEST PUSH2 0x7B2 PUSH2 0x3E8 PUSH2 0x7A4 PUSH1 0x6 SLOAD PUSH2 0x3E8 PUSH2 0x744 SWAP2 SWAP1 PUSH2 0x1001 JUMP JUMPDEST PUSH2 0x796 DUP6 PUSH1 0x4 PUSH1 0x0 DUP10 PUSH20 0xFFFFFFFFFFFFFFFFFFFFFFFFFFFFFFFFFFFFFFFF AND PUSH20 0xFFFFFFFFFFFFFFFFFFFFFFFFFFFFFFFFFFFFFFFF AND DUP2 MSTORE PUSH1 0x20 ADD SWAP1 DUP2 MSTORE PUSH1 0x20 ADD PUSH1 0x0 KECCAK256 SLOAD PUSH2 0xB0D SWAP1 SWAP2 SWAP1 PUSH4 0xFFFFFFFF AND JUMP JUMPDEST PUSH2 0xBFD SWAP1 SWAP2 SWAP1 PUSH4 0xFFFFFFFF AND JUMP JUMPDEST PUSH2 0xC13 SWAP1 SWAP2 SWAP1 PUSH4 0xFFFFFFFF AND JUMP JUMPDEST DUP2 PUSH1 0x4 PUSH1 0x0 DUP6 PUSH20 0xFFFFFFFFFFFFFFFFFFFFFFFFFFFFFFFFFFFFFFFF AND PUSH20 0xFFFFFFFFFFFFFFFFFFFFFFFFFFFFFFFFFFFFFFFF AND DUP2 MSTORE PUSH1 0x20 ADD SWAP1 DUP2 MSTORE PUSH1 0x20 ADD PUSH1 0x0 KECCAK256 SLOAD PUSH2 0x7FD SWAP2 SWAP1 PUSH2 0x1001 JUMP JUMPDEST GT ISZERO PUSH2 0x83E JUMPI PUSH1 0x40 MLOAD PUSH32 0x8C379A000000000000000000000000000000000000000000000000000000000 DUP2 MSTORE PUSH1 0x4 ADD PUSH2 0x835 SWAP1 PUSH2 0x1081 JUMP JUMPDEST PUSH1 0x40 MLOAD DUP1 SWAP2 SUB SWAP1 REVERT JUMPDEST PUSH2 0x8C5 PUSH2 0x877 PUSH1 0x5 SLOAD PUSH2 0x3E8 PUSH2 0x854 SWAP2 SWAP1 PUSH2 0x1001 JUMP JUMPDEST PUSH2 0x869 PUSH2 0x3E8 DUP6 PUSH2 0xBFD SWAP1 SWAP2 SWAP1 PUSH4 0xFFFFFFFF AND JUMP JUMPDEST PUSH2 0xC13 SWAP1 SWAP2 SWAP1 PUSH4 0xFFFFFFFF AND JUMP JUMPDEST PUSH1 0x4 PUSH1 0x0 CALLER PUSH20 0xFFFFFFFFFFFFFFFFFFFFFFFFFFFFFFFFFFFFFFFF AND PUSH20 0xFFFFFFFFFFFFFFFFFFFFFFFFFFFFFFFFFFFFFFFF AND DUP2 MSTORE PUSH1 0x20 ADD SWAP1 DUP2 MSTORE PUSH1 0x20 ADD PUSH1 0x0 KECCAK256 SLOAD PUSH2 0xBE7 SWAP1 SWAP2 SWAP1 PUSH4 0xFFFFFFFF AND JUMP JUMPDEST PUSH1 0x4 PUSH1 0x0 CALLER PUSH20 0xFFFFFFFFFFFFFFFFFFFFFFFFFFFFFFFFFFFFFFFF AND PUSH20 0xFFFFFFFFFFFFFFFFFFFFFFFFFFFFFFFFFFFFFFFF AND DUP2 MSTORE PUSH1 0x20 ADD SWAP1 DUP2 MSTORE PUSH1 0x20 ADD PUSH1 0x0 KECCAK256 DUP2 SWAP1 SSTORE POP PUSH2 0x95A DUP2 PUSH1 0x4 PUSH1 0x0 DUP6 PUSH20 0xFFFFFFFFFFFFFFFFFFFFFFFFFFFFFFFFFFFFFFFF AND PUSH20 0xFFFFFFFFFFFFFFFFFFFFFFFFFFFFFFFFFFFFFFFF AND DUP2 MSTORE PUSH1 0x20 ADD SWAP1 DUP2 MSTORE PUSH1 0x20 ADD PUSH1 0x0 KECCAK256 SLOAD PUSH2 0xB0D SWAP1 SWAP2 SWAP1 PUSH4 0xFFFFFFFF AND JUMP JUMPDEST PUSH1 0x4 PUSH1 0x0 DUP5 PUSH20 0xFFFFFFFFFFFFFFFFFFFFFFFFFFFFFFFFFFFFFFFF AND PUSH20 0xFFFFFFFFFFFFFFFFFFFFFFFFFFFFFFFFFFFFFFFF AND DUP2 MSTORE PUSH1 0x20 ADD SWAP1 DUP2 MSTORE PUSH1 0x20 ADD PUSH1 0x0 KECCAK256 DUP2 SWAP1 SSTORE POP DUP2 PUSH20 0xFFFFFFFFFFFFFFFFFFFFFFFFFFFFFFFFFFFFFFFF AND CALLER PUSH20 0xFFFFFFFFFFFFFFFFFFFFFFFFFFFFFFFFFFFFFFFF AND PUSH32 0xDDF252AD1BE2C89B69C2B068FC378DAA952BA7F163C4A11628F55A4DF523B3EF DUP4 PUSH1 0x40 MLOAD PUSH2 0x9FA SWAP2 SWAP1 PUSH2 0xD33 JUMP JUMPDEST PUSH1 0x40 MLOAD DUP1 SWAP2 SUB SWAP1 LOG3 POP POP JUMP JUMPDEST PUSH1 0x5 SLOAD DUP2 JUMP JUMPDEST PUSH2 0xA14 PUSH2 0xA8F JUMP JUMPDEST PUSH1 0x0 PUSH20 0xFFFFFFFFFFFFFFFFFFFFFFFFFFFFFFFFFFFFFFFF AND DUP2 PUSH20 0xFFFFFFFFFFFFFFFFFFFFFFFFFFFFFFFFFFFFFFFF AND SUB PUSH2 0xA83 JUMPI PUSH1 0x40 MLOAD PUSH32 0x8C379A000000000000000000000000000000000000000000000000000000000 DUP2 MSTORE PUSH1 0x4 ADD PUSH2 0xA7A SWAP1 PUSH2 0x1113 JUMP JUMPDEST PUSH1 0x40 MLOAD DUP1 SWAP2 SUB SWAP1 REVERT JUMPDEST PUSH2 0xA8C DUP2 PUSH2 0xB23 JUMP JUMPDEST POP JUMP JUMPDEST PUSH2 0xA97 PUSH2 0xC29 JUMP JUMPDEST PUSH20 0xFFFFFFFFFFFFFFFFFFFFFFFFFFFFFFFFFFFFFFFF AND PUSH2 0xAB5 PUSH2 0x434 JUMP JUMPDEST PUSH20 0xFFFFFFFFFFFFFFFFFFFFFFFFFFFFFFFFFFFFFFFF AND EQ PUSH2 0xB0B JUMPI PUSH1 0x40 MLOAD PUSH32 0x8C379A000000000000000000000000000000000000000000000000000000000 DUP2 MSTORE PUSH1 0x4 ADD PUSH2 0xB02 SWAP1 PUSH2 0x117F JUMP JUMPDEST PUSH1 0x40 MLOAD DUP1 SWAP2 SUB SWAP1 REVERT JUMPDEST JUMP JUMPDEST PUSH1 0x0 DUP2 DUP4 PUSH2 0xB1B SWAP2 SWAP1 PUSH2 0x1001 JUMP JUMPDEST SWAP1 POP SWAP3 SWAP2 POP POP JUMP JUMPDEST PUSH1 0x0 DUP1 PUSH1 0x0 SWAP1 SLOAD SWAP1 PUSH2 0x100 EXP SWAP1 DIV PUSH20 0xFFFFFFFFFFFFFFFFFFFFFFFFFFFFFFFFFFFFFFFF AND SWAP1 POP DUP2 PUSH1 0x0 DUP1 PUSH2 0x100 EXP DUP2 SLOAD DUP2 PUSH20 0xFFFFFFFFFFFFFFFFFFFFFFFFFFFFFFFFFFFFFFFF MUL NOT AND SWAP1 DUP4 PUSH20 0xFFFFFFFFFFFFFFFFFFFFFFFFFFFFFFFFFFFFFFFF AND MUL OR SWAP1 SSTORE POP DUP2 PUSH20 0xFFFFFFFFFFFFFFFFFFFFFFFFFFFFFFFFFFFFFFFF AND DUP2 PUSH20 0xFFFFFFFFFFFFFFFFFFFFFFFFFFFFFFFFFFFFFFFF AND PUSH32 0x8BE0079C531659141344CD1FD0A4F28419497F9722A3DAAFE3B4186F6B6457E0 PUSH1 0x40 MLOAD PUSH1 0x40 MLOAD DUP1 SWAP2 SUB SWAP1 LOG3 POP POP JUMP JUMPDEST PUSH1 0x0 DUP2 DUP4 PUSH2 0xBF5 SWAP2 SWAP1 PUSH2 0x119F JUMP JUMPDEST SWAP1 POP SWAP3 SWAP2 POP POP JUMP JUMPDEST PUSH1 0x0 DUP2 DUP4 PUSH2 0xC0B SWAP2 SWAP1 PUSH2 0x11D3 JUMP JUMPDEST SWAP1 POP SWAP3 SWAP2 POP POP JUMP JUMPDEST PUSH1 0x0 DUP2 DUP4 PUSH2 0xC21 SWAP2 SWAP1 PUSH2 0x1244 JUMP JUMPDEST SWAP1 POP SWAP3 SWAP2 POP POP JUMP JUMPDEST PUSH1 0x0 CALLER SWAP1 POP SWAP1 JUMP JUMPDEST PUSH1 0x0 DUP2 MLOAD SWAP1 POP SWAP2 SWAP1 POP JUMP JUMPDEST PUSH1 0x0 DUP3 DUP3 MSTORE PUSH1 0x20 DUP3 ADD SWAP1 POP SWAP3 SWAP2 POP POP JUMP JUMPDEST PUSH1 0x0 JUMPDEST DUP4 DUP2 LT ISZERO PUSH2 0xC6B JUMPI DUP1 DUP3 ADD MLOAD DUP2 DUP5 ADD MSTORE PUSH1 0x20 DUP2 ADD SWAP1 POP PUSH2 0xC50 JUMP JUMPDEST PUSH1 0x0 DUP5 DUP5 ADD MSTORE POP POP POP POP JUMP JUMPDEST PUSH1 0x0 PUSH1 0x1F NOT PUSH1 0x1F DUP4 ADD AND SWAP1 POP SWAP2 SWAP1 POP JUMP JUMPDEST PUSH1 0x0 PUSH2 0xC93 DUP3 PUSH2 0xC31 JUMP JUMPDEST PUSH2 0xC9D DUP2 DUP6 PUSH2 0xC3C JUMP JUMPDEST SWAP4 POP PUSH2 0xCAD DUP2 DUP6 PUSH1 0x20 DUP7 ADD PUSH2 0xC4D JUMP JUMPDEST PUSH2 0xCB6 DUP2 PUSH2 0xC77 JUMP JUMPDEST DUP5 ADD SWAP2 POP POP SWAP3 SWAP2 POP POP JUMP JUMPDEST PUSH1 0x0 PUSH1 0x20 DUP3 ADD SWAP1 POP DUP2 DUP2 SUB PUSH1 0x0 DUP4 ADD MSTORE PUSH2 0xCDB DUP2 DUP5 PUSH2 0xC88 JUMP JUMPDEST SWAP1 POP SWAP3 SWAP2 POP POP JUMP JUMPDEST PUSH1 0x0 PUSH1 0xFF DUP3 AND SWAP1 POP SWAP2 SWAP1 POP JUMP JUMPDEST PUSH2 0xCF9 DUP2 PUSH2 0xCE3 JUMP JUMPDEST DUP3 MSTORE POP POP JUMP JUMPDEST PUSH1 0x0 PUSH1 0x20 DUP3 ADD SWAP1 POP PUSH2 0xD14 PUSH1 0x0 DUP4 ADD DUP5 PUSH2 0xCF0 JUMP JUMPDEST SWAP3 SWAP2 POP POP JUMP JUMPDEST PUSH1 0x0 DUP2 SWAP1 POP SWAP2 SWAP1 POP JUMP JUMPDEST PUSH2 0xD2D DUP2 PUSH2 0xD1A JUMP JUMPDEST DUP3 MSTORE POP POP JUMP JUMPDEST PUSH1 0x0 PUSH1 0x20 DUP3 ADD SWAP1 POP PUSH2 0xD48 PUSH1 0x0 DUP4 ADD DUP5 PUSH2 0xD24 JUMP JUMPDEST SWAP3 SWAP2 POP POP JUMP JUMPDEST PUSH1 0x0 DUP1 REVERT JUMPDEST PUSH1 0x0 PUSH20 0xFFFFFFFFFFFFFFFFFFFFFFFFFFFFFFFFFFFFFFFF DUP3 AND SWAP1 POP SWAP2 SWAP1 POP JUMP JUMPDEST PUSH1 0x0 PUSH2 0xD7E DUP3 PUSH2 0xD53 JUMP JUMPDEST SWAP1 POP SWAP2 SWAP1 POP JUMP JUMPDEST PUSH2 0xD8E DUP2 PUSH2 0xD73 JUMP JUMPDEST DUP2 EQ PUSH2 0xD99 JUMPI PUSH1 0x0 DUP1 REVERT JUMPDEST POP JUMP JUMPDEST PUSH1 0x0 DUP2 CALLDATALOAD SWAP1 POP PUSH2 0xDAB DUP2 PUSH2 0xD85 JUMP JUMPDEST SWAP3 SWAP2 POP POP JUMP JUMPDEST PUSH2 0xDBA DUP2 PUSH2 0xD1A JUMP JUMPDEST DUP2 EQ PUSH2 0xDC5 JUMPI PUSH1 0x0 DUP1 REVERT JUMPDEST POP JUMP JUMPDEST PUSH1 0x0 DUP2 CALLDATALOAD SWAP1 POP PUSH2 0xDD7 DUP2 PUSH2 0xDB1 JUMP JUMPDEST SWAP3 SWAP2 POP POP JUMP JUMPDEST PUSH1 0x0 DUP1 PUSH1 0x40 DUP4 DUP6 SUB SLT ISZERO PUSH2 0xDF4 JUMPI PUSH2 0xDF3 PUSH2 0xD4E JUMP JUMPDEST JUMPDEST PUSH1 0x0 PUSH2 0xE02 DUP6 DUP3 DUP7 ADD PUSH2 0xD9C JUMP JUMPDEST SWAP3 POP POP PUSH1 0x20 PUSH2 0xE13 DUP6 DUP3 DUP7 ADD PUSH2 0xDC8 JUMP JUMPDEST SWAP2 POP POP SWAP3 POP SWAP3 SWAP1 POP JUMP JUMPDEST PUSH1 0x0 PUSH1 0x20 DUP3 DUP5 SUB SLT ISZERO PUSH2 0xE33 JUMPI PUSH2 0xE32 PUSH2 0xD4E JUMP JUMPDEST JUMPDEST PUSH1 0x0 PUSH2 0xE41 DUP5 DUP3 DUP6 ADD PUSH2 0xD9C JUMP JUMPDEST SWAP2 POP POP SWAP3 SWAP2 POP POP JUMP JUMPDEST PUSH2 0xE53 DUP2 PUSH2 0xD73 JUMP JUMPDEST DUP3 MSTORE POP POP JUMP JUMPDEST PUSH1 0x0 PUSH1 0x20 DUP3 ADD SWAP1 POP PUSH2 0xE6E PUSH1 0x0 DUP4 ADD DUP5 PUSH2 0xE4A JUMP JUMPDEST SWAP3 SWAP2 POP POP JUMP JUMPDEST PUSH32 0x4E487B7100000000000000000000000000000000000000000000000000000000 PUSH1 0x0 MSTORE PUSH1 0x22 PUSH1 0x4 MSTORE PUSH1 0x24 PUSH1 0x0 REVERT JUMPDEST PUSH1 0x0 PUSH1 0x2 DUP3 DIV SWAP1 POP PUSH1 0x1 DUP3 AND DUP1 PUSH2 0xEBB JUMPI PUSH1 0x7F DUP3 AND SWAP2 POP JUMPDEST PUSH1 0x20 DUP3 LT DUP2 SUB PUSH2 0xECE JUMPI PUSH2 0xECD PUSH2 0xE74 JUMP JUMPDEST JUMPDEST POP SWAP2 SWAP1 POP JUMP JUMPDEST PUSH32 0x43616E6E6F74206D696E74207A65726F206F72206E6567617469766520746F6B PUSH1 0x0 DUP3 ADD MSTORE PUSH32 0x656E732E00000000000000000000000000000000000000000000000000000000 PUSH1 0x20 DUP3 ADD MSTORE POP JUMP JUMPDEST PUSH1 0x0 PUSH2 0xF30 PUSH1 0x24 DUP4 PUSH2 0xC3C JUMP JUMPDEST SWAP2 POP PUSH2 0xF3B DUP3 PUSH2 0xED4 JUMP JUMPDEST PUSH1 0x40 DUP3 ADD SWAP1 POP SWAP2 SWAP1 POP JUMP JUMPDEST PUSH1 0x0 PUSH1 0x20 DUP3 ADD SWAP1 POP DUP2 DUP2 SUB PUSH1 0x0 DUP4 ADD MSTORE PUSH2 0xF5F DUP2 PUSH2 0xF23 JUMP JUMPDEST SWAP1 POP SWAP2 SWAP1 POP JUMP JUMPDEST PUSH32 0x4E6F7420656E6F7567682062616C616E63652E00000000000000000000000000 PUSH1 0x0 DUP3 ADD MSTORE POP JUMP JUMPDEST PUSH1 0x0 PUSH2 0xF9C PUSH1 0x13 DUP4 PUSH2 0xC3C JUMP JUMPDEST SWAP2 POP PUSH2 0xFA7 DUP3 PUSH2 0xF66 JUMP JUMPDEST PUSH1 0x20 DUP3 ADD SWAP1 POP SWAP2 SWAP1 POP JUMP JUMPDEST PUSH1 0x0 PUSH1 0x20 DUP3 ADD SWAP1 POP DUP2 DUP2 SUB PUSH1 0x0 DUP4 ADD MSTORE PUSH2 0xFCB DUP2 PUSH2 0xF8F JUMP JUMPDEST SWAP1 POP SWAP2 SWAP1 POP JUMP JUMPDEST PUSH32 0x4E487B7100000000000000000000000000000000000000000000000000000000 PUSH1 0x0 MSTORE PUSH1 0x11 PUSH1 0x4 MSTORE PUSH1 0x24 PUSH1 0x0 REVERT JUMPDEST PUSH1 0x0 PUSH2 0x100C DUP3 PUSH2 0xD1A JUMP JUMPDEST SWAP2 POP PUSH2 0x1017 DUP4 PUSH2 0xD1A JUMP JUMPDEST SWAP3 POP DUP3 DUP3 ADD SWAP1 POP DUP1 DUP3 GT ISZERO PUSH2 0x102F JUMPI PUSH2 0x102E PUSH2 0xFD2 JUMP JUMPDEST JUMPDEST SWAP3 SWAP2 POP POP JUMP JUMPDEST PUSH32 0x4578636565647320736C69707061676520726174652E00000000000000000000 PUSH1 0x0 DUP3 ADD MSTORE POP JUMP JUMPDEST PUSH1 0x0 PUSH2 0x106B PUSH1 0x16 DUP4 PUSH2 0xC3C JUMP JUMPDEST SWAP2 POP PUSH2 0x1076 DUP3 PUSH2 0x1035 JUMP JUMPDEST PUSH1 0x20 DUP3 ADD SWAP1 POP SWAP2 SWAP1 POP JUMP JUMPDEST PUSH1 0x0 PUSH1 0x20 DUP3 ADD SWAP1 POP DUP2 DUP2 SUB PUSH1 0x0 DUP4 ADD MSTORE PUSH2 0x109A DUP2 PUSH2 0x105E JUMP JUMPDEST SWAP1 POP SWAP2 SWAP1 POP JUMP JUMPDEST PUSH32 0x4F776E61626C653A206E6577206F776E657220697320746865207A65726F2061 PUSH1 0x0 DUP3 ADD MSTORE PUSH32 0x6464726573730000000000000000000000000000000000000000000000000000 PUSH1 0x20 DUP3 ADD MSTORE POP JUMP JUMPDEST PUSH1 0x0 PUSH2 0x10FD PUSH1 0x26 DUP4 PUSH2 0xC3C JUMP JUMPDEST SWAP2 POP PUSH2 0x1108 DUP3 PUSH2 0x10A1 JUMP JUMPDEST PUSH1 0x40 DUP3 ADD SWAP1 POP SWAP2 SWAP1 POP JUMP JUMPDEST PUSH1 0x0 PUSH1 0x20 DUP3 ADD SWAP1 POP DUP2 DUP2 SUB PUSH1 0x0 DUP4 ADD MSTORE PUSH2 0x112C DUP2 PUSH2 0x10F0 JUMP JUMPDEST SWAP1 POP SWAP2 SWAP1 POP JUMP JUMPDEST PUSH32 0x4F776E61626C653A2063616C6C6572206973206E6F7420746865206F776E6572 PUSH1 0x0 DUP3 ADD MSTORE POP JUMP JUMPDEST PUSH1 0x0 PUSH2 0x1169 PUSH1 0x20 DUP4 PUSH2 0xC3C JUMP JUMPDEST SWAP2 POP PUSH2 0x1174 DUP3 PUSH2 0x1133 JUMP JUMPDEST PUSH1 0x20 DUP3 ADD SWAP1 POP SWAP2 SWAP1 POP JUMP JUMPDEST PUSH1 0x0 PUSH1 0x20 DUP3 ADD SWAP1 POP DUP2 DUP2 SUB PUSH1 0x0 DUP4 ADD MSTORE PUSH2 0x1198 DUP2 PUSH2 0x115C JUMP JUMPDEST SWAP1 POP SWAP2 SWAP1 POP JUMP JUMPDEST PUSH1 0x0 PUSH2 0x11AA DUP3 PUSH2 0xD1A JUMP JUMPDEST SWAP2 POP PUSH2 0x11B5 DUP4 PUSH2 0xD1A JUMP JUMPDEST SWAP3 POP DUP3 DUP3 SUB SWAP1 POP DUP2 DUP2 GT ISZERO PUSH2 0x11CD JUMPI PUSH2 0x11CC PUSH2 0xFD2 JUMP JUMPDEST JUMPDEST SWAP3 SWAP2 POP POP JUMP JUMPDEST PUSH1 0x0 PUSH2 0x11DE DUP3 PUSH2 0xD1A JUMP JUMPDEST SWAP2 POP PUSH2 0x11E9 DUP4 PUSH2 0xD1A JUMP JUMPDEST SWAP3 POP DUP3 DUP3 MUL PUSH2 0x11F7 DUP2 PUSH2 0xD1A JUMP JUMPDEST SWAP2 POP DUP3 DUP3 DIV DUP5 EQ DUP4 ISZERO OR PUSH2 0x120E JUMPI PUSH2 0x120D PUSH2 0xFD2 JUMP JUMPDEST JUMPDEST POP SWAP3 SWAP2 POP POP JUMP JUMPDEST PUSH32 0x4E487B7100000000000000000000000000000000000000000000000000000000 PUSH1 0x0 MSTORE PUSH1 0x12 PUSH1 0x4 MSTORE PUSH1 0x24 PUSH1 0x0 REVERT JUMPDEST PUSH1 0x0 PUSH2 0x124F DUP3 PUSH2 0xD1A JUMP JUMPDEST SWAP2 POP PUSH2 0x125A DUP4 PUSH2 0xD1A JUMP JUMPDEST SWAP3 POP DUP3 PUSH2 0x126A JUMPI PUSH2 0x1269 PUSH2 0x1215 JUMP JUMPDEST JUMPDEST DUP3 DUP3 DIV SWAP1 POP SWAP3 SWAP2 POP POP JUMP INVALID LOG2 PUSH5 0x6970667358 0x22 SLT KECCAK256 CODECOPY PUSH27 0x5C4736D14EAF95E8B20544F0EFCBA71CA205F58AD2A0E269AC907D 0xD1 0xBA GASLIMIT PUSH5 0x736F6C6343 STOP ADDMOD GT STOP CALLER "
				},
				"gasEstimates": {
					"creation": {
						"codeDepositCost": "955800",
						"executionCost": "infinite",
						"totalCost": "infinite"
					},
					"external": {
						"balanceOf(address)": "2903",
						"burn(address,uint256)": "infinite",
						"decimals()": "2494",
						"fee()": "2517",
						"mint(address,uint256)": "infinite",
						"name()": "infinite",
						"owner()": "2522",
						"renounceOwnership()": "30509",
						"slippage()": "2474",
						"symbol()": "infinite",
						"transfer(address,uint256)": "infinite",
						"transferOwnership(address)": "30854"
					}
				},
				"methodIdentifiers": {
					"balanceOf(address)": "70a08231",
					"burn(address,uint256)": "9dc29fac",
					"decimals()": "313ce567",
					"fee()": "ddca3f43",
					"mint(address,uint256)": "40c10f19",
					"name()": "06fdde03",
					"owner()": "8da5cb5b",
					"renounceOwnership()": "715018a6",
					"slippage()": "3e032a3b",
					"symbol()": "95d89b41",
					"transfer(address,uint256)": "a9059cbb",
					"transferOwnership(address)": "f2fde38b"
				}
			},
			"storageLayout": {
				"storage": [
					{
						"astId": 7,
						"contract": "contracts/Swap.sol:Swap",
						"label": "_owner",
						"offset": 0,
						"slot": "0",
						"type": "t_address"
					},
					{
						"astId": 1148,
						"contract": "contracts/Swap.sol:Swap",
						"label": "name",
						"offset": 0,
						"slot": "1",
						"type": "t_string_storage"
					},
					{
						"astId": 1150,
						"contract": "contracts/Swap.sol:Swap",
						"label": "symbol",
						"offset": 0,
						"slot": "2",
						"type": "t_string_storage"
					},
					{
						"astId": 1152,
						"contract": "contracts/Swap.sol:Swap",
						"label": "decimals",
						"offset": 0,
						"slot": "3",
						"type": "t_uint8"
					},
					{
						"astId": 1156,
						"contract": "contracts/Swap.sol:Swap",
						"label": "balanceOf",
						"offset": 0,
						"slot": "4",
						"type": "t_mapping(t_address,t_uint256)"
					},
					{
						"astId": 1167,
						"contract": "contracts/Swap.sol:Swap",
						"label": "fee",
						"offset": 0,
						"slot": "5",
						"type": "t_uint256"
					},
					{
						"astId": 1169,
						"contract": "contracts/Swap.sol:Swap",
						"label": "slippage",
						"offset": 0,
						"slot": "6",
						"type": "t_uint256"
					}
				],
				"types": {
					"t_address": {
						"encoding": "inplace",
						"label": "address",
						"numberOfBytes": "20"
					},
					"t_mapping(t_address,t_uint256)": {
						"encoding": "mapping",
						"key": "t_address",
						"label": "mapping(address => uint256)",
						"numberOfBytes": "32",
						"value": "t_uint256"
					},
					"t_string_storage": {
						"encoding": "bytes",
						"label": "string",
						"numberOfBytes": "32"
					},
					"t_uint256": {
						"encoding": "inplace",
						"label": "uint256",
						"numberOfBytes": "32"
					},
					"t_uint8": {
						"encoding": "inplace",
						"label": "uint8",
						"numberOfBytes": "1"
					}
				}
			},
			"userdoc": {
				"kind": "user",
				"methods": {},
				"version": 1
			}
		}
	}
}