{
  "address": "0x5A44F4B67EaB4925b3D314b348459f8ea0AcaA4F",
  "abi": [
    {
      "inputs": [
        {
          "internalType": "string",
          "name": "name",
          "type": "string"
        },
        {
          "internalType": "string",
          "name": "symbol",
          "type": "string"
        }
      ],
      "stateMutability": "nonpayable",
      "type": "constructor"
    },
    {
      "anonymous": false,
      "inputs": [
        {
          "indexed": true,
          "internalType": "address",
          "name": "owner",
          "type": "address"
        },
        {
          "indexed": true,
          "internalType": "address",
          "name": "spender",
          "type": "address"
        },
        {
          "indexed": false,
          "internalType": "uint256",
          "name": "value",
          "type": "uint256"
        }
      ],
      "name": "Approval",
      "type": "event"
    },
    {
      "anonymous": false,
      "inputs": [
        {
          "indexed": true,
          "internalType": "address",
          "name": "previousOwner",
          "type": "address"
        },
        {
          "indexed": true,
          "internalType": "address",
          "name": "newOwner",
          "type": "address"
        }
      ],
      "name": "OwnershipTransferred",
      "type": "event"
    },
    {
      "anonymous": false,
      "inputs": [
        {
          "indexed": false,
          "internalType": "address",
          "name": "account",
          "type": "address"
        }
      ],
      "name": "Paused",
      "type": "event"
    },
    {
      "anonymous": false,
      "inputs": [
        {
          "indexed": true,
          "internalType": "address",
          "name": "from",
          "type": "address"
        },
        {
          "indexed": true,
          "internalType": "address",
          "name": "to",
          "type": "address"
        },
        {
          "indexed": false,
          "internalType": "uint256",
          "name": "value",
          "type": "uint256"
        }
      ],
      "name": "Transfer",
      "type": "event"
    },
    {
      "anonymous": false,
      "inputs": [
        {
          "indexed": false,
          "internalType": "address",
          "name": "account",
          "type": "address"
        }
      ],
      "name": "Unpaused",
      "type": "event"
    },
    {
      "inputs": [
        {
          "internalType": "uint256",
          "name": "amount",
          "type": "uint256"
        }
      ],
      "name": "addLiquidity",
      "outputs": [],
      "stateMutability": "nonpayable",
      "type": "function"
    },
    {
      "inputs": [
        {
          "internalType": "address",
          "name": "owner",
          "type": "address"
        },
        {
          "internalType": "address",
          "name": "spender",
          "type": "address"
        }
      ],
      "name": "allowance",
      "outputs": [
        {
          "internalType": "uint256",
          "name": "",
          "type": "uint256"
        }
      ],
      "stateMutability": "view",
      "type": "function"
    },
    {
      "inputs": [
        {
          "internalType": "address",
          "name": "spender",
          "type": "address"
        },
        {
          "internalType": "uint256",
          "name": "amount",
          "type": "uint256"
        }
      ],
      "name": "approve",
      "outputs": [
        {
          "internalType": "bool",
          "name": "",
          "type": "bool"
        }
      ],
      "stateMutability": "nonpayable",
      "type": "function"
    },
    {
      "inputs": [
        {
          "internalType": "address",
          "name": "account",
          "type": "address"
        }
      ],
      "name": "balanceOf",
      "outputs": [
        {
          "internalType": "uint256",
          "name": "",
          "type": "uint256"
        }
      ],
      "stateMutability": "view",
      "type": "function"
    },
    {
      "inputs": [
        {
          "internalType": "uint256",
          "name": "amount",
          "type": "uint256"
        }
      ],
      "name": "burn",
      "outputs": [],
      "stateMutability": "nonpayable",
      "type": "function"
    },
    {
      "inputs": [],
      "name": "decimals",
      "outputs": [
        {
          "internalType": "uint8",
          "name": "",
          "type": "uint8"
        }
      ],
      "stateMutability": "view",
      "type": "function"
    },
    {
      "inputs": [
        {
          "internalType": "address",
          "name": "spender",
          "type": "address"
        },
        {
          "internalType": "uint256",
          "name": "subtractedValue",
          "type": "uint256"
        }
      ],
      "name": "decreaseAllowance",
      "outputs": [
        {
          "internalType": "bool",
          "name": "",
          "type": "bool"
        }
      ],
      "stateMutability": "nonpayable",
      "type": "function"
    },
    {
      "inputs": [
        {
          "internalType": "address",
          "name": "spender",
          "type": "address"
        },
        {
          "internalType": "uint256",
          "name": "addedValue",
          "type": "uint256"
        }
      ],
      "name": "increaseAllowance",
      "outputs": [
        {
          "internalType": "bool",
          "name": "",
          "type": "bool"
        }
      ],
      "stateMutability": "nonpayable",
      "type": "function"
    },
    {
      "inputs": [
        {
          "internalType": "address",
          "name": "account",
          "type": "address"
        },
        {
          "internalType": "uint256",
          "name": "amount",
          "type": "uint256"
        }
      ],
      "name": "mint",
      "outputs": [],
      "stateMutability": "nonpayable",
      "type": "function"
    },
    {
      "inputs": [],
      "name": "name",
      "outputs": [
        {
          "internalType": "string",
          "name": "",
          "type": "string"
        }
      ],
      "stateMutability": "view",
      "type": "function"
    },
    {
      "inputs": [],
      "name": "owner",
      "outputs": [
        {
          "internalType": "address",
          "name": "",
          "type": "address"
        }
      ],
      "stateMutability": "view",
      "type": "function"
    },
    {
      "inputs": [],
      "name": "pause",
      "outputs": [],
      "stateMutability": "nonpayable",
      "type": "function"
    },
    {
      "inputs": [],
      "name": "paused",
      "outputs": [
        {
          "internalType": "bool",
          "name": "",
          "type": "bool"
        }
      ],
      "stateMutability": "view",
      "type": "function"
    },
    {
      "inputs": [
        {
          "internalType": "uint256",
          "name": "amount",
          "type": "uint256"
        }
      ],
      "name": "removeLiquidity",
      "outputs": [],
      "stateMutability": "nonpayable",
      "type": "function"
    },
    {
      "inputs": [],
      "name": "renounceOwnership",
      "outputs": [],
      "stateMutability": "nonpayable",
      "type": "function"
    },
    {
      "inputs": [],
      "name": "symbol",
      "outputs": [
        {
          "internalType": "string",
          "name": "",
          "type": "string"
        }
      ],
      "stateMutability": "view",
      "type": "function"
    },
    {
      "inputs": [],
      "name": "totalSupply",
      "outputs": [
        {
          "internalType": "uint256",
          "name": "",
          "type": "uint256"
        }
      ],
      "stateMutability": "view",
      "type": "function"
    },
    {
      "inputs": [
        {
          "internalType": "address",
          "name": "recipient",
          "type": "address"
        },
        {
          "internalType": "uint256",
          "name": "amount",
          "type": "uint256"
        }
      ],
      "name": "transfer",
      "outputs": [
        {
          "internalType": "bool",
          "name": "",
          "type": "bool"
        }
      ],
      "stateMutability": "nonpayable",
      "type": "function"
    },
    {
      "inputs": [
        {
          "internalType": "address",
          "name": "from",
          "type": "address"
        },
        {
          "internalType": "address",
          "name": "to",
          "type": "address"
        },
        {
          "internalType": "uint256",
          "name": "amount",
          "type": "uint256"
        }
      ],
      "name": "transferFrom",
      "outputs": [
        {
          "internalType": "bool",
          "name": "",
          "type": "bool"
        }
      ],
      "stateMutability": "nonpayable",
      "type": "function"
    },
    {
      "inputs": [
        {
          "internalType": "address",
          "name": "newOwner",
          "type": "address"
        }
      ],
      "name": "transferOwnership",
      "outputs": [],
      "stateMutability": "nonpayable",
      "type": "function"
    },
    {
      "inputs": [],
      "name": "unpause",
      "outputs": [],
      "stateMutability": "nonpayable",
      "type": "function"
    }
  ],
  "transactionHash": "0xaddf82e82436e2999919da95dcbdc47fe5b6beb70cafcc9e3d10dc91a87e3454",
  "args": [
    "cs",
    "cx"
  ],
  "numDeployments": 1,
  "solcInputHash": "4dfc0fc42ac033db19e29eceb96e11f0",
  "bytecode": "0x60806040523480156200001157600080fd5b50604051620015063803806200150683398101604081905262000034916200023b565b8151829082906200004d906003906020850190620000ea565b50805162000063906004906020840190620000ea565b50506005805460ff1916905550620000846200007e6200008c565b62000090565b5050620002f5565b3390565b600580546001600160a01b03838116610100818102610100600160a81b031985161790945560405193909204169182907f8be0079c531659141344cd1fd0a4f28419497f9722a3daafe3b4186f6b6457e090600090a35050565b828054620000f890620002a2565b90600052602060002090601f0160209004810192826200011c576000855562000167565b82601f106200013757805160ff191683800117855562000167565b8280016001018555821562000167579182015b82811115620001675782518255916020019190600101906200014a565b506200017592915062000179565b5090565b5b808211156200017557600081556001016200017a565b600082601f830112620001a1578081fd5b81516001600160401b0380821115620001be57620001be620002df565b6040516020601f8401601f1916820181018381118382101715620001e657620001e6620002df565b6040528382528584018101871015620001fd578485fd5b8492505b8383101562000220578583018101518284018201529182019162000201565b838311156200023157848185840101525b5095945050505050565b600080604083850312156200024e578182fd5b82516001600160401b038082111562000265578384fd5b620002738683870162000190565b9350602085015191508082111562000289578283fd5b50620002988582860162000190565b9150509250929050565b600281046001821680620002b757607f821691505b60208210811415620002d957634e487b7160e01b600052602260045260246000fd5b50919050565b634e487b7160e01b600052604160045260246000fd5b61120180620003056000396000f3fe608060405234801561001057600080fd5b50600436106101375760003560e01c80635c975abb116100b857806395d89b411161007c57806395d89b411461024d5780639c8f9f2314610255578063a457c2d714610268578063a9059cbb1461027b578063dd62ed3e1461028e578063f2fde38b146102a157610137565b80635c975abb1461020d57806370a0823114610215578063715018a6146102285780638456cb59146102305780638da5cb5b1461023857610137565b806339509351116100ff57806339509351146101b75780633f4ba83a146101ca57806340c10f19146101d457806342966c68146101e757806351c6590a146101fa57610137565b806306fdde031461013c578063095ea7b31461015a57806318160ddd1461017a57806323b872dd1461018f578063313ce567146101a2575b600080fd5b6101446102b4565b6040516101519190610d00565b60405180910390f35b61016d610168366004610c92565b610346565b6040516101519190610cf5565b61018261036a565b60405161015191906110d7565b61016d61019d366004610c57565b610370565b6101aa61039e565b60405161015191906110e0565b61016d6101c5366004610c92565b6103a3565b6101d26103cf565b005b6101d26101e2366004610c92565b6103e1565b6101d26101f5366004610cbb565b6103f7565b6101d2610208366004610cbb565b610404565b61016d610416565b610182610223366004610c04565b61041f565b6101d261043e565b6101d2610450565b610240610460565b6040516101519190610ce1565b610144610474565b6101d2610263366004610cbb565b610483565b61016d610276366004610c92565b610495565b61016d610289366004610c92565b6104e6565b61018261029c366004610c25565b61052b565b6101d26102af366004610c04565b610556565b6060600380546102c390611150565b80601f01602080910402602001604051908101604052809291908181526020018280546102ef90611150565b801561033c5780601f106103115761010080835404028352916020019161033c565b820191906000526020600020905b81548152906001019060200180831161031f57829003601f168201915b5050505050905090565b60008061035161058d565b905061035e818585610591565b60019150505b92915050565b60025490565b60008061037b61058d565b9050610388858285610645565b61039385858561068f565b506001949350505050565b601290565b6000806103ae61058d565b905061035e8185856103c0858961052b565b6103ca91906110ee565b610591565b6103d76106dd565b6103df61071c565b565b6103e96106dd565b6103f3828261076e565b5050565b6104013382610836565b50565b61040c6106dd565b610401308261076e565b60055460ff1690565b6001600160a01b0381166000908152602081905260409020545b919050565b6104466106dd565b6103df6000610928565b6104586106dd565b6103df610982565b60055461010090046001600160a01b031690565b6060600480546102c390611150565b61048b6106dd565b6104013082610836565b6000806104a061058d565b905060006104ae828661052b565b9050838110156104d95760405162461bcd60e51b81526004016104d09061105b565b60405180910390fd5b6103938286868403610591565b6000806104f16109c0565b90506104fd83826109ff565b6105195760405162461bcd60e51b81526004016104d090610dc4565b61035e61052461058d565b858561068f565b6001600160a01b03918216600090815260016020908152604080832093909416825291909152205490565b61055e6106dd565b6001600160a01b0381166105845760405162461bcd60e51b81526004016104d090610e2d565b61040181610928565b3390565b6001600160a01b0383166105b75760405162461bcd60e51b81526004016104d090611017565b6001600160a01b0382166105dd5760405162461bcd60e51b81526004016104d090610e73565b6001600160a01b0380841660008181526001602090815260408083209487168084529490915290819020849055517f8c5be1e5ebec7d5bd14f71427d1e84f3dd0314c0f7b2291e5b200ac8c7c3b925906106389085906110d7565b60405180910390a3505050565b6000610651848461052b565b90506000198114610689578181101561067c5760405162461bcd60e51b81526004016104d090610eb5565b6106898484848403610591565b50505050565b60006103e861069f83600361111a565b6106a99190611106565b905060006106b78284611139565b90506106c4858583610a6d565b6106d6856106d0610460565b84610a6d565b5050505050565b6106e561058d565b6001600160a01b03166106f6610460565b6001600160a01b0316146103df5760405162461bcd60e51b81526004016104d090610f5c565b610724610b91565b6005805460ff191690557f5db9ee0a495bf2e6ff9c91a7834c1ba4fdd244a5e8aa4e537bd38aeae4b073aa61075761058d565b6040516107649190610ce1565b60405180910390a1565b6001600160a01b0382166107945760405162461bcd60e51b81526004016104d0906110a0565b6107a060008383610bb5565b80600260008282546107b291906110ee565b90915550506001600160a01b038216600090815260208190526040812080548392906107df9084906110ee565b90915550506040516001600160a01b038316906000907fddf252ad1be2c89b69c2b068fc378daa952ba7f163c4a11628f55a4df523b3ef906108229085906110d7565b60405180910390a36103f360008383610923565b6001600160a01b03821661085c5760405162461bcd60e51b81526004016104d090610f91565b61086882600083610bb5565b6001600160a01b038216600090815260208190526040902054818110156108a15760405162461bcd60e51b81526004016104d090610deb565b6001600160a01b03831660009081526020819052604081208383039055600280548492906108d0908490611139565b90915550506040516000906001600160a01b038516907fddf252ad1be2c89b69c2b068fc378daa952ba7f163c4a11628f55a4df523b3ef906109139086906110d7565b60405180910390a3610923836000845b505050565b600580546001600160a01b03838116610100818102610100600160a81b031985161790945560405193909204169182907f8be0079c531659141344cd1fd0a4f28419497f9722a3daafe3b4186f6b6457e090600090a35050565b61098a610bc8565b6005805460ff191660011790557f62e78cea01bee320cd4e420270b5ea74000d11b0c9f74754ebdbfc544b05a25861075761058d565b6000606442446040516020016109d7929190610cd3565b6040516020818303038152906040528051906020012060001c6109fa919061118b565b905090565b600080610a0a6109c0565b905060006103e8610a1c86600561111a565b610a269190611106565b905081841115610a515780610a3b8386611139565b1115610a4c57600092505050610364565b610393565b80610a5c8584611139565b111561039357600092505050610364565b6001600160a01b038316610a935760405162461bcd60e51b81526004016104d090610fd2565b6001600160a01b038216610ab95760405162461bcd60e51b81526004016104d090610d53565b610ac4838383610bb5565b6001600160a01b03831660009081526020819052604090205481811015610afd5760405162461bcd60e51b81526004016104d090610eec565b6001600160a01b03808516600090815260208190526040808220858503905591851681529081208054849290610b349084906110ee565b92505081905550826001600160a01b0316846001600160a01b03167fddf252ad1be2c89b69c2b068fc378daa952ba7f163c4a11628f55a4df523b3ef84604051610b7e91906110d7565b60405180910390a3610689848484610923565b610b99610416565b6103df5760405162461bcd60e51b81526004016104d090610d96565b610bbd610bc8565b610923838383610923565b610bd0610416565b156103df5760405162461bcd60e51b81526004016104d090610f32565b80356001600160a01b038116811461043957600080fd5b600060208284031215610c15578081fd5b610c1e82610bed565b9392505050565b60008060408385031215610c37578081fd5b610c4083610bed565b9150610c4e60208401610bed565b90509250929050565b600080600060608486031215610c6b578081fd5b610c7484610bed565b9250610c8260208501610bed565b9150604084013590509250925092565b60008060408385031215610ca4578182fd5b610cad83610bed565b946020939093013593505050565b600060208284031215610ccc578081fd5b5035919050565b918252602082015260400190565b6001600160a01b0391909116815260200190565b901515815260200190565b6000602080835283518082850152825b81811015610d2c57858101830151858201604001528201610d10565b81811115610d3d5783604083870101525b50601f01601f1916929092016040019392505050565b60208082526023908201527f45524332303a207472616e7366657220746f20746865207a65726f206164647260408201526265737360e81b606082015260800190565b60208082526014908201527314185d5cd8589b194e881b9bdd081c185d5cd95960621b604082015260600190565b6020808252600d908201526c0e6d8d2e040e8dede40daeac6d609b1b604082015260600190565b60208082526022908201527f45524332303a206275726e20616d6f756e7420657863656564732062616c616e604082015261636560f01b606082015260800190565b60208082526026908201527f4f776e61626c653a206e6577206f776e657220697320746865207a65726f206160408201526564647265737360d01b606082015260800190565b60208082526022908201527f45524332303a20617070726f766520746f20746865207a65726f206164647265604082015261737360f01b606082015260800190565b6020808252601d908201527f45524332303a20696e73756666696369656e7420616c6c6f77616e6365000000604082015260600190565b60208082526026908201527f45524332303a207472616e7366657220616d6f756e7420657863656564732062604082015265616c616e636560d01b606082015260800190565b60208082526010908201526f14185d5cd8589b194e881c185d5cd95960821b604082015260600190565b6020808252818101527f4f776e61626c653a2063616c6c6572206973206e6f7420746865206f776e6572604082015260600190565b60208082526021908201527f45524332303a206275726e2066726f6d20746865207a65726f206164647265736040820152607360f81b606082015260800190565b60208082526025908201527f45524332303a207472616e736665722066726f6d20746865207a65726f206164604082015264647265737360d81b606082015260800190565b60208082526024908201527f45524332303a20617070726f76652066726f6d20746865207a65726f206164646040820152637265737360e01b606082015260800190565b60208082526025908201527f45524332303a2064656372656173656420616c6c6f77616e63652062656c6f77604082015264207a65726f60d81b606082015260800190565b6020808252601f908201527f45524332303a206d696e7420746f20746865207a65726f206164647265737300604082015260600190565b90815260200190565b60ff91909116815260200190565b600082198211156111015761110161119f565b500190565b600082611115576111156111b5565b500490565b60008160001904831182151516156111345761113461119f565b500290565b60008282101561114b5761114b61119f565b500390565b60028104600182168061116457607f821691505b6020821081141561118557634e487b7160e01b600052602260045260246000fd5b50919050565b60008261119a5761119a6111b5565b500690565b634e487b7160e01b600052601160045260246000fd5b634e487b7160e01b600052601260045260246000fdfea2646970667358221220abec5f746bd12996a513990c9397cc293d42f4a9c041cbf3cbd68a77d5619b7f64736f6c63430008000033",
  "devdoc": {
    "kind": "dev",
    "methods": {
      "allowance(address,address)": {
        "details": "See {IERC20-allowance}."
      },
      "approve(address,uint256)": {
        "details": "See {IERC20-approve}. NOTE: If `amount` is the maximum `uint256`, the allowance is not updated on `transferFrom`. This is semantically equivalent to an infinite approval. Requirements: - `spender` cannot be the zero address."
      },
      "balanceOf(address)": {
        "details": "See {IERC20-balanceOf}."
      },
      "decimals()": {
        "details": "Returns the number of decimals used to get its user representation. For example, if `decimals` equals `2`, a balance of `505` tokens should be displayed to a user as `5.05` (`505 / 10 ** 2`). Tokens usually opt for a value of 18, imitating the relationship between Ether and Wei. This is the value {ERC20} uses, unless this function is overridden; NOTE: This information is only used for _display_ purposes: it in no way affects any of the arithmetic of the contract, including {IERC20-balanceOf} and {IERC20-transfer}."
      },
      "decreaseAllowance(address,uint256)": {
        "details": "Atomically decreases the allowance granted to `spender` by the caller. This is an alternative to {approve} that can be used as a mitigation for problems described in {IERC20-approve}. Emits an {Approval} event indicating the updated allowance. Requirements: - `spender` cannot be the zero address. - `spender` must have allowance for the caller of at least `subtractedValue`."
      },
      "increaseAllowance(address,uint256)": {
        "details": "Atomically increases the allowance granted to `spender` by the caller. This is an alternative to {approve} that can be used as a mitigation for problems described in {IERC20-approve}. Emits an {Approval} event indicating the updated allowance. Requirements: - `spender` cannot be the zero address."
      },
      "name()": {
        "details": "Returns the name of the token."
      },
      "owner()": {
        "details": "Returns the address of the current owner."
      },
      "paused()": {
        "details": "Returns true if the contract is paused, and false otherwise."
      },
      "renounceOwnership()": {
        "details": "Leaves the contract without owner. It will not be possible to call `onlyOwner` functions anymore. Can only be called by the current owner. NOTE: Renouncing ownership will leave the contract without an owner, thereby removing any functionality that is only available to the owner."
      },
      "symbol()": {
        "details": "Returns the symbol of the token, usually a shorter version of the name."
      },
      "totalSupply()": {
        "details": "See {IERC20-totalSupply}."
      },
      "transferFrom(address,address,uint256)": {
        "details": "See {IERC20-transferFrom}. Emits an {Approval} event indicating the updated allowance. This is not required by the EIP. See the note at the beginning of {ERC20}. NOTE: Does not update the allowance if the current allowance is the maximum `uint256`. Requirements: - `from` and `to` cannot be the zero address. - `from` must have a balance of at least `amount`. - the caller must have allowance for ``from``'s tokens of at least `amount`."
      },
      "transferOwnership(address)": {
        "details": "Transfers ownership of the contract to a new account (`newOwner`). Can only be called by the current owner."
      }
    },
    "version": 1
  },
  "userdoc": {
    "kind": "user",
    "methods": {},
    "version": 1
  },
  "storageLayout": {
    "storage": [
      {
        "astId": 236,
        "contract": "contracts/FT.sol:FT",
        "label": "_balances",
        "offset": 0,
        "slot": "0",
        "type": "t_mapping(t_address,t_uint256)"
      },
      {
        "astId": 242,
        "contract": "contracts/FT.sol:FT",
        "label": "_allowances",
        "offset": 0,
        "slot": "1",
        "type": "t_mapping(t_address,t_mapping(t_address,t_uint256))"
      },
      {
        "astId": 244,
        "contract": "contracts/FT.sol:FT",
        "label": "_totalSupply",
        "offset": 0,
        "slot": "2",
        "type": "t_uint256"
      },
      {
        "astId": 246,
        "contract": "contracts/FT.sol:FT",
        "label": "_name",
        "offset": 0,
        "slot": "3",
        "type": "t_string_storage"
      },
      {
        "astId": 248,
        "contract": "contracts/FT.sol:FT",
        "label": "_symbol",
        "offset": 0,
        "slot": "4",
        "type": "t_string_storage"
      },
      {
        "astId": 130,
        "contract": "contracts/FT.sol:FT",
        "label": "_paused",
        "offset": 0,
        "slot": "5",
        "type": "t_bool"
      },
      {
        "astId": 7,
        "contract": "contracts/FT.sol:FT",
        "label": "_owner",
        "offset": 1,
        "slot": "5",
        "type": "t_address"
      }
    ],
    "types": {
      "t_address": {
        "encoding": "inplace",
        "label": "address",
        "numberOfBytes": "20"
      },
      "t_bool": {
        "encoding": "inplace",
        "label": "bool",
        "numberOfBytes": "1"
      },
      "t_mapping(t_address,t_mapping(t_address,t_uint256))": {
        "encoding": "mapping",
        "key": "t_address",
        "label": "mapping(address => mapping(address => uint256))",
        "numberOfBytes": "32",
        "value": "t_mapping(t_address,t_uint256)"
      },
      "t_mapping(t_address,t_uint256)": {
        "encoding": "mapping",
        "key": "t_address",
        "label": "mapping(address => uint256)",
        "numberOfBytes": "32",
        "value": "t_uint256"
      },
      "t_string_storage": {
        "encoding": "bytes",
        "label": "string",
        "numberOfBytes": "32"
      },
      "t_uint256": {
        "encoding": "inplace",
        "label": "uint256",
        "numberOfBytes": "32"
      }
    }
  }
}